:020000040800F2
:1000000028110020C10100084D4100086B3500088F
:10001000A53F0008CF090008B14D0008000000000E
:100020000000000000000000000000001F45000864
:100030000D10000800000000BD4100082145000827
:10004000DB010008DB010008DB010008DB01000820
:10005000DB010008DB010008DB010008DB01000810
:10006000DB010008DB010008DB010008DB01000800
:10007000390F0008DB010008DB010008DB01000884
:10008000DB010008DB010008DB010008DD090008D6
:10009000D1090008DB010008DB010008DB010008D2
:1000A000DB01000829460008DB010008DB0100082D
:1000B000DB010008DB010008DB010008DB010008B0
:1000C000DB010008DB010008DB010008DB010008A0
:1000D000DB010008814D00088D4D0008994D000896
:1000E000DB010008DB010008DB010008DB01000880
:1000F000DB010008DB010008DB010008DB01000870
:10010000DB010008DB010008DB010008DB0100085F
:10011000DB010008DB010008354600084146000805
:10012000DB010008450F0008510F0008DB01000843
:10013000DB010008DB010008DB010008F50900080D
:10014000E9090008DB010008DB010008DB01000809
:10015000DB0100085D0F0008DB010008A54D000869
:10016000DB010008DB010008DB010008DB010008FF
:10017000DB010008DB010008DB01000800000000D3
:10018000DB010008DB010008FD4800080949000800
:10019000DB010008DB010008DB010008DB010008CF
:1001A0000000000000000000DB010008DFF80CD0B8
:1001B00000F0D0FB004800472D5100082811002016
:1001C0000648804706480047FEE7FEE7FEE7FEE7F1
:1001D000FEE7FEE7FEE7FEE7FEE7FEE7D54500089F
:1001E000AD010008002202604160704741680029AB
:1001F00002DC9FED170A70470268511C01604168DC
:100200008A4201DB41680160016800EE101AF8EED5
:10021000C00A416800EE101AB8EEC01A80EE810ADA
:1002200010EE101A8160816800EE101AE3E7016099
:1002300070470021016070474160704701460868BF
:100240004A68904201DB012070470020FCE7000073
:10025000000000009FED460A80ED000A9FED440A71
:1002600080ED010A9FED420A80ED070A9FED400AEA
:1002700080ED080A9FED3E0A80ED090A9FED3C0AD9
:1002800080ED0D0A704790ED030A80ED020A90EDB3
:10029000000AD0ED010A30EE600A80ED030A90ED0D
:1002A000040AD0ED030A20EE200A80ED070A90ED43
:1002B000080AD0ED050A90ED031A00EE810A80EDE0
:1002C000080A90ED030AD0ED020A30EE600AD0ED84
:1002D000060A20EE200A80ED090A90ED080AD0ED0A
:1002E0000B0AF1EE600AB4EEE00AF1EE10FA06D85D
:1002F00090ED0B0AB1EE400A80ED080A0CE090ED9B
:10030000080AD0ED0B0AB4EEE00AF1EE10FA03DBB6
:1003100090ED0B0A80ED080A90ED070AD0ED080A6F
:1003200030EE200AD0ED090A30EE200A80ED0D0AE9
:1003300090ED0D0AD0ED0E0AF1EE600AB4EEE00A7F
:10034000F1EE10FA06D890ED0E0AB1EE400A80EDFB
:100350000D0A0CE090ED0D0AD0ED0E0AB4EEE00AA5
:10036000F1EE10FA03DB90ED0E0A80ED0D0A7047F6
:10037000000000002DE9F05F0546002092469B46F4
:1003800088460646814640241BE0284641464746AB
:10039000224600F028FA53465A46C01A914110D31B
:1003A00011461846224600F00FFA2D1A67EB010895
:1003B0004F4622460120002100F006FA17EB000903
:1003C0004E41201EA4F10104DFDC484631462A4696
:1003D0004346BDE8F09F40EA01039B0703D009E0D4
:1003E00008C9121F08C0042AFAD203E011F8013B21
:1003F00000F8013B521EF9D270472DE9FE4F8046AE
:1004000081EA0300C00F0C46009021F0004123F068
:100410000045B8EB0200A94105D24046214690466E
:100420001C460B46024623F00040104347D0270DE0
:10043000C7F30A00C3F30A510290401A0190402802
:100440006BDAC3F3130040F4801B0098924620B18E
:100450000023D2EB030A63EB0B0B01985946C0F162
:100460004002504600F0B0F906460D465046594647
:10047000019A00F0C8F910EB08006141002487EAF6
:10048000115284EAE7731A4340D0009A62B3019A8A
:10049000012A4FEA075215DC001B61EB02014FF005
:1004A000004202EA0752CDE90042001C41F58011EA
:1004B00032462B4600F0FFF903B0BDE8F08F40460E
:1004C0002146F9E7001B61EB0201001C41F5801396
:1004D00000185B412018A2F5001747EB030140EA22
:1004E000D570B6196D4111E06D084FEA360645EA40
:1004F000C0754FEA0752001B61EB0201001C41F579
:10050000801149084FEA30000019514132462B460C
:1005100003B0BDE8F04F00F0BFB9009801224000E1
:100520000023D0EB020263EBE073009821464FEA10
:10053000E074B8EB000061EB0401E9E783F00043ED
:100540005BE781F0004158E72DE9FE4F81EA0304A3
:1005500004F0004421F0004100944FF0000B23F020
:10056000004350EA01045ED052EA03045BD0C3F3B7
:100570000A54C1F30A552C44A4F2F3340194A0FBAD
:100580000254C1F3130141F48011C3F3130343F484
:10059000801301FB024400FB034E840A970A44EADD
:1005A000815447EA8357A4FB076802958D0A05FB2F
:1005B00007854FEA932C04FB0C542705029D4FEA54
:1005C000065847EA1637B5EB08056EEB070C870EA1
:1005D000920E47EA811742EA8312A7FB0201B6EBAB
:1005E0000B0164EB00042B0D43EA0C335E1844EB63
:1005F0001C50DA465146E7FB0201C5F313044FEAEB
:100600000B3343EA14534FEA0432019C43EA0603D6
:10061000A4F10C040294009CCDE900B400F04BF965
:1006200003B0BDE8F08F00200146F9E72DE9F04D59
:1006300081EA030404F0004B21F0004514464FF01A
:10064000000A23F0004150EA050220D054EA0102DA
:100650001DD0C5F30A570246C5F31303C1F31300B7
:10066000C1F30A5640F4801543F48013A7EB060843
:10067000101BD64608F2FD3873EB050002D308F1D3
:10068000010801E092185B41B8F1000F03DA002085
:100690000146BDE8F08D00204FF4801106468446E7
:1006A0000EE0171B73EB050705D3121B63EB050365
:1006B00006434CEA010C49084FEA300092185B41AE
:1006C00050EA0107EDD152EA030012D082EA040099
:1006D00083EA0501084305D0101BAB4106D2012275
:1006E000002306E000224FF0004302E06FF0010219
:1006F00053101AEB06004CEB085110EB0A0041EBCB
:100700000B01BDE8F04D00F0C7B80EB5C10F80EA8F
:10071000E0700844CA07002140F233438DE80E0020
:100720000A460B4600F0C7F803B000BD70B5C1F330
:100730000A5201F000450024C1F3130140F2FF33D7
:1007400041F480119A4201DA002070BD40F2334337
:100750009A42A2F2334203DC524200F044F800E035
:1007600090402C43F1D0404270BD00F0004230F088
:1007700000400AD0C10D01F56071C0F3160042EAD5
:100780000151C208400711437047002001467047DD
:1007900001F0004330B421F0004150EA010206D0DC
:1007A0000A0DA2F56072C1F31301002A02DC30BC0D
:1007B00000207047440F44EAC104C100E01830BC77
:1007C00000EBC25000F031B8202A04DB203A00FAD6
:1007D00002F1002070479140C2F1200320FA03F398
:1007E000194390407047202A04DB203A21FA02F096
:1007F0000021704721FA02F3D040C2F1200291405B
:10080000084319467047202A06DBCB17203A41FAE5
:1008100002F043EAE07306E041FA02F3D040C2F18D
:10082000200291400843194670470029A8BF70472D
:10083000401C490008BF20F00100704710B4B0FA16
:1008400080FC00FA0CF050EA010404BF10BC7047B1
:1008500049B1CCF1200421FA04F411FA0CF118BFCB
:10086000012121430843A3EB0C01CB1D4FEA00619A
:100870004FEA102042BF002010BC704700EBC3506D
:1008800010440029A4BF10BC7047401C490008BF99
:1008900020F0010010BC704710B5141E73F1000465
:1008A00008DA401C41F1000192185B411A4301D162
:1008B00020F0010010BD2DE9F04D92469B4611B18C
:1008C000B1FA81F202E0B0FA80F220329046FFF7EE
:1008D0007BFF04460F4640EA0A0041EA0B015346FB
:1008E0005A46084313D0114653EA010019D0C8F103
:1008F00040025046FFF777FF05460E4650465946E0
:100900004246FFF761FF084305D0012004E020467E
:100910003946BDE8F08D0020054346EAE0762C43D9
:1009200037430A986305E40AA0EB08000022FD0A99
:1009300044EA47540A3002D500200146E9E70105A0
:1009400010196941DDE9084500196941BDE8F04D1C
:10095000A2E70000064C074D06E0E06840F0010306
:1009600094E8070098471034AC42F6D3FFF722FC16
:10097000085800082858000870B58C1810F8015B5A
:1009800015F0070301D110F8013B2A1106D110F828
:10099000012B03E010F8016B01F8016B5B1EF9D12C
:1009A0002B0705D40023521E0DD401F8013BFAE7B2
:1009B00010F8013BCB1A921C03E013F8015B01F81D
:1009C000015B521EF9D5A142D8D3002070BDFEE7CD
:1009D000014800F0E3BB0000D0070020014800F010
:1009E000DDBB0000D0070020014800F0D7BB0000AD
:1009F00014080020014800F0D1BB000014080020BA
:100A000010B5002958D0826B4FF4D873046803EBFB
:100A10000113E45814F0040494600468E4584DD0C1
:100A2000E40854600468E35803F00203D3604FF411
:100A3000DA73046803EB0113E45804F00F04146143
:100A400011620468E358C3F30723D3614FF4DC73E6
:100A5000046803EB0113E45814750468E458240A8D
:100A600054750468E458240C94750468E3581B0E0C
:100A7000D3754FF4DE73046803EB0113E458147666
:100A80000468E458240A54760468E458240C9476E4
:100A90000468E3581B0ED3760368202289B11A61DB
:100AA0000268536923F05003536190F83C20222AD6
:100AB0000DD0322A0BD00FE0426BA5E7640D146015
:100AC000B0E7DA600268536923F00A03ECE70268D2
:100AD000536923F40F43536112220123002990F834
:100AE0003C1006D0522914D0622915D0722906D1A3
:100AF00014E042290DD0622907D0722907D080F86E
:100B00003C3000F0D7FD002010BD322107E052211B
:100B100005E080F83C20F4E7222100E0422180F843
:100B20003C10EEE72DE9F05F2DED088B00F0B8F9F1
:100B3000674EB6F90400FFF7E8FD894649EC100B53
:100B400005469FED648B51EC100B53EC182BFFF70F
:100B5000FBFC41EC190BB6F90200FFF7D6FD884605
:100B600048EC100B044653EC182B51EC100BFFF71C
:100B7000EBFCB6F9006041EC1A0B7042FFF7C5FDC3
:100B80008B464BEC100B074653EC182B51EC100B1B
:100B9000FFF7DAFC53EC1A2BFFF72FFC53EC192B61
:100BA000FFF72BFC9FED4D1B53EC112BFFF7CCFCFB
:100BB0004C4A49EC105BC2E9080153EC182B51EC8C
:100BC000100BFFF7C1FC48EC104B41EC190B53EC38
:100BD000182B51EC100BFFF7B7FC41EC1A0B304609
:100BE000FFF793FD8A464AEC100B064653EC182B90
:100BF00051EC100BFFF7A8FC53EC1A2BFFF7FDFB91
:100C000053EC192BFFF7F9FB9FED379B53EC192B96
:100C1000FFF79AFC364A49EC105BC2E9080153EC35
:100C2000182B51EC100BFFF78FFC48EC104B41ECEC
:100C30001A0B53EC182B51EC100BFFF785FC4AEC08
:100C4000106B41EC1B0B53EC182B51EC100BFFF706
:100C50007BFC53EC1B2BFFF771FC53EC1A2BFFF7BB
:100C6000CCFB53EC192BFFF76FFC224A49EC105BCD
:100C7000C2E9080153EC182B51EC100BFFF764FC90
:100C800048EC104B41EC1B0B53EC182B51EC100BA8
:100C9000FFF75AFC4BEC107B41EC1A0B53EC182B72
:100CA00051EC100BFFF750FC53EC1A2BFFF746FCEE
:100CB00053EC1B2BFFF7A1FB53EC192BFFF744FC64
:100CC0000D4AC2E90801BDEC088BBDE8F09F0000A9
:100CD00018000020333333333333B33F00000000B8
:100CE00000006440080100200000000000003040C7
:100CF00030020020580300208004002010B50400BA
:100D000020D094ED080B51EC100BFFF741FDC4F817
:100D1000D000B4F9120000EE100A04F1D000B8EED1
:100D2000C00A84ED350AD4F81811884794ED410AB9
:100D3000DFED050A20EE200ABDEEC00A10EE100A13
:100D4000A4F8200110BD00006666A63F2DE9F04121
:100D500004002DED048B05D094F8280030B1401C20
:100D600084F82800BDEC048BBDE8F08194F82900DC
:100D7000258A4FF00008012815D0668D4FF47A605F
:100D80009FED458BAE421AD3771B8742E0680EDD9C
:100D9000FFF7EBFC41EC190BA81B4FF4B47100F505
:100DA0000050484331E0658584F82980DAE7FFF791
:100DB000DCFC41EC190B4FF4B47078430DE0AF1B31
:100DC0008742E0681ADDFFF7D0FC41EC190B701B7D
:100DD0004FF4B47100F500504843FFF796FC53EC14
:100DE000182BFFF7B1FB53EC192BFFF71FFC94ED09
:100DF0000C1B53EC112BFFF7A4FB16E0FFF7B5FC1F
:100E000041EC190B4FF4B4707843FFF77EFC53ECC0
:100E1000182BFFF799FB53EC192BFFF707FC94ED08
:100E20000C1B53EC112BFFF7E8FAC4E90C01B4F9E1
:100E3000120094ED031A00EB4000400000EE100A8F
:100E4000F8EEC00A80EE810A10EE100AFFF78DFC62
:100E5000FFF79EFC94ED0C0B08EE900A51EC100B82
:100E6000FFF796FC94ED082B08EE100A51EC120BDC
:100E7000FFF78EFC00EE100AB0EE681AF0EE480A9A
:100E800004F1860104F13C0003F071F9A4F820019B
:100E900084F82880658565E7000000000000203F99
:100EA00070B5204C9FED1E0A1F482DED048B84ED7C
:100EB000000A90ED000A204684ED010AA16C8847E3
:100EC0001A4DB5F90200FFF720FC9FED199B53EC7A
:100ED000192BFFF739FB41EC180BB5F90000FFF7B0
:100EE00014FC53EC192BFFF72FFB94ED0D0AF2EED7
:100EF0000A0A41EC190B20EE200A10EE100AFFF747
:100F000034FC53EC192BFFF778FA53EC182BFFF74E
:100F100074FAFFF70BFCA880BDEC048B70BD0000D9
:100F200000000000A0000020140000201800002095
:100F30007B14AE47E17A843F014800F05FBD0000BA
:100F4000040C0020014800F059BD0000640C002092
:100F5000014800F053BD0000A40B0020014800F040
:100F60004DBD0000C40C002001681823CAB2103A1D
:100F7000B2FBF3F2054B6FF30901032A9B5CC365D7
:100F800000D9091D8165084670470000D457000844
:100F900010B5014600208B698A6A4FF0C07453B1C6
:100FA000B3F5005F15D072B1012A0CD0022A0AD025
:100FB000032A09D104E01AB1012A06D0022A03D17A
:100FC000C96AC90100D5012010BDC96AA142FAD081
:100FD00010BD002AF7D0012AF2D0022AF3D0032A4A
:100FE000F3D010BD30B50468256825F48025256050
:100FF000046863608368402B036803D099600068CD
:10100000C26030BD9A600068C16030BD70470000AA
:1010100070B50D4C32212046E269904704F1240559
:101020003C21EA6928469047A16920468847A9697A
:1010300028468847A4F1080100200880488088805D
:1010400003201439087070BD2000002070B50170B5
:10105000037D021D9954457D037DAC5C41EA84010A
:101060005C1C417004F00F068675B65C41EA0611FF
:101070008170A95C9E5C094D00228E420CD169688A
:10108000491C6960282900D3C670E1B24375017517
:10109000102900D1027570BD6A60F6E7F0060020E5
:1010A00010B5087D012282403A48D0F8003243F062
:1010B0000103C0F80032D0F8003223F47C53C0F8AA
:1010C0000032D0F800324C6A43EA0423C0F8003200
:1010D000D0F81C329343C0F81C32CB69B3B9D0F8B6
:1010E0000C329343C0F80C328C894B6864F31F4375
:1010F0004C6900EBC404C4F840320C890B6864F3FB
:101100001F434C6900EBC404C4F84432CB69012B83
:1011100016D1D0F80C321343C0F80C320C884B684F
:1011200064F31F434C6900EBC404C4F840320C89DB
:10113000CB6864F31F434C6900EBC404C4F8443229
:101140008B69002BD0F8043205D01343C0F8043269
:101150000B6913B106E09343F8E7D0F814329343D8
:10116000C0F814320B69012B04D1D0F814321343A8
:10117000C0F81432096A012904D1D0F81C121143B5
:10118000C0F81C12D0F8001221F00101C0F80012C2
:10119000002010BD00640040704700002DE9F041C0
:1011A000044600680026C1684269C1F30011C2F319
:1011B000C002102311B10AB15E01C3602068016949
:1011C0004269C1F30011C2F3801219B112B146F4A1
:1011D00080660361216848694FF00105C043C0077C
:1011E0004ED18A687648904323D000228B68754898
:1011F000984320D000238F687348B8431DD0002047
:101200001A4302433CD088688A68C0F340008B6868
:10121000C2F34022C3F340431043184329D04A6924
:10122000204622F001024A6194F83C10122906D0AF
:101230000AE00122DAE70123DDE70120E0E70168A7
:101240004A6922F40F424A6190F83C10422908D0C2
:10125000522908D0722908D080F83C5000F062FB77
:1012600009E0222102E0322100E0622180F83C10F6
:10127000F4E746F4006620688168544A11438160AF
:101280002068C168406911F0030FC0F3400004D02A
:1012900018B100212046FFF7B3FB206801694069BF
:1012A00011F0030FC0F3001004D018B10121204643
:1012B000FFF7A6FB206C3043206420688169C1F3EE
:1012C000000241694369C1F30021C3F3C0332AB16D
:1012D00021B11BB1216C41F0010121648169C1F38D
:1012E000400241694369C1F34021C3F3C0332AB1CD
:1012F00021B11BB1216C41F0020121648169C1F36C
:10130000800241694369C1F38021C3F3C0332AB12C
:1013100021B11BB1216C41F004012164816911F0FC
:10132000700F08D0002142694369C2F3C022C3F3A1
:10133000C03311B121E00121F5E7F2B1EBB18169D0
:1013400001F0700140292FD006DC102909D0202996
:101350000BD030290DD123E0502929D0602908D1A4
:101360002AE0216C41F0080102E0216C41F01001FB
:101370002164816921F070018161206C00280DD009
:1013800021680420486084F83C502068416948F690
:101390005B72914341612046FFF7FEFEBDE8F0819C
:1013A000216C41F02001E3E7216C41F04001DFE7CF
:1013B000216C41F08001DBE7216C41F48071D7E7BB
:1013C00003000004000300080000031019050100D9
:1013D0002DE9F04104004FF0000604D094F83C00E1
:1013E000002518B107E00120BDE8F08184F83D50E8
:1013F000204600F093F8022084F83C002068016841
:1014000021F0020101602068016841F001010160E2
:1014100000F06CFD07464FF0030804E000F066FDA5
:10142000C01B0A2862D820684068C007F6D0206830
:101430004168C90767D0A169012901683FD021F03F
:1014400080010160E0690128206801683AD021F03C
:1014500040010160206A01282068016835D021F030
:1014600020010160606A01282068016830D021F005
:1014700010010160A06A0128206801682BD021F0CA
:1014800008010160E06A01282068016826D021F087
:1014900004010160D4E902010843D4E904121143B4
:1014A00008436168491E08432168C86120680168D3
:1014B00021F00101016000F019FD07461BE041F039
:1014C0008001BEE741F04001C3E741F02001C8E7D9
:1014D00041F01001CDE741F00801D2E741F00401ED
:1014E000D7E700F003FDC01B0A2804D904F83C8F9D
:1014F0000320657078E720684068C007F1D1206854
:101500004068C00700D02EB12564012084F83C005B
:10151000002069E7042084F83C0064E7F0B5324B12
:101520000168DFF8C0C018680324022509262F4A85
:101530000027401C87B0614521D11860012807D1E0
:10154000106840F000701060106800F000700590A6
:101550008DE8B000CDE903466946254800F0D2FB8E
:1015600000221146132000F06DFD132000F05FFDF6
:1015700000221146142000F065FD14202EE0DFF853
:1015800074C061452CD1116841F08061116011680F
:10159000012801F080610591186007D1106840F0C2
:1015A00000701060106800F0007005904FF440501B
:1015B0008DE8A100CDE9034669460F4800F0A2FB83
:1015C000002202213F2000F03DFD3F2000F02FFDD2
:1015D00000220121402000F035FD402000F027FDD1
:1015E00007B0F0BD006400402007002040380240F2
:1015F000000C0240006800400004024030B511B108
:10160000012924D00FE090F83C20222A27D090F81E
:101610003C20422A23D090F83C20622A1FD090F828
:101620003C20722A1BD090F83D20012A17D00122BD
:1016300080F83D20622490F83C20722389B1122A60
:1016400019D0222A1BD0422A1CD0322214E090F852
:101650003C20322A03D090F83C20522ADBD10220D1
:1016600030BD122A05D0322A09D0522A0AD02222AD
:1016700002E0422200E0522280F83C2004E080F8A0
:101680003C4001E080F83C30002303640268546968
:1016900048F601752C43546180F83D3000680029FC
:1016A000416904D041F050014161002030BD41F05A
:1016B0000A01F9E72DE9F04100224549454C17465A
:1016C0004FF0010888423FD1434E444B002056F86A
:1016D000201031B3B1F80AC01D68654521D10D78DD
:1016E000012215B1012D1CD10CE09D8A6DBA0D822D
:1016F000D98A56F8205049BA6982198B56F8205079
:1017000049BAA982998A56F8205049BAE982D98AF9
:1017100056F8205049BA2983198B56F8205049BAF7
:101720006983401C0828D2DB1AB96D212CA003F074
:10173000B9FB00212648FFF761FF10B12770BDE813
:10174000F08184F80080FAE72B498842F7D1234BD7
:1017500000202A4E243356F8201031B3B1F80AC0C5
:101760001D68654521D10D78012215B1012D1CD1CF
:101770000CE09D8A6DBA0D82D98A56F8205049BA7C
:101780006982198B56F8205049BAA982998A56F86D
:10179000205049BAE982D98A56F8205049BA29839B
:1017A000198B56F8205049BA6983401C0828D2DBAF
:1017B0001AB98E210AA003F075FB00210E48FFF72D
:1017C0001DFF08B16770BAE784F80180B7E7000031
:1017D000D00700206C000020D00600202807002041
:1017E0002E2E5C5461736B735C5372635C43414E89
:1017F0005461736B2E6300001408002070070020F2
:1018000070B503689968490105D49968090102D443
:101810009968C9007ED590F83D10012907D00121B3
:1018200080F83D109968490103D5002207E00220A5
:1018300070BD9968090101D5012200E002224FF430
:10184000C07101EB02115C5804F001045C50036BA1
:101850009C68ECB305686E582643DC685B6844EA14
:10186000C3031E436E50036B1C7C04F00F041C6109
:101870004FF4C273046803EB0213E55825F00F051B
:10188000E5500468E558066B36693543E550036B4F
:101890004FF4C47505EB02151C7DD3F8153044EAEE
:1018A000032304686351036B4FF4C67505EB021202
:1018B0001C7ED3F8193044EA03230468A35090F83F
:1018C0003C20222A10D0322A10D0622A23D000E0F5
:1018D00001E012220BE004686558DE681B8835437E
:1018E00045EA43536350BEE7422200E0522280F8AB
:1018F0003C200022026480F83D200268535843F0E7
:10190000010353500068416948F601721143416177
:10191000002070BD01E07222E9E7042180F83C104C
:101920000120F6E7054B01220549984201D18A7052
:101930007047044B9842FBD1CA707047D007002013
:101940006C000020140800202DE9F0410446876D4A
:1019500000F0CCFA054694F835000026022806D09F
:101960008020606584F834600120BDE8F081206843
:10197000016821F0160101602068416921F08001B1
:101980004161206C08B9A06C20B12068016821F089
:10199000080101602068016821F0010101600BE08D
:1019A00000F0A4FA401B052806D92020606504F841
:1019B000346F03206070D8E720680068C007EFD15B
:1019C00094F85C103F208840B86004F8346F012020
:1019D00060700020C9E790F83510022903D08021FB
:1019E000416501207047052180F8351000680168C5
:1019F00021F0010101600020704700002DE9F8434B
:101A000004464FF00009CDF8009063484FF416519A
:101A1000A56D0068B0FBF1F72E6894F85C200821F2
:101A200001FA02F030420FD02068026852070BD54D
:101A3000026822F00402026094F85C008140A96010
:101A4000606D40F00100606594F85C104FF0010893
:101A500008FA01F0304208D021684969090604D526
:101A6000A860606D40F00200606594F85C1004208E
:101A70008840304208D021680968890704D5A860E9
:101A8000606D40F00400606594F85C1010208840A0
:101A9000304218D021680968090714D5A860206869
:101AA0000168490304D50068000308D5A16C07E06C
:101AB0000168C90503D4016821F008010160216CA7
:101AC00009B12046884794F85C10202088403042B5
:101AD00031D021680968C9062DD5A86094F8350071
:101AE00005282068016806D0490347D5006800032F
:101AF0001DD4616C1CE021F0160101602068416971
:101B000021F080014161206C08B9A06C20B12068EF
:101B1000016821F00801016094F85C103F208840C2
:101B2000A86084F8349084F83580216D1FE0E16B63
:101B300009B120468847606D00282BD0606DC00732
:101B400014D0052084F835002068016821F00101D7
:101B500001600098401C0090B84203D820680068DB
:101B6000C007F6D184F8349084F83580E16C002900
:101B700010D001B02046BDE8F04308470168C90510
:101B8000D5D4016821F01001016084F8349084F804
:101B90003580CCE7BDE8F883240700202DE9F0412B
:101BA000044600F0A3F905465CB1002684F83460D1
:101BB000022084F835002068016821F001010160ED
:101BC0000DE00120BDE8F08100F090F9401B0528F0
:101BD00005D920206065032084F83500F2E72068ED
:101BE0000068C007F0D121680A6820480240D4E9A3
:101BF00001031843D4E903352B43184363691843A1
:101C0000A3691843E3691843236A18431043626ABF
:101C1000042A03D1D4E90B231A4310430860206837
:101C20004069656A20F0070128460D430127042812
:101C30000CD1A06A0543E06A40B12046FFF7A8F93D
:101C400020B14020606584F83570BAE720684561AE
:101C50002046FFF789F994F85C203F21914081608C
:101C6000666584F835700020ACE700003F8010F016
:101C70002DE9F0410446866D90F8340000250128D6
:101C80000DD0012084F8340094F835700020012F25
:101C900007D084F8340002252846BDE8F0810220F0
:101CA000FBE7022784F8357060652046FFF79AF954
:101CB00094F85C103F208840B0602068016841F0D3
:101CC000160101602068416941F080014161206C8A
:101CD00020B12068016841F00801016020680168B6
:101CE00041F001010160D7E731B500F0FFF8009C39
:101CF0000546601C00D0641C00F0F8F8401BA042B0
:101D0000FAD338BD2DE9F84FDFF8A091002209F190
:101D1000040A0AF1040B4FF00F080BF1040E012620
:101D20000B6896403340B34271D14C68022C01D00D
:101D3000122C11D1D40800EB84073D6A5407E40E3D
:101D400008FA04FC25EA0C05D1F810C00CFA04FCD2
:101D50004CEA050CC7F820C007685400032591F829
:101D600004C0A5400CF0030CAF430CFA04FC4CEA91
:101D7000070CC0F800C04F68012F05D0022F03D018
:101D8000112F01D0122F11D18768D1F80CC0AF43A9
:101D90000CFA04FC4CEA070CC0F808C04768B743CB
:101DA0000E79C6F3001696403E434660C668AE43C1
:101DB0008D68A5403543C5604C68E4006FD53C4C48
:101DC000256845F480452560246822F0030504F465
:101DD00080440094374C2E19D6F808789407250FC4
:101DE00008FA05F4A743344CA04201D100242EE0A8
:101DF000324CA04201D1012429E0314CA04201D152
:101E0000022424E02F4CA04202D103241FE046E02C
:101E10002D4CA04201D1042419E02C4CA04201D148
:101E2000052414E02A4CA04201D106240FE0294CDD
:101E3000A04201D107240AE0274CA04201D1082486
:101E400005E0264CA04201D1092400E00A24AC4060
:101E50003C43C6F80848D9F800404D464E689C43BC
:101E6000F60300D51C432C60DAF8004055464E6856
:101E70009C43B60300D51C432C60DBF800405D4654
:101E80004E689C43F60200D51C432C60DEF80040EF
:101E900075464E689C43B60200D51C432C60521C0C
:101EA000102AFFF43CAFBDE8F88F0000003C014071
:101EB000443802400030014000000240000402406B
:101EC00000080240000C02400010024000140240D2
:101ED00000180240001C0240002002400024024082
:101EE0000AB1816170470904FBE7000001480068FE
:101EF000704700000000002070B5040011D0216878
:101F00004CF6CC400860216845F255500860D4E991
:101F1000000141602168A0688860FFF7E7FF05467F
:101F200008E0012070BDFFF7E1FF401B302801D918
:101F3000032070BD2068C0680028F4D121684AF6EB
:101F4000AA200860002070BD00684AF6AA2101603E
:101F50000020704702480168491C0160704700007A
:101F6000000000200B4810B5016841F400710160C9
:101F7000016841F480610160016841F48071016091
:101F8000032000F07FF8002000F006F800F018F8B9
:101F9000002010BD003C024010B5044607484FF435
:101FA0007A710068B0FBF1F000F03AFC00222146A3
:101FB000501E00F047F8002010BD0000240700204C
:101FC00010B5032000F05EF8002211466FF00B0000
:101FD00000F038F8002211466FF00A0000F032F8E5
:101FE000002211466FF0090000F02CF80022114683
:101FF000501F00F027F800221146101F00F022F8B1
:1020000000221146901E00F01DF80022BDE810408D
:102010001146501E00F016B800F01F020121914039
:102020004009800000F1E020C0F88011704700F006
:102030001F02012191404009800000F1E020C0F81A
:1020400000117047F0B40E4B1B68C3F30223C3F1B9
:102050000704042C00D904241D1D072D01D20023E0
:1020600000E0DB1E012606FA04F56D1E0D409D40C2
:102070009E40761E164045EA0601F0BC02F067B8A5
:102080000CED00E0064A00F0070110684FF6FF0370
:10209000184040EA012003490843106070470000DF
:1020A0000CED00E00000FA052DE9F0470D460400B4
:1020B00065D0DFF81491D9F80000EFB200F00F00FE
:1020C000A84207D289F80070D9F8000000F00F008C
:1020D000A84254D120683D4E810712D5400703D550
:1020E000306840F4E05030602078000703D5306855
:1020F00040F4604030603068A16820F0F000084390
:1021000030602078C0072DD0304960680839012838
:1021100012D0022813D0032811D00968890700299A
:102120002DDA316821F0030101433160FFF7DEFE53
:10213000804641F2883A0EE009688903EFE70968B2
:102140008901ECE7FFF7D2FEA0EB0801514502D967
:102150000320BDE8F0873068616800F00C00B0EB48
:10216000810FEFD1D9F80010484601F00F01A942C4
:1021700007D90770006800F00F00A84201D00120C5
:10218000E7E72078400705D53068E16820F4E050A3
:10219000084330602078000706D53068216920F4B4
:1021A000604040EAC100306000F03CF83168084A05
:1021B000C1F30311515CC840064908600020FFF7D5
:1021C000EBFE0020C5E70000003C0240083802405A
:1021D000F0570008240700200148006870470000FD
:1021E000240700200448054900680968044AC1F32F
:1021F0008221515CC8407047240700200838024003
:10220000005800080448054900680968044AC1F3F9
:102210004231515CC8407047240700200838024012
:1022200000580008154810B5006810F00C0114485B
:1022300013D0144B04290FD008290ED10F4C241FA2
:10224000216801F03F022168490207D52068C0F3E8
:102250008810A0FB030106E0184610BD2168C1F3F9
:102260008811A1FB00010023FEF784F82168C1F367
:102270000141491C4900B0FBF1F010BD0838024093
:102280000024F400001BB7002DE9F84F04006ED0C5
:102290002078DFF8C4A2B14DC00748D0DAF80010AA
:1022A0005046C1F38101012908D00068C0F38100C4
:1022B00002280AD1281D0068400206D5286880033C
:1022C00035D560680028E2D031E06068B0F5803F25
:1022D00010D0B0F5A02F286810D020F480302860EE
:1022E000286820F4802028606068A0B1FFF7FEFD18
:1022F00006460CE0286840F48030F4E740F4802083
:102300002860F7E7FFF7F2FD801B642873D8286880
:102310008003F7D50BE0FFF7E9FD064604E0FFF781
:10232000E5FD801B6428F1D828688003F7D4207865
:10233000DFF82C8280074FF0010B4FF000093DD5EC
:10234000DAF80010504611F00C0F09D00068C0F305
:10235000810002280CD18048001F0068400207D489
:102360002868800714D5E068012800D110E0F1E06A
:10237000E068A8B1C8F800B0FFF7B8FD064604E071
:10238000FFF7B4FD801B022835D828688007F7D5F1
:102390002868216920F0F80040EAC10028600DE0BB
:1023A000C8F80090FFF7A2FD064604E0FFF79EFD87
:1023B000801B02281FD828688007F7D420780007E0
:1023C00022D5654F674861696C3771B1C0F800B0BC
:1023D000FFF78CFD064604E0FFF788FD801B02280E
:1023E00009D838688007F7D50EE0C0F80090FFF7ED
:1023F0007DFD064605E082E0FFF778FD801B0228A0
:102400007DD838688007F7D42078400750D55248E7
:102410003830016841F0805101600068524F00F08F
:1024200080500090386840F480703860FFF75EFD9F
:10243000064604E0FFF75AFD801B02285FD8386883
:10244000C005F7D5444FA068683701280FD005288C
:10245000386810D020F001003860386820F004009F
:102460003860A068B0B1FFF741FD06460EE038685D
:1024700040F00100F4E740F004003860F7E7FFF7B0
:1024800035FD811B41F2883081425BD83868800776
:10249000F5D50DE0FFF72AFD064606E0FFF726FD1D
:1024A000811B41F2883081424CD838688007F5D4CE
:1024B000A06928B3DAF80010C1F38101022949D0DC
:1024C0000228484605D0C8F86000FFF70FFD044613
:1024D0003BE04746C8F86000FFF708FD064604E009
:1024E000FFF704FD801B02282CD828688001F7D450
:1024F000D4E907010843A16A1C4A490801E021E028
:1025000026E002EB0141626A41EA8211084394F835
:102510002C1040EA01611048001F0160C7F860B04C
:10252000FFF7E4FC044604E0FFF7E0FC001B022890
:1025300008D828688001F7D50AE0FFF7D7FC001B10
:10254000022802D90320BDE8F88F28688001F4D45E
:102550000020F8E70120F6E7083802400038024082
:1025600000004742800E4742007000400000FFFF1D
:1025700070B5040005D00025A56294F8510010B193
:1025800006E0012070BD84F85050204600F030F87D
:10259000022084F851002068016821F040010160A8
:1025A000D4E901010843D4E90312114308436169E6
:1025B0000843218B01F400710843E1690843216A53
:1025C0000843A16A084321680860A069042101EA60
:1025D0001040616A0843216848602068C16921F49D
:1025E0000061C1616565012084F85100002070BD63
:1025F00000B500680E4987B0884217D10D48002108
:10260000026842F480120260006800F480100590B5
:102610004FF4607000900220CDE901010320039087
:102620000520049069460448FFF76CFB07B000BD25
:102630000050014044380240001402402DE9F84F98
:10264000044690F850000127DDF828809B46164686
:102650000D464FF0000901280ED0012084F85000EB
:10266000FFF744FC824694F85100616801280CD0C1
:10267000B1F5827F07D102E00220BDE8F88FA168A2
:1026800009B9042801D00220A2E045B13EB1BBF156
:10269000000F04D094F85100012802D004E001207A
:1026A00096E0052084F8510000206065A663A4F838
:1026B0003EB0A4F83CB02563A4F836B0A4F834B01A
:1026C0002064606420680168490603D4016841F011
:1026D00040010160E068B0F5006F606804D0D0B3DD
:1026E000E08E012838D063E010B1E08E01282BD1B4
:1026F000216835F8020BC860E08E401EE08623E0BA
:1027000067B1E08E50B120688168890706D535F839
:10271000021BC160E08E401EE0860027E08F50B1B2
:1027200020688168C90706D0C06826F8020BE08FD0
:10273000401EE0870127B8F1FF3F05D0FFF7D6FB29
:10274000A0EB0A01414542D2E08E0028D8D1E08FAB
:102750000028D5D132E0FFE7216815F8010B087396
:10276000E08E401EE08623E067B1E08E50B1206825
:102770008168890706D515F8011B0173E08E401E9C
:10278000E0860027E08F50B120688168C90706D035
:10279000C06806F8010BE08F401EE0870127B8F102
:1027A000FF3F05D0FFF7A2FBA0EB0A0141450ED287
:1027B000E08E0028D8D1E08F0028D5D143460122F1
:1027C00002212046CDF800A001F05EFE10B10320EA
:1027D000814610E052464146204601F045FE20B1B8
:1027E00020204FF00109606505E0A06818B9206855
:1027F000C16880680090012084F85100002084F8AE
:102800005000484639E74FF0E0210428086903D01A
:1028100020F004000861704740F00400FAE77047B8
:1028200010B5401EB0F1807F01D3012010BD4FF0E4
:10283000E02460610F21601701F089FC0020A06195
:1028400007202061002010BD10B5FFF7E8FF10BD84
:102850007047704710B590F83820012A25D0012222
:1028600080F83820CA688C6822F4407222434C6891
:1028700022F4806222430C6822F4006222430C6935
:1028800022F4805222434C6922F400522243896987
:1028900022F480420A43002322F400420A430168E2
:1028A0004A6480F83830002010BD022010BD30B5D9
:1028B00090F83820012A20D0012380F838300222F5
:1028C00080F839200268546824F07004546002686B
:1028D00054680D682C4354600268946824F08004A6
:1028E00094600268946849680C43946080F83930B9
:1028F000002180F83810084630BD022030BD10B5E8
:10290000040003D094F8390010B107E0012010BD95
:10291000002084F83800204600F00CF8022084F8EB
:102920003900211D206801F091FE012084F8390052
:10293000002010BD08B500682949B0F1804F11D0C2
:10294000284A904216D1086840F0100008600868D4
:10295000002200F01000009003213620FFF772FBE8
:1029600036202CE0086840F001000860086800F09C
:10297000010032E01C4A90420ED1086840F020006D
:1029800008600868002200F02000009011463720FF
:10299000FFF758FB372012E0144A904213D1104839
:1029A000001D016841F4003101600068002200F45C
:1029B0000030009004211920FFF744FB1920BDE8E6
:1029C0000840FFF734BB0A4A904207D1086840F03C
:1029D00040000860086800F04000009008BD00005A
:1029E0004038024000100040001400400044014004
:1029F000001800400168CA6842F00102CA6000681D
:102A0000016841F0010101600020704770B5044683
:102A100090F83800012817D0012584F8385002209A
:102A200084F839002068826822F0770222F47F421D
:102A300082600868502836D00DDC202858D005DC8C
:102A400080B3102840D150E0022070BD302852D011
:102A5000402839D13EE060282DD070280BD0B0F549
:102A6000805F03D0B0F5005F2ED110E02068816850
:102A700021F0070109E0CB68D1E90121206801F0CC
:102A800050FE2068816841F0770181601CE0CB68CE
:102A9000D1E90121206801F044FE2068816841F4F9
:102AA0008041F2E71EE0CA684968206801F002FF31
:102AB0005021206806E0CA684968206801F00BFFD1
:102AC0006021206801F037FE84F83950002084F836
:102AD000380070BDCA684968206801F0EBFE4021EB
:102AE0002068EFE700212068ECE710212068E9E783
:102AF00020212068E6E730212068E3E7704770B5C1
:102B00000446006801694FF00005C943890715D4E0
:102B1000C168C943890711D4E91E016101202076EB
:102B2000206880698007204602D0FFF7E7FF04E0B5
:102B300000F0D2F8204600F067F925762068016998
:102B4000C943490717D4C168C943490713D46FF073
:102B500004010161022020762068806910F4407F22
:102B6000204602D0FFF7CAFF04E000F0B5F8204687
:102B700000F04AF9257620680169C943090716D48F
:102B8000C168C943090712D46FF00801016104202C
:102B900020762068C0698007204602D0FFF7AEFF8C
:102BA00004E000F099F8204600F02EF92576206820
:102BB0000169C943C90617D4C168C943C90613D4FA
:102BC0006FF010010161082020762068C06910F4C0
:102BD000407F204602D0FFF791FF04E000F07CF830
:102BE000204600F011F9257620680169C943C9071C
:102BF00008D1C168C943C90704D1891E01612046B3
:102C000000F04EF920680169C943090609D4C1687A
:102C1000C943090605D46FF0800101612046FFF722
:102C200017FE20680169C943490609D4C168C94330
:102C3000490605D46FF040010161204600F08CF98F
:102C400020680169C94389060BD4C168C943890654
:102C500007D46FF0200101612046BDE87040FFF706
:102C6000F8BD70BD00B500680021022285B0B0F14A
:102C7000804F0FD0134B984216D1A0200090CDE981
:102C800001210320CDE9031069460F48FFF73AF808
:102C900005B000BD0E200090CDE901210120CDE955
:102CA000031069460948F1E7094B9842F0D14020EA
:102CB0000090CDE901210920CDE9031069460548BE
:102CC000E4E7000000040140002002400000024050
:102CD00000180040001C0240704770B5044690F890
:102CE00038000D4601280DD0012684F838600220F6
:102CF00084F8390042B1042A18D0082A2AD00C2AB4
:102D00004DD139E0022070BD206801F01DFD206822
:102D1000816941F0080181612068816921F0040125
:102D20008161206881692A69114311E0206801F0FE
:102D300037FD2068816941F4006181612068816903
:102D400021F480618161206881692A6941EA022158
:102D5000816124E0206801F055FD2068C16941F0DF
:102D60000801C1612068C16921F00401C1612068C6
:102D7000C1692A69114311E0206801F073FD2068E0
:102D8000C16941F40061C1612068C16921F48061B9
:102D9000C1612068C1692A6941EA0221C16184F8E0
:102DA0003960002084F8380070BD10B5040003D0ED
:102DB00094F8390010B107E0012010BD002084F81C
:102DC0003800204600F00CF8022084F83900211D5C
:102DD000206801F03BFC012084F83900002010BD80
:102DE00008B500680649884208D10648016841F0E4
:102DF00002010160006800F00200009008BD0000C0
:102E000000040140443802407047000010B50446F9
:102E10000068012201F07AFC08482168814202D052
:102E20000748814203D1486C40F400404864206860
:102E3000016841F001010160002010BD0000014067
:102E40000004014010B504460068002201F05EFC59
:102E5000114841F2111221689310814202D00F48AB
:102E6000814209D1086A104206D1086A184203D18A
:102E7000486C20F4004048642068016A114206D181
:102E8000016A194203D1016821F0010101600120AA
:102E900084F83900002010BD00000140000401400A
:102EA0002DE9F041234900680968884209D136209C
:102EB000FFF7B2F802F006F8BDE8F0413620FFF760
:102EC000B6B81D490968884224D11C4D1C4A28788F
:102ED000401CC1B229701068002801DD401E10603E
:102EE000184E3078002815D0174F00241129387853
:102EF00001D8012810D008B114480470144800F01B
:102F00002CF812221349124800F062FA2C700120AA
:102F100038703470BDE8F0810E4801F02BFA0C488F
:102F200000F01BF812220B49094800F051FA2C70EE
:102F3000EFE70000F808002034090020F90600201F
:102F400068000020F2060020F8060020740000202F
:102F5000A40A002090070020704770B5044600685E
:102F6000C16821F49071C1602068416921F00101BC
:102F70004161206841694FF00005490609D5416962
:102F800021F040014161606B18B10565606BFEF78F
:102F9000DBFCE585202084F83A00002070BD7047F6
:102FA00070B5026804461068D168536910F00F0FBD
:102FB00050D003F0010501F4907635435DD0C2078F
:102FC00005D0CA0503D5E26B42F00102E263420775
:102FD00005D5DA0703D0E26B42F00202E263820712
:102FE00005D5DA0703D0E26B42F00402E263020780
:102FF00005D5DA0703D0E26B42F00802E263E26B28
:10300000002A33D0800604D5880602D5204601F078
:10301000E8FC20684069E16BC0F38010090700D428
:1030200028B3204601F0C6FC2068416949061AD53C
:10303000416921F040014161606BA0B11B4901650C
:10304000606BFEF7C8FC002810D0606B016DBDE816
:1030500070400847830610D58B060ED52046BDE884
:10306000704001F0BEBC2046FFF799FF70BD2046BE
:10307000FFF795FF0020E06370BD030606D50B0641
:1030800004D52046BDE8704001F048BE4006F3D5A7
:103090004806F1D5D168204621F04001D1602021B9
:1030A00084F8391000F060FA70BD0000154900087E
:1030B00070B5040004D094F83900002510B106E082
:1030C000012070BD84F83850204600F023F82420F9
:1030D00084F839002068C16821F40051C16020469D
:1030E00001F0C6FC2068016921F49041016120686B
:1030F000416921F02A0141612068C16841F4005111
:10310000C160E563202084F8390084F83A0000208B
:1031100070BD00002DE9F04F04460068DFF86482BE
:10312000994F022201230321984E002587B04FF0CA
:10313000080C404519D1386840F080403860386844
:10314000CDE9023100F080400590C801CDE90002D0
:10315000CDF810C069463046FEF7D4FD0022114676
:103160005220FEF76FFF522019E0DFF8248240451D
:103170001AD1386840F000403860386800F00040EC
:1031800005908DE80E00CDE9031C69463046FEF738
:10319000B9FD002211465320FEF754FF5320FEF7DD
:1031A00046FF07B0BDE8F08FDFF8E881DFF8D8A16F
:1031B0004FF007090AF1040A4FF0006B4FF48066E4
:1031C000404533D1DAF8007047F01007CAF80070B4
:1031D000DAF80000CDE9023100F010000590C020BF
:1031E000CDE90002CDF8109069466B48FEF78AFDE4
:1031F0006B4F6A483860C7E901B5C7E903567D617E
:10320000BD61FD613D6238467D62FEF7C7FC20B1BD
:1032100040F2071163A001F045FE676300221146EA
:103220002520BC63FEF70EFF2520B8E7DFF8848178
:10323000DFF884E1404519D1386840F40030386047
:103240003868CDE9023100F4003005906020CDE906
:103250000002CDF8109069467046FEF753FD00223B
:1032600001212620FEF7EEFE262098E7DFF84C81AC
:10327000404532D1386840F4802038603868CDE964
:10328000023100F4802005904FF44070CDE9000237
:10329000CDF8109069467046FEF734FD404F48481F
:1032A00060373860C7E901B5C7E903567D61BD6184
:1032B000FD613D6238467D62FEF770FC20B14FF43F
:1032C000A77138A001F0EEFD6763002201212720DD
:1032D000BC63FEF7B7FE272061E73A4FB8427FF4A0
:1032E00060AFDAF8007047F02007CAF80070DAF82B
:1032F0000000CDE9023100F0200005904FF4844039
:10330000CDE90002CDF810C069462F48FEF7FAFC5F
:10331000234F2248C037183838604FF02068C7E97B
:103320000185C7E903567D61BD61FD613D62384697
:103330007D62FEF733FC20B140F27B1119A001F051
:10334000B1FD6763BC631548204F6030E7E80208B1
:10335000402061C71D4847F81459BD61FD613D62B9
:103360007D62FEF71BFC20B140F28D110DA001F033
:1033700099FD2763002201214720BC63FEF762FE0E
:1033800047200CE70078004040380240001002401F
:10339000007C0040001001400004024040640240F4
:1033A000A40B00202E2E2F5372632F75736172743D
:1033B0002E63000000440040000C02400048004022
:1033C000286002400014014000180240C40C002094
:1033D00037B5044690F83A0082B0134620283AD117
:1033E000039AAAB3A3B394F83800012833D001207C
:1033F00084F83800A262A3850025E563222084F8C2
:103400003A00616B1548C863616B15480864616BCD
:103410001448C864606B05652168606B091DFEF780
:1034200027FC206801684168009184F83850C16821
:1034300041F48071C1602068416941F0010141613E
:103440002068416941F040014161002005B030BD74
:10345000FFE70120FAE70220F8E700006F490008C3
:10346000AB4900082549000890F83A30202B1DD1BF
:10347000D1B1CAB190F83830012B17D08162828562
:10348000C2850021C163222280F83A2080F83810DA
:1034900001684A6942F001024A610068C16841F46A
:1034A0009071C16000207047012070470220704772
:1034B0002DE9F047054615480126854203D11448F9
:1034C0008670BDE8F087DFF84C80DFF84C90134F32
:1034D0000024D8F8000050F82400A84208D10122A6
:1034E0000D49FFF7C1FF99F80000312805D03E6073
:1034F000641CA4B2042CECD3E3E7094800688442BE
:1035000002D108480660DCE73E60DAE7A40A002042
:10351000F006002010070020FF0600200007002012
:103520000C07002008070020704790F83930202B46
:1035300018D1A9B1A2B190F83830012B12D0016294
:103540008284C2840021C163212280F8392080F85E
:1035500038100068C16841F08001C16000207047E8
:1035600001207047022070477047FEE7F0B5204900
:1035700095B01E4848630024012503940E26049448
:10358000CDE90645CDE908560594009401940294CE
:1035900069461748FDF784FD00211548FEF72EF80F
:1035A00018B1382113A001F07DFC184F0F481849BD
:1035B0003D70243048630A94CDE90E460D94CDE960
:1035C0001045CDE912560B940C940AA91048FDF74A
:1035D00067FD00210E48FEF711F818B14B2105A038
:1035E00001F060FC7D7015B0F0BD000028070020E0
:1035F000D00700202E2E5C5461736B735C53726392
:103600005C43414E5461736B2E6300006C000020DC
:103610001408002030B585B0002414220E496846F5
:10362000FCF7D9FE6420FEF75FFB752000F07EF802
:103630000A496D46087005EB4400417815F81400FE
:1036400000F09CF80120FEF74FFB641CE4B20A2C4A
:10365000F1D305B0002030BDDC570008F000002099
:1036600070B5040014D0012084F8290000259FEDD6
:10367000090B658584ED0C0B84ED080BD4F81C1147
:1036800004F1D0008847A16B20468847A4F8205158
:1036900070BD0000000000000000000010B5122204
:1036A00006490748FFF794FE18B18A2105A001F0EA
:1036B000F9FBBDE81040FDF7ABBC0000900700200F
:1036C000A40A00202E2E5C5461736B735C537263EA
:1036D0005C52656D6F74655461736B2E63000000FE
:1036E00010B50088C822C0F3011464230E49032CCE
:1036F00009D0C4060BD54FF42F7048814010888143
:103700000020087010BD4A818B810220F9E78006F5
:1037100003D54A818B810120F3E74FF4C8704881BB
:103720008A810320EDE7000004000020F8B5104E68
:103730000446002240213046FEF7D2FB44F08000D0
:103740000C4C3725621CA0700123511C0A480095BF
:10375000FEF774FF621C0123511C07480095FEF719
:103760006DFF012240213046FEF7BAFB6078F8BDBC
:1037700000140240F000002064080020F8B5114D4C
:103780000E460446002240212846FEF7A9FB04F01D
:103790007F000D4C3727E21C20710123511C0B4880
:1037A0000097FEF74BFF2671E21C0123511C0748CE
:1037B0000097FEF743FF012240212846FEF790FBC9
:1037C0000020F8BD00140240F00000206408002032
:1037D000104810B50E4901600321416000214FF4EB
:1037E00000228160C0E903124FF44012C0E90521B4
:1037F000C161016241628162C162FDF7E9FD002899
:1038000005D0BDE81040462103A001F04BBB10BD20
:1038100000640040D00700202E2E2F5372632F63C8
:10382000616E2E6300000000104810B50E49016063
:103830000321416000214FF400228160C0E903129E
:103840004FF44012C0E90521C16101624162816209
:10385000C162FDF7BDFD002805D0BDE810405C2128
:1038600003A001F01FBB10BD006800401408002039
:103870002E2E2F5372632F63616E2E6300000000A3
:10388000194808B5016841F480010160016801F43C
:1038900080010091016841F400110160006800227C
:1038A00000F40010009011460C20FEF7CBFB0C201A
:1038B000FEF7BDFB002211463920FEF7C3FB39207D
:1038C000FEF7B5FB002211463A20FEF7BBFB3A207B
:1038D000FEF7ADFB002211464520FEF7B3FBBDE825
:1038E00008404520FEF7A3BB303802402DE9F04FD9
:1038F000444887B00024016841F01001016001686C
:1039000001F010010591016841F04001016001687A
:1039100001F040010591016841F002010160016878
:1039200001F002010591016841F0080101600168A0
:1039300001F008010591016841F48071016001689E
:1039400001F480710591016841F080010160016816
:1039500001F080010591016841F0200101600168DA
:1039600001F020010591016841F00101016000684A
:10397000DFF8948000F001000590002244214046C9
:10398000FEF7AEFADFF8849000223C214846FEF7AD
:10399000A7FADFF87CA044F24006002231465046E8
:1039A000FEF79EFADFF86CB04FF40067002239464C
:1039B0005846FEF795FA442000900125CDE90154C0
:1039C000694640460394FEF79DF93C200090CDE9FE
:1039D0000154694648460394FEF794F90096CDE9F0
:1039E0000154694650460394FEF78CF90097CDE9DF
:1039F0000154694658460394FEF784F907B0BDE8C0
:103A0000F08F00003038024000200240001C0240CD
:103A100000140240001002400A4810B50849016035
:103A2000032141604FF496718160FEF765FA00282A
:103A300005D0BDE810403A2103A001F033BA10BD13
:103A400000300040580800202E2E2F5372632F693B
:103A50007764672E63000000114810B50F490160BC
:103A60004FF48271416000218160C1604FF40072A7
:103A70000161C0E905123022C0E90721416281627B
:103A80000A21C162FEF774FD002805D0BDE8104090
:103A9000452104A001F006BA10BD0000005001400D
:103AA000640800202E2E2F5372632F7370692E63CB
:103AB000000000000C4810B50A490160A7214160D0
:103AC000002142F21072C0E902120161FEF717FFF5
:103AD000002805D0BDE81040DF2104A001F0E2B9C4
:103AE00010BD000000440140AC0900202E2E2F53D1
:103AF00072632F74696D2E630000000010B52048BA
:103B00008CB01E49016053210024C0E9011440F625
:103B1000C311C0E90314FEF7F2FE18B1F02119A099
:103B200001F0C0F94FF48050079007A91448FEF740
:103B30006DFF18B1F62113A001F0B4F91048FFF79A
:103B400034F918B1FB210FA001F0ACF9602000900E
:103B50004FF47A70CDE901040022694608480494C4
:103B6000FFF7BBF820B14FF4827106A001F09AF97B
:103B70000348FFF777F80CB010BD000000180040B4
:103B8000E80900202E2E2F5372632F74696D2E6367
:103B90000000000010B52D488EB04FF0804101604C
:103BA00053210024C0E9011444F63721C0E903146D
:103BB000FEF7A5FE18B1442125A001F073F94FF4DA
:103BC0008050079007A92148FEF720FF18B14A212D
:103BD0001FA001F067F91D48FFF7E7F818B14F2162
:103BE0001BA001F05FF90B940BA918480C94FEF789
:103BF0005EFE18B1562116A001F054F96020CDE9FF
:103C0000000402940422694610480494FFF765F802
:103C100018B15F210EA001F045F9082269460B4852
:103C2000FFF75BF818B1642109A001F03BF90C2201
:103C300069460648FFF751F818B1692104A001F060
:103C400031F90248FFF70EF80EB010BDBC08002095
:103C50002E2E2F5372632F74696D2E6300000000A7
:103C60001CB510480E49002401605321C0E901141D
:103C70004FF4FA61C160FEF742FE18B17A210AA042
:103C800001F010F90094694606480194FEF70FFE12
:103C9000002803D0812104A001F004F91CBD00001C
:103CA00000100040F80800202E2E2F5372632F744E
:103CB000696D2E63000000001CB510480E490024F9
:103CC00001605321C0E901144FF47A71C160FEF71D
:103CD00016FE18B190210AA001F0E4F8009469469C
:103CE00006480194FEF7E3FD002803D0972104A0C5
:103CF00001F0D8F81CBD0000001400403409002079
:103D00002E2E2F5372632F74696D2E6300000000F6
:103D100010B52A4890B02849016001210024C0E96B
:103D2000011441F28241C0E903144461FFF73DF8F8
:103D300018B1AA2122A001F0B5F80E940EA91F48CF
:103D40000F94FEF7B4FD18B1B1211DA001F0AAF83F
:103D50006020CDE9000402940394049405940022A9
:103D6000694616480694FEF7B8FF18B1BD2114A0A5
:103D700001F098F8082269461048FEF7AEFF18B126
:103D8000C2210FA001F08EF80794089409944FF413
:103D900000500A94CDE90B4007A908480D94FEF79E
:103DA00059FD18B1CE2106A001F07CF80348FEF7BA
:103DB00059FF10B010BD0000000401407009002040
:103DC0002E2E2F5372632F74696D2E630000000036
:103DD0000D4810B50B4901604FF4E13141600021FD
:103DE00081600C22C160C0E904128161C161FFF7EA
:103DF0005FF9002805D0BDE810404B2103A001F079
:103E000051B810BD00780040240A00202E2E2F53F8
:103E100072632F75736172742E6300000D4810B5C4
:103E20000B4901604FF4E1314160002181600C22B7
:103E3000C160C0E904128161C161FFF739F900284E
:103E400005D0BDE810405D2103A001F02BB810BDE6
:103E5000007C0040640A00202E2E2F5372632F75C1
:103E6000736172742E6300000F4810B50D49016034
:103E70000E4941604FF48051816000214FF480620F
:103E8000C0E903120422C0E90521C161FFF710F95E
:103E9000002805D0BDE81040702105A001F002B84F
:103EA00010BD000000100140A40A0020A0860100FF
:103EB0002E2E2F5372632F75736172742E63000060
:103EC0000D4810B50B4901604FF4E131416000210C
:103ED00081600C22C160C0E904128161C161FFF7F9
:103EE000E7F8002805D0BDE81040832103A000F0CA
:103EF000D9BF10BD00440040E40A00202E2E2F53ED
:103F000072632F75736172742E6300000D4810B5D3
:103F10000B4901604FF4E1314160002181600C22C6
:103F2000C160C0E904128161C161FFF7C1F80028D6
:103F300005D0BDE81040962103A000F0B3BF10BD2E
:103F400000480040240B00202E2E2F5372632F7543
:103F5000736172742E6300000D4810B50B49016047
:103F60004FF4E1314160002181600C22C160C0E961
:103F700004128161C161FFF79BF8002805D0BDE8FC
:103F80001040A92103A000F08DBF10BD0014014016
:103F9000640B00202E2E2F5372632F757361727481
:103FA0002E630000FEE70000F0B52049204E214AB4
:103FB000214C00204FF4007551F8203043B15E6071
:103FC00051F8207000F201237B8151F820301D81CF
:103FD00052F8203043B15C6052F8207000F20123A7
:103FE0007B8152F820301D81401C0428E4DB042032
:103FF00040F2FF1551F8203043B15E6051F8207057
:1040000000F201237B8151F820301D8152F82030CD
:1040100043B15C6052F8207000F201237B8152F8BA
:1040200020301D81401C0828E4DBF0BDD0060020B4
:10403000D007002070070020140800202DE9F0416F
:104040000C46404991F90010002971DDB0F90010CB
:104050006FF09503994201DA194602E0962900DDD6
:1040600096210180B0F902209A4201DA1A4602E054
:10407000962A00DD962242802046FFF731FB324E21
:10408000307828B1012803D0022851D003284FD11D
:104090002D49208801F14001C2074FF00007A1F12E
:1040A0002C0509D0096905F12C008847708900EEBC
:1040B000900AF8EE600A0BE0800711D522480969E2
:1040C000403088477089404200EE900AF8EEE00ADE
:1040D00020EE200ABDEEC00A10EE100A288004E08F
:1040E0002F8019488969403088472088164902077F
:1040F00001F11C0109D5144809691C308847B089B1
:1041000000EE900AF8EE600A0BE0400712D50E4868
:1041100009691C308847B089404200EE900AF8EEE9
:10412000E00A20EE200ABDEEC00A10EE100A6880F8
:10413000BDE8F0816F808969BDE8F04102481C301C
:1041400008470000740000200400002070470907A1
:10415000090E002806DA00F00F0000F1E02080F8D8
:10416000141D704700F1E02080F80014704770B50E
:10417000054610EE100A2DED028B0C46286010EE5D
:10418000900AB0EE418A6860D5F842102846884708
:10419000D5F83A00206018EE100A6060D4F842109A
:1041A00020468847D4F83A0000EE100ABDEC028B96
:1041B000BDEEC00A10EE100A00B270BD70470000DC
:1041C0002DE9F0475F4991F9000000287EDD5E4C43
:1041D00074255E4E6580A580E58025818A4601288C
:1041E00075D100EE105AF8EEC00A9FED590A04F19D
:1041F000140060EE800AFDEEE00A10EE901A0180D5
:10420000694200EE901AF8EEE00A20EE800AF6EE1F
:10421000000A20EE200ABDEEC00A10EE101A4180FE
:10422000684200EE100AB8EEC00ADFED4A0A20EE3E
:10423000200A84ED040A96ED080B9FED471B51EC14
:10424000100B53EC112BFCF7D8F8DFF81491454F05
:1042500041F28838C82DC6E9080117DD0022402147
:104260004846FDF73DFE002204214846FDF738FE92
:1042700000213846FEF7CAFD3868C0F834800821AE
:104280003846FEF7C3FD3868C0F83C80B4F9080032
:1042900010F1C80F17DA012240214846FDF720FE31
:1042A000012204214846FDF71BFE00212D48FEF7A0
:1042B000ADFD3868C0F8348008212A48FEF7A6FD15
:1042C0003868C0F83C80B4F9080001E037E010E03D
:1042D000C730B0F5C77F0CD800212248FEF796FD05
:1042E00038680025456308211E48FEF78FFD3868B1
:1042F000C5639AF800005546022811D104211A48D6
:10430000FEF784FD208940F21A4110FB01F04FF4C2
:10431000167190FBF1F0144900F5FA700968886392
:10432000287803280BD196ED080B9FED101B51EC5C
:10433000100B53EC112BFCF760F8C6E90801BDE83F
:10434000F08700007400002004000020A805002071
:104350009A99193FCDCC4C3D00000000000028C0C8
:104360000020024070090020BC080020000000006E
:104370000000184070B504463748FDF7E5FD002CF5
:1043800069D020880225C0F30A0134480180617891
:10439000A278C90841EA4211C1F30A014180A1781B
:1043A000E278890941EA8201227941EA8221C1F356
:1043B0000A01818021796279490841EAC211C1F379
:1043C0000A01C1806179890901726279C2F301121F
:1043D0004272E3884381238983816389C381237B7C
:1043E0008374637BC374E3898382012003231C4CA1
:1043F000012A1FD0032A1FD0257001291ED00329AE
:104400001ED0637015481630FCF720FE2078154941
:10441000012817D002281ED003281CD191F90000D2
:10442000002818DD0D49BDE870401431A1F10A00E3
:10443000FFF704BE2070E0E72370DEE76070E1E77D
:104440006570DFE791F90000002804DDBDE87040E9
:104450000248FFF7B5BE70BD58080020A207002033
:10446000F00600207400002038B50B460092044688
:104470000022802100F008F8002804D0606D40F090
:1044800020006065032038BD2DE9F0411D46174628
:104490000E460446DDF8188035E0681C33D02DB197
:1044A000FDF724FDA0EB0800A8422CD3206841684A
:1044B00021F0E00141606068B0F5827F0BD1A06817
:1044C000B0F5004F02D0B0F5806F04D120680168CC
:1044D00021F040010160A06AB0F5005F0AD12068B8
:1044E00001684DF6FF72114001602068016841F4D7
:1044F00000510160012084F85100002084F8500030
:104500000320BDE8F0812068806836EA000004D00E
:104510000020B842C1D10020F3E70120F9E770473D
:1045200010B5FDF717FDBDE81040FEF78DB900008E
:1045300030B5264893B00025016841F080510160F4
:10454000006800F0805011902148016841F440411A
:1045500001600068022400F440401190092000909E
:104560004FF4803001900120CDE9050480050790CB
:1045700006200890A820CDE9090404200B90684685
:10458000FDF782FE00B1FEE70CA90F2081E83100A3
:104590004FF4A0500F904FF48050109005210CA8BC
:1045A000FDF782FD00B1FEE7FDF716FE4FF47A71CC
:1045B000B0FBF1F0FEF734F90420FEF724F90022F5
:1045C0001146501EFDF73EFD13B030BD403802408D
:1045D000007000401048016841F4700101600F480C
:1045E000016841F0010101600C4A002108321160AC
:1045F00002680B4B1A400260031D0A4A1A600268E7
:1046000022F48022026005480C30016002495806FD
:10461000803908607047000088ED00E000380240F3
:10462000FFFFF6FE103000240148FEF768BA0000D4
:10463000AC0900200148FEF762BA0000F80800202B
:104640000148FEF75CBA000034090020F0B50268AA
:10465000234D244E244FDFF894C0254B4FF0804E5D
:10466000A84209D0704507D0B04205D0B84203D067
:10467000604501D0984203D122F070044A68224379
:10468000A8421BD0704519D0B04217D0B84215D0FF
:10469000604513D0984211D0164CA0420ED0164C53
:1046A000A0420BD0154CA04208D0154CA04205D01A
:1046B000144CA04202D0144CA04203D122F4407406
:1046C000CA68224302608A68C2620A688262A8429B
:1046D00001D0984201D10969016301214161F0BD16
:1046E000000001400004004000080040000C0040B1
:1046F00000040140004001400044014000480140E6
:1047000000180040001C00400020004010B50123AC
:10471000046A8B409C430462036A8A401343036229
:1047200010BD10B5846842EA032224F47F440A4392
:104730002243826010BD826822F070020A4342F078
:10474000070181607047000030B5026A22F0010263
:104750000262056A426883690C6823F073031C4394
:104760008B6825F002052B430B4DA84202D00B4D60
:10477000A8420BD123F00805CB6822F440722B43EA
:104780004D6923F0040315438A692A43426084611A
:1047900049684163036230BD0000014000040140EC
:1047A00030B5026A22F010020262036A426884692C
:1047B0000D6824F4E64444EA05248D6823F02003C0
:1047C00043EA05130D4DA84202D00D4DA8420ED16B
:1047D000CD6823F0800343EA05134D6922F440625B
:1047E00042EA85028D6923F0400342EA8502426075
:1047F000846149688163036230BD000000000140AC
:104800000004014030B5026A22F480720262036A39
:104810004268C46923F4007324F073050C682C43C8
:104820008D6843EA05230D4DA84202D00C4DA842E5
:104830000ED1CD6823F4006343EA05234D6922F4C9
:10484000405242EA05128D6923F4806342EA051260
:104850004260C4614968C163036230BD0000014029
:104860000004014030B5026A22F480520262036AF9
:104870004268C4690D6824F4E64444EA05248D685E
:1048800023F4005343EA0533084DA84202D0084DF3
:10489000A84204D14D6922F4804242EA8512426066
:1048A000C46149680164036230BD0000000001403A
:1048B0000004014010B5046A036A23F00103036297
:1048C000836923F0F00343EA021324F00A020A4347
:1048D0008361026210BD10B5036A23F01003036206
:1048E0008469036A24F4704444EA023223F0A0038A
:1048F00043EA01118261016210BD00000148FEF728
:104900004FBB0000240A00200148FEF749BB00000D
:10491000640A002010B5806B0021C185C184FEF7B8
:104920003EFB10BD70B5846B2068406994F8391067
:10493000C0F3C0100025212904D118B1E584204618
:1049400000F046F82068406994F83A10C0F38010EF
:10495000222904D118B1E585204600F02BF8E06B40
:1049600040F01000E0632046FEF719FB70BD10B563
:104970000146806B09680968C90513D40021C18507
:104980000168CA6822F48072CA6001684A6922F02C
:1049900001024A6101684A6922F040024A6120210D
:1049A00080F83A10FEF784FD10BD10B5806BFEF75D
:1049B000BBFD10BD0168CA6822F49072CA6001682C
:1049C0004A6922F001024A61202180F83A107047BA
:1049D0000168CA6822F0C002CA60202180F839103C
:1049E000704710B590F83A10222901D0022010BD6E
:1049F0008168B1F5805F11D00169002901681FD07D
:104A0000496801F07F03816A4A1C82620B70C18D84
:104A1000491E0904090CC18518D026E00269816A83
:104A2000002A0268526805D0D2B20A80816A491C05
:104A30008162ECE7C2F308020A80816A891CF7E709
:104A40004A68816A4B1C83620A70E0E70168CA68A1
:104A500022F49072CA6001684A6922F001024A6138
:104A6000202180F83A10FEF723FD002010BD000041
:104A70002DE9F04104460068016921F44052E168E3
:104A8000114301612068C16849F20C6291432369B6
:104A9000A268E5691A4363692B431A430A43C2605B
:104AA00020684169A26921F440710A434261E069CA
:104AB0006425B0F5004F974A974920684FF03208B7
:104AC0003FD0884201D090427CD1FDF79BFB00EBA8
:104AD000C00101EB001061688900B0FBF1F6FDF741
:104AE00091FB00EBC00101EB001061688900B0FB95
:104AF000F1F0B0FBF5F06FF01801484306EB8001D0
:104B000008EB0110B0FBF5F000F0F006FDF77AFBC2
:104B100000EBC00101EB001061688900B0FBF1F00F
:104B2000B0FBF5F006EB0016FDF76CFB00EBC001E7
:104B300001EB001061688900B0FBF1F7FDF762FB43
:104B4000D2E0884201D090423DD1FDF75BFB00EB03
:104B5000C00101EB001061684900B0FBF1F0B0FB4F
:104B6000F5F00601FDF74EFB00EBC00101EB001074
:104B700061684900B0FBF1F7FDF744FB00EBC001B1
:104B800001EB001061684900B0FBF1F0B0FBF5F0FB
:104B90006FF01801484307EB800108EBC100B0FB40
:104BA000F5F000F0F80006EB4006FDF72BFB00EBFC
:104BB000C00101EB001061684900B0FBF1F7FDF79F
:104BC00021FB3CE055E0FDF70DFB00EBC00101EBE4
:104BD000001061684900B0FBF1F0B0FBF5F0060190
:104BE000FDF700FB00EBC00101EB0010616849001C
:104BF000B0FBF1F7FDF7F6FA00EBC00101EB001096
:104C000061684900B0FBF1F0B0FBF5F06FF01801FE
:104C1000484307EB800108EBC100B0FBF5F000F062
:104C2000F80006EB4006FDF7DDFA00EBC00101EBF2
:104C3000001061684900B0FBF1F7FDF7D3FA00EB13
:104C4000C00101EB001061684900B0FBF1F0B0FB5E
:104C5000F5F06FF01801484307EB800108EBC10045
:104C6000B0FBF5F000F00700216830448860BDE833
:104C7000F081FDF7B7FA00EBC00101EB00106168AD
:104C80008900B0FBF1F6FDF7ADFA00EBC00101EBD6
:104C9000001061688900B0FBF1F0B0FBF5F06FF037
:104CA0001801484306EB800108EB0110B0FBF5F05A
:104CB00000F0F006FDF796FA00EBC00101EB0010E2
:104CC00061688900B0FBF1F0B0FBF5F006EB00166F
:104CD000FDF788FA00EBC00101EB00106168890064
:104CE000B0FBF1F7FDF77EFA00EBC00101EB00101D
:104CF00061688900B0FBF1F0B0FBF5F06FF01801CE
:104D0000484307EB800108EB0110B0FBF5F000F021
:104D10000F00A9E7001401400010014090F839107D
:104D2000212901D0022070478168B1F5805F016AB6
:104D30000BD04A1C0262026809785160C18C491E7E
:104D40000904090CC1840ED017E009880268C1F378
:104D50000801516001690029016A02D0491C016201
:104D6000ECE7891CFBE70168CA6822F08002CA6090
:104D70000068C16841F04001C16000207047000038
:104D80000148FEF70DB90000A40A00200148FEF713
:104D900007B90000E40A00200148FEF701B900004D
:104DA000240B00200148FEF7FBB80000640B002034
:104DB000FEE700002DE9F047354D3648364E95F9AF
:104DC0000030012401780327A21E30785B1C4FF0CD
:104DD00000094FF0020C052B17D2DFE803F0370370
:104DE00018242C0068884FF47A71884201D2401C44
:104DF000688080B2884208D100F0AEFA24482C3096
:104E0000C16C88472C70A5F80290BDE8F087022895
:104E100007D00128F9D1022915D00329F5D12F7027
:104E2000F3E72A70F1E70228FBD00128EDD1012930
:104E3000F3D12C70E9E70228F3D00128E5D101294C
:104E4000F7D00229E1D185F800C0DEE7134FDFF883
:104E50005080002457F82400FEF702FC58F8240084
:104E6000FEF7FEFB641C082CF4DB00F0AFFA00F048
:104E70002DFB00F0ABFB00F02BFC3078012801D0BB
:104E80000328C2D185F80090BDE8F047FCF7C0B810
:104E900074000020F1060020F0060020D00600205B
:104EA00070070020FEE702E008C8121F08C1002AB0
:104EB000FAD170477047002001E001C1121F002A9B
:104EC000FBD1704770B5FFF775FF1C4890F90000E3
:104ED000002831DDFBF726FE194D002455F824008B
:104EE00008B1816B8847641C042CF7DB00F06EFA74
:104EF000042455F8240008B1816B8847641C082CF1
:104F0000F7DB00F0E3FA0F4D002455F8240008B158
:104F1000816B8847641C042CF7DB00F057FB0424EA
:104F200055F8240008B1816B8847641C082CF7DB16
:104F3000BDE8704000F0CCBB70BD000074000020E4
:104F4000D00600207007002030B50468416800EEEC
:104F5000104A00EE901A30EE600A10EE102A8260BD
:104F6000038AB3F5FA7F10D800EE104A00EE901ACB
:104F7000C1685B1C70EE600A00EE101A30EE800A09
:104F800010EE101AC160038202E00021C1600182AC
:104F9000D0F8161000EE102A00EE901A20EE800ACB
:104FA00010EE103AC0F82230D0F82E1000EE103A71
:104FB00000EE901AF1EE600AB4EEE00AF1EE10FA9B
:104FC00004D200EE101AB1EE400A0DE000EE103AE5
:104FD00000EE901AB4EEE00AF1EE10FA02DD00EEF7
:104FE000101A01E000EE103A10EE105AC0F82250EC
:104FF000D0F81A1000EE101AC16800EE901A20EED8
:10500000200A10EE103AC0F82630D0F8321000EE28
:10501000103A00EE901AF1EE600AB4EEE00AF1EEFA
:1050200010FA04D200EE101AB1EE400A0DE000EEC4
:10503000103A00EE901AB4EEE00AF1EE10FA02DD3A
:1050400000EE101A01E000EE103A10EE104A00EEE9
:10505000102AC0F82640D0F8121000EE901AD0F8AE
:105060001E1070EE600A00EE101A20EE800A10EE9C
:10507000103AC0F82A30D0F8361000EE103A00EEA0
:10508000901AF1EE600AB4EEE00AF1EE10FA04D2E2
:1050900000EE101AB1EE400A0DE000EE103A00EEFC
:1050A000901AB4EEE00AF1EE10FA02DD00EE101AEA
:1050B00001E000EE103A00EE904A10EE101A00EEF9
:1050C000105AC0F82A10C0F8122070EE200A00EE24
:1050D000101A30EE800A10EE102AC0F83A20D0F8EC
:1050E0003E1000EE102A00EE901AF1EE600AB4EEC7
:1050F000E00AF1EE10FA04D200EE101AB1EE400A06
:105100000DE000EE102A00EE901AB4EEE00AF1EE87
:1051100010FA02DD00EE101A01E000EE102A10EE87
:10512000101AC0F83A1030BD70470000FCF71AFFA3
:10513000FFF7FEF92620FCF76FFF2720FCF76CFF36
:105140004720FCF769FF0C20FCF766FF1020FCF7F6
:1051500063FF3920FCF760FF1420FCF75DFF40205F
:10516000FCF75AFF2520FCF757FF3A20FCF754FFC5
:105170003720FCF751FF3620FCF74EFFFEF7B6FB59
:10518000FEF77EFBFEF724FBFEF74EFBFEF764FC0A
:10519000FEF76AFEFEF764FDFEF7B0FCFEF790FE38
:1051A000FEF7B4FEFEF7D8FEFEF786FDFEF782FCA2
:1051B000FEF7F0FCFEF730FCFEF7AAFDFEF708FE56
:1051C000FEF72CFEFEF76AFAFEF724FAFEF7ECFE75
:1051D0005A4D5B4E002455F82400FEF741FA56F86C
:1051E0002400FEF73DFA641C082CF4DBFEF7BEF940
:1051F000544C012204212046FCF772FE01220821B2
:105200002046FCF76DFE012210212046FCF768FEC7
:10521000012220212046FCF763FE4B48FDF7EAFB04
:105220004A48FDF7E7FB08214948FDF7EFFD0C214F
:105230004748FDF7EBFD1420FCF7F9FE4020FCF792
:10524000F6FE2520FCF7F3FE3A20FCF7F0FE3620B0
:10525000FCF7EDFE3720FCF7EAFE3E4C002504F19A
:105260001406256120693B49012256F82000C91C1B
:10527000FEF7FAF82069401C20610428F2DB256162
:1052800020690122334956F82000FEF74EF92069C3
:10529000401C20610428F3DB012725612DE0E57027
:1052A000E560A560656020692A49012256F8200062
:1052B000491CFEF73AF9A760E168606801430029DC
:1052C000FDD0A560A0B1012222493068FEF72DF97A
:1052D000012220497068FEF728F901221D49B068B3
:1052E000FEF723F901221B49F068FEF71EF908E0DA
:1052F0002069401C2061042803DA60680028CBD1B3
:10530000CDE760680028C7D112490122891C3068A6
:10531000FEF70BF90F490122891C7068FEF705F9A9
:105320000C490122891CB068FEF7FFF809490122E7
:10533000891CF068FEF7F9F8AEE70000D0060020FF
:1053400070070020001C0240F808002034090020EB
:10535000BC080020FC0600202DE9F0410021174880
:10536000FDF754FD164E00201449164D164A074607
:105370004FEA660C2B68002BFCD132F82030CBB101
:10538000B6FBF3F30C68E36232F82030B6FBF3F4BB
:10539000BCFBF3F3CC600C68636302EB8003401C3E
:1053A0005B882B600A28E5D3BDE8F0410021034863
:1053B000FDF748BD0B68DF62CF60EEE7E80900202B
:1053C00040420F006800002078000020F0B5354D05
:1053D00087B00024C5F830D04FF40070CDE9000448
:1053E00008200294CDE903402F4F142120461526B2
:1053F00057F82020002A4CD0B2F820212B6B01EB6B
:10540000400C120A03F80C2057F820202B6B06EBF7
:10541000400C92F8202103F80C20401C0428E7DB04
:10542000224D2878012832D1214E307801282ED102
:105430001420FCF7F1FD4020FCF7EEFD2520FCF7E1
:10544000EBFD3A20FCF7E8FD3620FCF7E5FD3720C0
:10545000FCF7E2FD1348FCF7D3F918B1A02115A021
:10546000FFF720FD2C70022030701420FCF7DFFDC8
:105470004020FCF7DCFD2520FCF7D9FD3A20FCF7A5
:10548000D6FD3720FCF7D3FD3620FCF7D0FD07B062
:10549000F0BD2A6B01EB4003D4542A6B06EB4003AA
:1054A000D454BAE7D0070020D00600206E000020B8
:1054B000700000202E2E5C5461736B735C5372631A
:1054C0005C43414E4D6F746F722E6300F0B5354BE7
:1054D00087B00024C3F830D040F2FF10CDE90004BB
:1054E00008200294CDE90340DFF8BCE014222046F6
:1054F00015250EEB80010E69002E4AD0B6F820610A
:105500001F6B02EB400C360A07F80C6009691E6B32
:1055100005EB400791F82011F155401C0428E8DB09
:10552000224D2878012832D1214E307802282ED100
:105530001420FCF771FD4020FCF76EFD2520FCF7E0
:105540006BFD3A20FCF768FD3620FCF765FD37203F
:10555000FCF762FD1348FCF753F918B1D42115A0EC
:10556000FFF7A0FC2C70012030701420FCF75FFDC9
:105570004020FCF75CFD2520FCF759FD3A20FCF7A4
:1055800056FD3620FCF753FD3720FCF750FD07B0E1
:10559000F0BD196B02EB40068C55196B05EB40060C
:1055A0008C55BAE7D0070020D00600206E000020FE
:1055B000700000202E2E5C5461736B735C53726319
:1055C0005C43414E4D6F746F722E6300F0B5364DE3
:1055D00087B00024C5F830D04FF40070CDE9000446
:1055E00008200294CDE90340304F142120461526AF
:1055F00057F82020002A4DD0B2F820212B6B01EB68
:10560000400C120A03F80C2057F820202B6B06EBF5
:10561000400C92F8202103F80C20401C0428E7DB02
:10562000234D2878012833D1224E307801282FD1FC
:105630001420FCF7F1FC4020FCF7EEFC2520FCF7E1
:10564000EBFC3A20FCF7E8FC3620FCF7E5FC3720C1
:10565000FCF7E2FC1448FCF7D3F820B14FF4837157
:1056600015A0FFF71FFC2C70022030701420FCF7EF
:10567000DEFC4020FCF7DBFC2520FCF7D8FC3A20C0
:10568000FCF7D5FC3620FCF7D2FC3720FCF7CFFC2A
:1056900007B0F0BD2A6B01EB4003D4542A6B06EB34
:1056A0004003D454B9E7000014080020700700201C
:1056B0006F000020710000202E2E5C5461736B730C
:1056C0005C5372635C43414E4D6F746F722E630086
:1056D000F0B5364B87B00024C3F830D040F2FF104D
:1056E000CDE9000408200294CDE90340DFF8C0E0D2
:1056F0001422204615250EEB80010E69002E4BD09A
:10570000B6F820611F6B02EB400C360A07F80C60FC
:1057100009691E6B05EB400791F82011F155401CFB
:105720000428E8DB234D2878012833D1224E307835
:1057300002282FD11420FCF76FFC4020FCF76CFCF2
:105740002520FCF769FC3A20FCF766FC3620FCF7C4
:1057500063FC3720FCF760FC1448FCF751F820B1DB
:105760004FF49D7115A0FFF79DFB2C700120307048
:105770001420FCF75CFC4020FCF759FC2520FCF7CA
:1057800056FC3A20FCF753FC3620FCF750FC37203F
:10579000FCF74DFC07B0F0BD196B02EB40068C55D1
:1057A000196B05EB40068C55B9E700001408002082
:1057B000700700206F000020710000202E2E5C5426
:1057C00061736B735C5372635C43414E4D6F746FD6
:1057D000722E630000061016000610166B806B0315
:1057E0006C001A021B181C101D026A2038010000F0
:1057F0000000000000000000010203040607080981
:1058000000000000010203042858000800000020E6
:1058100028070000780900088059000828070020A0
:10582000000A0000B64E0008419203041B9001C814
:1058300013E5011B08ED04132F021B0833041A396A
:10584000041A3D040928241A010161341604961231
:105850001E5A97084B2605085A75083C2006FA0878
:10586000011005163333333F234844137A441B8019
:10587000BB0831C4409C451A8784DA55AC011A0A2A
:1058800015806429C3E10B26FD0C54011C13494FFC
:105890000C5C0829514A0B13C040DC7C803B460459
:1058A0006910B11387021B0855040116D94CC1E2D7
:1058B000010B5CFD0CDE09484A0B13C040DC7C8008
:1058C0003B46046910B11387021B0855040116D921
:1058D0004CC1E2010B5CFD0CDE09484A0B13C040D1
:1058E000DC7C803B46046910B11387021B08550419
:1058F0000116D94CC1E2010B5CFD0CDE09484A0BD4
:1059000013C040DC7C803B46046910B11387021B46
:10591000085504011603191042E2010B184D0DDE63
:105920000316F0418B87440449100918DE091B4A0D
:105930007C401C4604591009184A63C040D3803F7C
:105940007C803B46046910A9AC12021B08550481F7
:10595000130801142030021420580314208004146A
:1059600020A805C220A30101041130313213240BF9
:105970001B2064041B240A081904491512F40000B2
:04000005080001AD41
:00000001FF
