:020000040800F2
:1000000008100020C10100082540000881340008C4
:100010007D3E0008E7090008014D000800000000CF
:100020000000000000000000000000000F44000875
:10003000E90E000800000000954000081144000887
:10004000DB010008DB010008DB010008DB01000820
:10005000DB010008DB010008DB010008DB01000810
:10006000DB010008DB010008DB010008DB01000800
:10007000DB010008DB010008DB010008DB010008F0
:10008000DB010008DB010008DB010008F5090008BE
:10009000E9090008DB010008DB010008DB010008BA
:1000A000DB01000819450008DB010008DB0100083E
:1000B000DB010008DB010008DB010008DB010008B0
:1000C000DB010008DB010008DB010008DB010008A0
:1000D000DB010008D14C0008DD4C0008E94C0008A9
:1000E000DB010008DB010008DB010008DB01000880
:1000F000DB010008DB010008DB010008DB01000870
:10010000DB010008DB010008DB010008DB0100085F
:10011000DB010008DB010008254500083145000827
:10012000DB010008DB010008390E0008DB010008D4
:10013000DB010008DB010008DB0100080D0A0008F4
:10014000010A0008DB010008DB010008DB010008F0
:10015000DB010008DB010008DB010008F54C0008AA
:10016000DB010008DB010008DB010008DB010008FF
:10017000DB010008DB010008DB01000800000000D3
:10018000DB010008DB010008ED470008F947000823
:10019000DB010008DB010008DB010008DB010008CF
:1001A0000000000000000000DB010008DFF80CD0B8
:1001B00000F0DCFB00480047E95900080810002067
:1001C0000648804706480047FEE7FEE7FEE7FEE7F1
:1001D000FEE7FEE7FEE7FEE7FEE7FEE7C5440008B0
:1001E000AD010008002202604160704741680029AB
:1001F00002DC9FED170A70470268511C01604168DC
:100200008A4201DB41680160016800EE101AF8EED5
:10021000C00A416800EE101AB8EEC01A80EE810ADA
:1002200010EE101A8160816800EE101AE3E7016099
:1002300070470021016070474160704701460868BF
:100240004A68904201DB012070470020FCE7000073
:10025000000000009FED460A80ED000A9FED440A71
:1002600080ED010A9FED420A80ED070A9FED400AEA
:1002700080ED080A9FED3E0A80ED090A9FED3C0AD9
:1002800080ED0D0A704790ED030A80ED020A90EDB3
:10029000000AD0ED010A30EE600A80ED030A90ED0D
:1002A000040AD0ED030A20EE200A80ED070A90ED43
:1002B000080AD0ED050A90ED031A00EE810A80EDE0
:1002C000080A90ED030AD0ED020A30EE600AD0ED84
:1002D000060A20EE200A80ED090A90ED080AD0ED0A
:1002E0000B0AF1EE600AB4EEE00AF1EE10FA06D85D
:1002F00090ED0B0AB1EE400A80ED080A0CE090ED9B
:10030000080AD0ED0B0AB4EEE00AF1EE10FA03DBB6
:1003100090ED0B0A80ED080A90ED070AD0ED080A6F
:1003200030EE200AD0ED090A30EE200A80ED0D0AE9
:1003300090ED0D0AD0ED0E0AF1EE600AB4EEE00A7F
:10034000F1EE10FA06D890ED0E0AB1EE400A80EDFB
:100350000D0A0CE090ED0D0AD0ED0E0AB4EEE00AA5
:10036000F1EE10FA03DB90ED0E0A80ED0D0A7047F6
:10037000000000002DE9F05F0546002092469B46F4
:1003800088460646814640241BE0284641464746AB
:10039000224600F035FA53465A46C01A914110D30E
:1003A00011461846224600F01CFA2D1A67EB010888
:1003B0004F4622460120002100F013FA17EB0009F6
:1003C0004E41201EA4F10104DFDC484631462A4696
:1003D0004346BDE8F09F40EA01039B0703D009E0D4
:1003E00008C9121F08C0042AFAD203E011F8013B21
:1003F00000F8013B521EF9D270472DE9FE4F8046AE
:1004000081EA0300C00F0C46009021F0004123F068
:100410000045B8EB0200A94105D24046214690466E
:100420001C460B46024623F00040104347D0270DE0
:10043000C7F30A00C3F30A510290401A0190402802
:100440006BDAC3F3130040F4801B0098924620B18E
:100450000023D2EB030A63EB0B0B01985946C0F162
:100460004002504600F0BDF906460D46504659463A
:10047000019A00F0D5F910EB08006141002487EAE9
:10048000115284EAE7731A4340D0009A62B3019A8A
:10049000012A4FEA075215DC001B61EB02014FF005
:1004A000004202EA0752CDE90042001C41F58011EA
:1004B00032462B4600F00CFA03B0BDE8F08F404600
:1004C0002146F9E7001B61EB0201001C41F5801396
:1004D00000185B412018A2F5001747EB030140EA22
:1004E000D570B6196D4111E06D084FEA360645EA40
:1004F000C0754FEA0752001B61EB0201001C41F579
:10050000801149084FEA30000019514132462B460C
:1005100003B0BDE8F04F00F0CCB9009801224000D4
:100520000023D0EB020263EBE073009821464FEA10
:10053000E074B8EB000061EB0401E9E783F00043ED
:100540005BE781F0004158E72DE9FE4F81EA0304A3
:1005500004F0004421F0004100944FF0000B23F020
:10056000004350EA01045ED052EA03045BD0C3F3B7
:100570000A54C1F30A552C44A4F2F3340194A0FBAD
:100580000254C1F3130141F48011C3F3130343F484
:10059000801301FB024400FB034E840A970A44EADD
:1005A000815447EA8357A4FB076802958D0A05FB2F
:1005B00007854FEA932C04FB0C542705029D4FEA54
:1005C000065847EA1637B5EB08056EEB070C870EA1
:1005D000920E47EA811742EA8312A7FB0201B6EBAB
:1005E0000B0164EB00042B0D43EA0C335E1844EB63
:1005F0001C50DA465146E7FB0201C5F313044FEAEB
:100600000B3343EA14534FEA0432019C43EA0603D6
:10061000A4F10C040294009CCDE900B400F058F958
:1006200003B0BDE8F08F00200146F9E72DE9F04D59
:1006300081EA030404F0004B21F0004514464FF01A
:10064000000A23F0004150EA050220D054EA0102DA
:100650001DD0C5F30A570246C5F31303C1F31300B7
:10066000C1F30A5640F4801543F48013A7EB060843
:10067000101BD64608F2FD3873EB050002D308F1D3
:10068000010801E092185B41B8F1000F03DA002085
:100690000146BDE8F08D00204FF4801106468446E7
:1006A0000EE0171B73EB050705D3121B63EB050365
:1006B00006434CEA010C49084FEA300092185B41AE
:1006C00050EA0107EDD152EA030012D082EA040099
:1006D00083EA0501084305D0101BAB4106D2012275
:1006E000002306E000224FF0004302E06FF0010219
:1006F00053101AEB06004CEB085110EB0A0041EBCB
:100700000B01BDE8F04D00F0D4B80EB5C10F80EA82
:10071000E0700844CA07002140F233438DE80E0020
:100720000A460B4600F0D4F803B000BD0EB540F207
:10073000334102910021CDE900110A460B4600F039
:10074000C7F803B000BD70B5C1F30A5201F000450F
:100750000024C1F3130140F2FF3341F480119A42A7
:1007600001DA002070BD40F233439A42A2F23342D4
:1007700003DC524200F044F800E090402C43F1D0FA
:10078000404270BD00F0004230F000400AD0C10D80
:1007900001F56071C0F3160042EA0151C20840073A
:1007A0001143704700200146704701F0004330B408
:1007B00021F0004150EA010206D00A0DA2F5607254
:1007C000C1F31301002A02DC30BC00207047440F43
:1007D00044EAC104C100E01830BC00EBC25000F094
:1007E00031B8202A04DB203A00FA02F100207047D9
:1007F0009140C2F1200320FA03F31943904070475F
:10080000202A04DB203A21FA02F00021704721FA65
:1008100002F3D040C2F120029140084319467047CC
:10082000202A06DBCB17203A41FA02F043EAE073B4
:1008300006E041FA02F3D040C2F1200291400843A1
:10084000194670470029A8BF7047401C490008BFDF
:1008500020F00100704710B4B0FA80FC00FA0CF0F0
:1008600050EA010404BF10BC704749B1CCF1200428
:1008700021FA04F411FA0CF118BF012121430843B5
:10088000A3EB0C01CB1D4FEA00614FEA102042BFE1
:10089000002010BC704700EBC35010440029A4BFD7
:1008A00010BC7047401C490008BF20F0010010BC7C
:1008B000704710B5141E73F1000408DA401C41F1B2
:1008C000000192185B411A4301D120F0010010BDD4
:1008D0002DE9F04D92469B4611B1B1FA81F202E04A
:1008E000B0FA80F220329046FFF77BFF04460F46B5
:1008F00040EA0A0041EA0B0153465A46084313D026
:10090000114653EA010019D0C8F140025046FFF7E2
:1009100077FF05460E46504659464246FFF761FFAF
:10092000084305D0012004E020463946BDE8F08D9B
:100930000020054346EAE0762C4337430A986305D6
:10094000E40AA0EB08000022FD0A44EA47540A30FA
:1009500002D500200146E9E7010510196941DDE9EA
:10096000084500196941BDE8F04DA2E7064C074D66
:1009700006E0E06840F0010394E80700984710346F
:10098000AC42F6D3FFF716FCF061000810620008D5
:1009900070B58C1810F8015B15F0070301D110F841
:1009A000013B2A1106D110F8012B03E010F8016B6E
:1009B00001F8016B5B1EF9D12B0705D40023521EF1
:1009C0000DD401F8013BFAE710F8013BCB1A921C59
:1009D00003E013F8015B01F8015B521EF9D5A14257
:1009E000D8D3002070BDFEE7014800F045BB0000F1
:1009F000D4070020014800F03FBB0000D4070020CE
:100A0000014800F039BB000018080020014800F040
:100A100033BB00001808002010B5002958D0826BA5
:100A20004FF4D873046803EB0113E45814F0040482
:100A300094600468E4584DD0E40854600468E358B6
:100A400003F00203D3604FF4DA73046803EB01137D
:100A5000E45804F00F04146111620468E358C3F30E
:100A60000723D3614FF4DC73046803EB0113E458EC
:100A700014750468E458240A54750468E458240C76
:100A800094750468E3581B0ED3754FF4DE73046845
:100A900003EB0113E45814760468E458240A5476EE
:100AA0000468E458240C94760468E3581B0ED3764B
:100AB0000368202289B11A610268536923F0500348
:100AC000536190F83C20222A0DD0322A0BD00FE03F
:100AD000426BA5E7640D1460B0E7DA600268536901
:100AE00023F00A03ECE70268536923F40F435361D0
:100AF00012220123002990F83C1006D0522914D06C
:100B0000622915D0722906D114E042290DD062293C
:100B100007D0722907D080F83C3000F039FD002062
:100B200010BD322107E0522105E080F83C20F4E7B7
:100B3000222100E0422180F83C10EEE710B5444944
:100B4000454C2DED0C8B0A7842499FED441B9FEDDF
:100B5000459B9FED468B9FED47AB9FED48BB9FEDBF
:100B600049CB9FED4ADB91F9001094ED080B012A67
:100B700030D0032A69D101295FD0022965D1FFF75E
:100B8000D5FD53EC192BFFF7DFFC53EC182BFFF7C7
:100B90004DFD41EC100B04F057F953EC1A2B51ECBE
:100BA000100BFFF7D1FC53EC1B2BFFF726FC53EC8B
:100BB0001C2BFFF7C9FC53EC1D2BFFF737FD53EC43
:100BC000182BFFF733FD94ED081B53EC112BFFF7A7
:100BD000B8FC38E0012929D0022936D1FFF7A6FD5B
:100BE00053EC192BFFF7B0FC53EC182BFFF71EFD4D
:100BF00041EC100B04F028F953EC1A2B51EC100BBC
:100C0000FFF7A2FC53EC1B2BFFF7F7FB53EC1C2B5D
:100C1000FFF79AFC53EC1D2BFFF708FD53EC182B44
:100C2000FFF704FD41EC100B94ED081B51EC100B89
:100C300053EC112BFFF7E1FB05E053EC112B51ECCA
:100C4000100BFFF77BFCC4E90801BDEC0C8B10BD59
:100C5000F006002074000020A8050020B81E85EBD7
:100C600051B8AE3FBE9F1A2FDD24FE3F00000000AA
:100C700000408F401F85EB51B81EE93FE17A14AE6A
:100C800047E1F43F0000000000807640A7E8482ECE
:100C9000FF21194010B5040020D094ED080B51EC51
:100CA000100BFFF782FDC4F8D000B4F9120000EE7B
:100CB000100A04F1D000B8EEC00A84ED350AD4F869
:100CC0001811884794ED410ADFED050A20EE200A4D
:100CD000BDEEC00A10EE100AA4F8200110BD0000FD
:100CE0006666A63F2DE9F04104002DED048B05D08A
:100CF00094F8280030B1401C84F82800BDEC048B27
:100D0000BDE8F08194F82900258A4FF000080128F9
:100D100015D0668D4FF47A609FED458BAE421AD3A5
:100D2000771B8742E0680EDDFFF72CFD41EC190BC5
:100D3000A81B4FF4B47100F50050484331E06585BD
:100D400084F82980DAE7FFF71DFD41EC190B4FF419
:100D5000B47078430DE0AF1B8742E0681ADDFFF7FF
:100D600011FD41EC190B701B4FF4B47100F50050EC
:100D70004843FFF7CAFC53EC182BFFF7E5FB53EC95
:100D8000192BFFF753FC94ED0C1B53EC112BFFF7C1
:100D9000D8FB16E0FFF7F6FC41EC190B4FF4B470EA
:100DA0007843FFF7B2FC53EC182BFFF7CDFB53EC65
:100DB000192BFFF73BFC94ED0C1B53EC112BFFF7A9
:100DC0001CFBC4E90C01B4F9120094ED031A00EB0A
:100DD0004000400000EE100AF8EEC00A80EE810AE2
:100DE00010EE100AFFF7CEFCFFF7DFFC94ED0C0BC2
:100DF00008EE900A51EC100BFFF7D7FC94ED082B8E
:100E000008EE100A51EC120BFFF7CFFC00EE100AAF
:100E1000B0EE681AF0EE480A04F1860104F13C00D5
:100E200003F011F9A4F8200184F82880658565E7AE
:100E3000000000000000203F014800F04DBD000010
:100E4000A80B002001681823CAB2103AB2FBF3F2D3
:100E5000054B6FF30901032A9B5CC36500D9091D8B
:100E600081650846704700009860000810B501468B
:100E700000208B698A6A4FF0C07453B1B3F5005FEC
:100E800015D072B1012A0CD0022A0AD0032A09D146
:100E900004E01AB1012A06D0022A03D1C96AC901A5
:100EA00000D5012010BDC96AA142FAD010BD002AA8
:100EB000F7D0012AF2D0022AF3D0032AF3D010BDD2
:100EC00030B50468256825F48025256004686360D2
:100ED0008368402B036803D099600068C26030BD0E
:100EE0009A600068C16030BD7047000070B50D4C5D
:100EF00032212046E269904704F124053C21EA6949
:100F000028469047A16920468847A969284688470E
:100F1000A4F108010020088048808880032014394B
:100F2000087070BD2000002070B50170037D021DA7
:100F30009954457D037DAC5C41EA84015C1C4170A1
:100F400004F00F068675B65C41EA06118170A95C53
:100F50009E5C094D00228E420CD16968491C696073
:100F6000282900D3C670E1B243750175102900D15C
:100F7000027570BD6A60F6E7F006002010B5087DC6
:100F8000012282403A48D0F8003243F00103C0F811
:100F90000032D0F8003223F47C53C0F80032D0F88D
:100FA00000324C6A43EA0423C0F80032D0F81C3205
:100FB0009343C0F81C32CB69B3B9D0F80C329343D9
:100FC000C0F80C328C894B6864F31F434C6900EB0A
:100FD000C404C4F840320C890B6864F31F434C69A5
:100FE00000EBC404C4F84432CB69012B16D1D0F80D
:100FF0000C321343C0F80C320C884B6864F31F4367
:101000004C6900EBC404C4F840320C89CB6864F32B
:101010001F434C6900EBC404C4F844328B69002BB5
:10102000D0F8043205D01343C0F804320B6913B171
:1010300006E09343F8E7D0F814329343C0F8143233
:101040000B69012B04D1D0F814321343C0F81432C9
:10105000096A012904D1D0F81C121143C0F81C12EE
:10106000D0F8001221F00101C0F80012002010BDDC
:1010700000640040704700002DE9F041044600681C
:101080000026C1684269C1F30011C2F3C0021023F7
:1010900011B10AB15E01C360206801694269C1F300
:1010A0000011C2F3801219B112B146F480660361D7
:1010B000216848694FF00105C043C0074ED18A68D6
:1010C0007648904323D000228B687548984320D0FF
:1010D00000238F687348B8431DD000201A43024391
:1010E0003CD088688A68C0F340008B68C2F3402215
:1010F000C3F340431043184329D04A69204622F0E5
:1011000001024A6194F83C10122906D00AE001223B
:10111000DAE70123DDE70120E0E701684A6922F40C
:101120000F424A6190F83C10422908D0522908D059
:10113000722908D080F83C5000F062FB09E02221BF
:1011400002E0322100E0622180F83C10F4E746F42E
:10115000006620688168544A114381602068C16834
:10116000406911F0030FC0F3400004D018B1002112
:101170002046FFF751FC20680169406911F0030F18
:10118000C0F3001004D018B101212046FFF744FC41
:10119000206C3043206420688169C1F300024169FA
:1011A0004369C1F30021C3F3C0332AB121B11BB19C
:1011B000216C41F0010121648169C1F34002416960
:1011C0004369C1F34021C3F3C0332AB121B11BB13C
:1011D000216C41F0020121648169C1F380024169FF
:1011E0004369C1F38021C3F3C0332AB121B11BB1DC
:1011F000216C41F004012164816911F0700F08D065
:10120000002142694369C2F3C022C3F3C03311B164
:1012100021E00121F5E7F2B1EBB1816901F0700144
:1012200040292FD006DC102909D020290BD03029E5
:101230000DD123E0502929D0602908D12AE0216C62
:1012400041F0080102E0216C41F010012164816944
:1012500021F070018161206C00280DD021680420EC
:10126000486084F83C502068416948F65B729143BD
:1012700041612046FFF7FEFEBDE8F081216C41F0A0
:101280002001E3E7216C41F04001DFE7216C41F0F0
:101290008001DBE7216C41F48071D7E70300000493
:1012A0000003000800000310190501002DE9F041BA
:1012B00004004FF0000604D094F83C00002518B15B
:1012C00007E00120BDE8F08184F83D50204600F0A1
:1012D00093F8022084F83C002068016821F00201A4
:1012E00001602068016841F00101016000F06CFDBF
:1012F00007464FF0030804E000F066FDC01B0A2813
:1013000062D820684068C007F6D020684168C907E5
:1013100067D0A169012901683FD021F080010160F7
:10132000E0690128206801683AD021F0400101609D
:10133000206A01282068016835D021F02001016071
:10134000606A01282068016830D021F01001016036
:10135000A06A0128206801682BD021F008010160F3
:10136000E06A01282068016826D021F004010160AC
:10137000D4E902010843D4E9041211430843616827
:10138000491E08432168C8612068016821F00101F5
:10139000016000F019FD07461BE041F08001BEE747
:1013A00041F04001C3E741F02001C8E741F01001DE
:1013B000CDE741F00801D2E741F00401D7E700F0A2
:1013C00003FDC01B0A2804D904F83C8F0320657074
:1013D00078E720684068C007F1D120684068C007FE
:1013E00000D02EB12564012084F83C00002069E77C
:1013F000042084F83C0064E7F0B5324B0168DFF864
:10140000C0C018680324022509262F4A0027401C63
:1014100087B0614521D11860012807D1106840F0DC
:1014200000701060106800F0007005908DE8B0004A
:10143000CDE903466946254800F0D2FB002211465B
:10144000132000F06DFD132000F05FFD0022114617
:10145000142000F065FD14202EE0DFF874C0614513
:101460002CD1116841F0806111601168012801F0F0
:1014700080610591186007D1106840F0007010601D
:10148000106800F0007005904FF440508DE8A10006
:10149000CDE9034669460F4800F0A2FB0022022175
:1014A0003F2000F03DFD3F2000F02FFD00220121F4
:1014B000402000F035FD402000F027FD07B0F0BDD2
:1014C000006400402007002040380240000C024029
:1014D000006800400004024030B511B1012924D059
:1014E0000FE090F83C20222A27D090F83C20422A96
:1014F00023D090F83C20622A1FD090F83C20722A1A
:101500001BD090F83D20012A17D0012280F83D2001
:10151000622490F83C20722389B1122A19D0222A21
:101520001BD0422A1CD0322214E090F83C20322AF0
:1015300003D090F83C20522ADBD1022030BD122A81
:1015400005D0322A09D0522A0AD0222202E04222B1
:1015500000E0522280F83C2004E080F83C4001E0AA
:1015600080F83C30002303640268546948F6017532
:101570002C43546180F83D3000680029416904D053
:1015800041F050014161002030BD41F00A01F9E70E
:101590002DE9F04100224549454C17464FF001081E
:1015A00088423FD1434E444B002056F8201031B3BF
:1015B000B1F80AC01D68654521D10D78012215B129
:1015C000012D1CD10CE09D8A6DBA0D82D98A56F886
:1015D000205049BA6982198B56F8205049BAA9821D
:1015E000998A56F8205049BAE982D98A56F820508B
:1015F00049BA2983198B56F8205049BA6983401C8F
:101600000828D2DB1AB96D212CA003F003FC0021BD
:101610002648FFF761FF10B12770BDE8F08184F81C
:101620000080FAE72B498842F7D1234B00202A4E4D
:10163000243356F8201031B3B1F80AC01D6865454F
:1016400021D10D78012215B1012D1CD10CE09D8A0C
:101650006DBA0D82D98A56F8205049BA6982198B21
:1016600056F8205049BAA982998A56F8205049BAAA
:10167000E982D98A56F8205049BA2983198B56F83D
:10168000205049BA6983401C0828D2DB1AB98E2140
:101690000AA003F0BFFB00210E48FFF71DFF08B1B1
:1016A0006770BAE784F80180B7E70000D40700202C
:1016B0006C000020D00600202C0700202E2E5C5449
:1016C00061736B735C5372635C43414E5461736B23
:1016D0002E630000180800207407002070B503680E
:1016E0009968490105D49968090102D49968C9002B
:1016F0007ED590F83D10012907D0012180F83D10DA
:101700009968490103D5002207E0022070BD99685D
:10171000090101D5012200E002224FF4C07101EB62
:1017200002115C5804F001045C50036B9C68ECB33C
:1017300005686E582643DC685B6844EAC3031E43B1
:101740006E50036B1C7C04F00F041C614FF4C273D9
:10175000046803EB0213E55825F00F05E550046813
:10176000E558066B36693543E550036B4FF4C47595
:1017700005EB02151C7DD3F8153044EA03230468F9
:101780006351036B4FF4C67505EB02121C7ED3F850
:10179000193044EA03230468A35090F83C20222A1D
:1017A00010D0322A10D0622A23D000E001E01222A9
:1017B0000BE004686558DE681B88354345EA4353EF
:1017C0006350BEE7422200E0522280F83C20002213
:1017D000026480F83D200268535843F001035350DF
:1017E0000068416948F6017211434161002070BDF3
:1017F00001E07222E9E7042180F83C100120F6E7BD
:10180000054B01220549984201D18A707047044B6B
:101810009842FBD1CA707047D40700206C000020AA
:10182000180800202DE9F0410446876D00F0CCFA3D
:10183000054694F835000026022806D08020606511
:1018400084F834600120BDE8F0812068016821F04F
:10185000160101602068416921F080014161206C1E
:1018600008B9A06C20B12068016821F0080101606E
:101870002068016821F0010101600BE000F0A4FA8A
:10188000401B052806D92020606504F8346F03202A
:101890006070D8E720680068C007EFD194F85C104A
:1018A0003F208840B86004F8346F01206070002049
:1018B000C9E790F83510022903D080214165012045
:1018C0007047052180F835100068016821F001019A
:1018D00001600020704700002DE9F84304464FF0F6
:1018E0000009CDF8009063484FF41651A56D0068CB
:1018F000B0FBF1F72E6894F85C20082101FA02F0A1
:1019000030420FD02068026852070BD5026822F0DF
:101910000402026094F85C008140A960606D40F0B0
:101920000100606594F85C104FF0010808FA01F0BE
:10193000304208D021684969090604D5A860606D65
:1019400040F00200606594F85C100420884030424A
:1019500008D021680968890704D5A860606D40F047
:101960000400606594F85C1010208840304218D064
:1019700021680968090714D5A8602068016849032F
:1019800004D50068000308D5A16C07E00168C9050B
:1019900003D4016821F008010160216C09B12046DF
:1019A000884794F85C1020208840304231D021686C
:1019B0000968C9062DD5A86094F835000528206867
:1019C000016806D0490347D5006800031DD4616C47
:1019D0001CE021F0160101602068416921F08001BE
:1019E0004161206C08B9A06C20B12068016821F029
:1019F0000801016094F85C103F208840A86084F8DA
:101A0000349084F83580216D1FE0E16B09B12046E8
:101A10008847606D00282BD0606DC00714D005206A
:101A200084F835002068016821F001010160009808
:101A3000401C0090B84203D820680068C007F6D167
:101A400084F8349084F83580E16C002910D001B01E
:101A50002046BDE8F04308470168C905D5D40168B0
:101A600021F01001016084F8349084F83580CCE7CF
:101A7000BDE8F883240700202DE9F041044600F07A
:101A8000A3F905465CB1002684F83460022084F88E
:101A900035002068016821F0010101600DE001209E
:101AA000BDE8F08100F090F9401B052805D9202001
:101AB0006065032084F83500F2E720680068C007FD
:101AC000F0D121680A6820480240D4E90103184394
:101AD000D4E903352B43184363691843A3691843BA
:101AE000E3691843236A18431043626A042A03D146
:101AF000D4E90B231A431043086020684069656AE3
:101B000020F0070128460D43012704280CD1A06AC4
:101B10000543E06A40B12046FFF7A8F920B1402014
:101B2000606584F83570BAE7206845612046FFF7A4
:101B300089F994F85C203F2191408160666584F8C2
:101B400035700020ACE700003F8010F02DE9F04137
:101B50000446866D90F83400002501280DD0012040
:101B600084F8340094F835700020012F07D084F8F1
:101B7000340002252846BDE8F0810220FBE7022759
:101B800084F8357060652046FFF79AF994F85C1088
:101B90003F208840B0602068016841F01601016074
:101BA0002068416941F080014161206C20B12068CA
:101BB000016841F0080101602068016841F00101FD
:101BC0000160D7E731B500F0FFF8009C0546601CC6
:101BD00000D0641C00F0F8F8401BA042FAD338BDD6
:101BE0002DE9F84FDFF8A091002209F1040A0AF16B
:101BF000040B4FF00F080BF1040E01260B68964002
:101C00003340B34271D14C68022C01D0122C11D157
:101C1000D40800EB84073D6A5407E40E08FA04FC7C
:101C200025EA0C05D1F810C00CFA04FC4CEA050CAE
:101C3000C7F820C007685400032591F804C0A540E8
:101C40000CF0030CAF430CFA04FC4CEA070CC0F890
:101C500000C04F68012F05D0022F03D0112F01D0F3
:101C6000122F11D18768D1F80CC0AF430CFA04FCD5
:101C70004CEA070CC0F808C04768B7430E79C6F3B2
:101C8000001696403E434660C668AE438D68A54048
:101C90003543C5604C68E4006FD53C4C256845F47D
:101CA00080452560246822F0030504F480440094F4
:101CB000374C2E19D6F808789407250F08FA05F442
:101CC000A743344CA04201D100242EE0324CA04264
:101CD00001D1012429E0314CA04201D1022424E0A9
:101CE0002F4CA04202D103241FE046E02D4CA0421D
:101CF00001D1042419E02C4CA04201D1052414E0A8
:101D00002A4CA04201D106240FE0294CA04201D167
:101D100007240AE0274CA04201D1082405E0264C04
:101D2000A04201D1092400E00A24AC403C43C6F89B
:101D30000848D9F800404D464E689C43F60300D54C
:101D40001C432C60DAF8004055464E689C43B603AD
:101D500000D51C432C60DBF800405D464E689C4378
:101D6000F60200D51C432C60DEF8004075464E6834
:101D70009C43B60200D51C432C60521C102AFFF471
:101D80003CAFBDE8F88F0000003C01404438024001
:101D90000030014000000240000402400008024000
:101DA000000C0240001002400014024000180240E3
:101DB000001C024000200240002402400AB1816160
:101DC00070470904FBE70000014800687047000005
:101DD0000000002070B5040011D021684CF6CC4002
:101DE0000860216845F255500860D4E9000141605F
:101DF0002168A0688860FFF7E7FF054608E001203A
:101E000070BDFFF7E1FF401B302801D9032070BDF2
:101E10002068C0680028F4D121684AF6AA2008602A
:101E2000002070BD00684AF6AA21016000207047BA
:101E300002480168491C0160704700000000002052
:101E40000B4810B5016841F400710160016841F46C
:101E500080610160016841F480710160032000F03D
:101E60007FF8002000F006F800F018F8002010BD00
:101E7000003C024010B5044607484FF47A710068F0
:101E8000B0FBF1F000F03AFC00222146501E00F0B9
:101E900047F8002010BD00002407002010B50320E3
:101EA00000F05EF8002211466FF00B0000F038F8E9
:101EB000002211466FF00A0000F032F800221146AD
:101EC0006FF0090000F02CF800221146501F00F0BE
:101ED00027F800221146101F00F022F800221146B8
:101EE000901E00F01DF80022BDE810401146501E63
:101EF00000F016B800F01F02012191404009800057
:101F000000F1E020C0F88011704700F01F020121AD
:101F100091404009800000F1E020C0F800117047B6
:101F2000F0B40E4B1B68C3F30223C3F10704042C67
:101F300000D904241D1D072D01D2002300E0DB1E63
:101F4000012606FA04F56D1E0D409D409E40761E4A
:101F5000164045EA0601F0BC02F065B80CED00E061
:101F6000064A00F0070110684FF6FF03184040EAE8
:101F70000120034908431060704700000CED00E0A9
:101F80000000FA052DE9F0470D46040065D0DFF8A2
:101F90001491D9F80000EFB200F00F00A84207D268
:101FA00089F80070D9F8000000F00F00A84254D161
:101FB00020683D4E810712D5400703D5306840F4B4
:101FC000E05030602078000703D5306840F460406E
:101FD00030603068A16820F0F0000843306020785D
:101FE000C0072DD0304960680839012812D0022876
:101FF00013D0032811D00968890700292DDA316828
:1020000021F0030101433160FFF7DEFE804641F21B
:10201000883A0EE009688903EFE709688901ECE76F
:10202000FFF7D2FEA0EB0801514502D90320BDE81D
:10203000F0873068616800F00C00B0EB810FEFD1E1
:10204000D9F80010484601F00F01A94207D90770DE
:10205000006800F00F00A84201D00120E7E72078D7
:10206000400705D53068E16820F4E050084330604F
:102070002078000706D53068216920F4604040EAE6
:10208000C100306000F03CF83168084AC1F3031128
:10209000515CC840064908600020FFF7EBFE0020B5
:1020A000C5E70000003C024008380240B460000868
:1020B0002407002001480068704700002407002022
:1020C0000448054900680968044AC1F38221515C4B
:1020D000C84070472407002008380240C460000848
:1020E0000448054900680968044AC1F34231515C5B
:1020F000C84070472407002008380240C460000828
:10210000154810B5006810F00C01144813D0144B9A
:1021100004290FD008290ED10F4C241F216801F08B
:102120003F022168490207D52068C0F38810A0FB50
:10213000030106E0184610BD2168C1F38811A1FB18
:1021400000010023FEF716F92168C1F30141491C83
:102150004900B0FBF1F010BD083802400024F40043
:10216000001BB7002DE9F84F04006ED02078DFF88F
:10217000C4A2B14DC00748D0DAF800105046C1F3F0
:102180008101012908D00068C0F3810002280AD12A
:10219000281D0068400206D52868800335D5606890
:1021A0000028E2D031E06068B0F5803F10D0B0F593
:1021B000A02F286810D020F480302860286820F4F0
:1021C000802028606068A0B1FFF7FEFD06460CE0A5
:1021D000286840F48030F4E740F480202860F7E776
:1021E000FFF7F2FD801B642873D828688003F7D5B9
:1021F0000BE0FFF7E9FD064604E0FFF7E5FD801B75
:102200006428F1D828688003F7D42078DFF82C827E
:1022100080074FF0010B4FF000093DD5DAF80010B0
:10222000504611F00C0F09D00068C0F3810002285D
:102230000CD18048001F0068400207D4286880073E
:1022400014D5E068012800D110E0F1E0E068A8B101
:10225000C8F800B0FFF7B8FD064604E0FFF7B4FD8C
:10226000801B022835D828688007F7D5286821699F
:1022700020F0F80040EAC10028600DE0C8F80090A6
:10228000FFF7A2FD064604E0FFF79EFD801B022833
:102290001FD828688007F7D42078000722D5654F1B
:1022A000674861696C3771B1C0F800B0FFF78CFD09
:1022B000064604E0FFF788FD801B022809D838682D
:1022C0008007F7D50EE0C0F80090FFF77DFD0646C9
:1022D00005E082E0FFF778FD801B02287DD8386892
:1022E0008007F7D42078400750D55248383001682D
:1022F00041F0805101600068524F00F08050009022
:10230000386840F480703860FFF75EFD064604E0F0
:10231000FFF75AFD801B02285FD83868C005F7D543
:10232000444FA068683701280FD00528386810D0BE
:1023300020F001003860386820F004003860A068A0
:10234000B0B1FFF741FD06460EE0386840F00100ED
:10235000F4E740F004003860F7E7FFF735FD811B34
:1023600041F2883081425BD838688007F5D50DE0AE
:10237000FFF72AFD064606E0FFF726FD811B41F226
:10238000883081424CD838688007F5D4A06928B3DA
:10239000DAF80010C1F38101022949D00228484629
:1023A00005D0C8F86000FFF70FFD04463BE0474644
:1023B000C8F86000FFF708FD064604E0FFF704FDDB
:1023C000801B02282CD828688001F7D4D4E90701A3
:1023D0000843A16A1C4A490801E021E026E002EB1B
:1023E0000141626A41EA8211084394F82C1040EAE4
:1023F00001611048001F0160C7F860B0FFF7E4FCFE
:10240000044604E0FFF7E0FC001B022808D8286817
:102410008001F7D50AE0FFF7D7FC001B022802D99C
:102420000320BDE8F88F28688001F4D40020F8E785
:102430000120F6E708380240003802400000474219
:10244000800E4742007000400000FFFF70B504009E
:1024500005D00025A56294F8510010B106E00120D6
:1024600070BD84F85050204600F030F8022084F807
:1024700051002068016821F040010160D4E90101A8
:102480000843D4E903121143084361690843218BCF
:1024900001F400710843E1690843216A0843A16A15
:1024A000084321680860A069042101EA1040616ABC
:1024B0000843216848602068C16921F40061C16156
:1024C0006565012084F85100002070BD00B50068EA
:1024D0000E4987B0884217D10D480021026842F4A6
:1024E00080120260006800F4801005904FF4607064
:1024F00000900220CDE90101032003900520049003
:1025000069460448FFF76CFB07B000BD005001406E
:1025100044380240001402402DE9F84F044690F878
:1025200050000127DDF828809B4616460D464FF0E7
:10253000000901280ED0012084F85000FFF744FC68
:10254000824694F85100616801280CD0B1F5827F71
:1025500007D102E00220BDE8F88FA16809B904287C
:1025600001D00220A2E045B13EB1BBF1000F04D082
:1025700094F85100012802D004E0012096E00520E3
:1025800084F8510000206065A663A4F83EB0A4F86A
:102590003CB02563A4F836B0A4F834B0206460647D
:1025A00020680168490603D4016841F040010160D8
:1025B000E068B0F5006F606804D0D0B3E08E012809
:1025C00038D063E010B1E08E01282BD1216835F8B6
:1025D000020BC860E08E401EE08623E067B1E08E0B
:1025E00050B120688168890706D535F8021BC160A3
:1025F000E08E401EE0860027E08F50B120688168A1
:10260000C90706D0C06826F8020BE08F401EE0879D
:102610000127B8F1FF3F05D0FFF7D6FBA0EB0A0179
:10262000414542D2E08E0028D8D1E08F0028D5D194
:1026300032E0FFE7216815F8010B0873E08E401EB9
:10264000E08623E067B1E08E50B120688168890799
:1026500006D515F8011B0173E08E401EE0860027A9
:10266000E08F50B120688168C90706D0C06806F8BD
:10267000010BE08F401EE0870127B8F1FF3F05D036
:10268000FFF7A2FBA0EB0A0141450ED2E08E002825
:10269000D8D1E08F0028D5D143460122022120461F
:1026A000CDF800A001F068FE10B10320814610E0D3
:1026B00052464146204601F04FFE20B120204FF007
:1026C0000109606505E0A06818B92068C1688068E4
:1026D0000090012084F85100002084F85000484602
:1026E00039E74FF0E0210428086903D020F0040006
:1026F0000861704740F00400FAE7704710B5401ECB
:10270000B0F1807F01D3012010BD4FF0E024606163
:102710000F21601701F087FC0020A06107202061D5
:10272000002010BD10B5FFF7E8FF10BD70477047DF
:1027300010B590F83820012A25D0012280F83820E1
:10274000CA688C6822F4407222434C6822F480628A
:1027500022430C6822F4006222430C6922F4805266
:1027600022434C6922F400522243896922F48042B8
:102770000A43002322F400420A4301684A6480F8B5
:102780003830002010BD022010BD30B590F8382040
:10279000012A20D0012380F83830022280F8392025
:1027A0000268546824F070045460026854680D682C
:1027B0002C4354600268946824F08004946002689A
:1027C000946849680C43946080F83930002180F89F
:1027D0003810084630BD022030BD10B5040003D0CB
:1027E00094F8390010B107E0012010BD002084F8F2
:1027F0003800204600F00CF8022084F83900211D32
:10280000206801F09BFE012084F83900002010BDF3
:1028100008B500682949B0F1804F11D0284A90428C
:1028200016D1086840F0100008600868002200F027
:102830001000009003213620FFF772FB36202CE0B9
:10284000086840F001000860086800F0010032E00C
:102850001C4A90420ED1086840F0200008600868C9
:10286000002200F02000009011463720FFF758FBAF
:10287000372012E0144A904213D11048001D01681D
:1028800041F4003101600068002200F40030009043
:1028900004211920FFF744FB1920BDE80840FFF789
:1028A00034BB0A4A904207D1086840F040000860F3
:1028B000086800F04000009008BD00004038024069
:1028C0000010004000140040004401400018004087
:1028D0000168CA6842F00102CA600068016841F0FC
:1028E000010101600020704770B5044690F838007F
:1028F000012817D0012584F83850022084F83900C7
:102900002068826822F0770222F47F4282600868A1
:10291000502836D00DDC202858D005DC80B3102894
:1029200040D150E0022070BD302852D0402839D12B
:102930003EE060282DD070280BD0B0F5805F03D02A
:10294000B0F5005F2ED110E02068816821F007010A
:1029500009E0CB68D1E90121206801F05AFE206826
:10296000816841F0770181601CE0CB68D1E90121E9
:10297000206801F04EFE2068816841F48041F2E752
:102980001EE0CA684968206801F00CFF50212068E9
:1029900006E0CA684968206801F015FF60212068D8
:1029A00001F041FE84F83950002084F8380070BDF1
:1029B000CA684968206801F0F5FE40212068EFE709
:1029C00000212068ECE710212068E9E72021206839
:1029D000E6E730212068E3E7704770B504460068F9
:1029E00001694FF00005C943890715D4C168C9437F
:1029F000890711D4E91E01610120207620688069D1
:102A00008007204602D0FFF7E7FF04E000F0D2F88D
:102A1000204600F067F9257620680169C943490717
:102A200017D4C168C943490713D46FF00401016189
:102A3000022020762068806910F4407F204602D072
:102A4000FFF7CAFF04E000F0B5F8204600F04AF9AD
:102A5000257620680169C943090716D4C168C943AE
:102A6000090712D46FF00801016104202076206864
:102A7000C0698007204602D0FFF7AEFF04E000F0F7
:102A800099F8204600F02EF9257620680169C9439F
:102A9000C90617D4C168C943C90613D46FF0100121
:102AA0000161082020762068C06910F4407F20462C
:102AB00002D0FFF791FF04E000F07CF8204600F020
:102AC00011F9257620680169C943C90708D1C16891
:102AD000C943C90704D1891E0161204600F04EF99F
:102AE00020680169C943090609D4C168C9430906B8
:102AF00005D46FF0800101612046FFF717FE2068C2
:102B00000169C943490609D4C168C943490605D4C6
:102B10006FF040010161204600F098F920680169DA
:102B2000C94389060BD4C168C943890607D46FF02D
:102B3000200101612046BDE87040FFF7F8BD70BD7F
:102B400000B500680021022285B0B0F1804F0FD09F
:102B5000134B984216D1A0200090CDE9012103200B
:102B6000CDE9031069460F48FFF73AF805B000BDFC
:102B70000E200090CDE901210120CDE90310694626
:102B80000948F1E7094B9842F0D140200090CDE987
:102B900001210920CDE9031069460548E4E700005A
:102BA00000040140002002400000024000180040E4
:102BB000001C0240704770B5044690F838000D467E
:102BC00001280DD0012684F83860022084F83900ED
:102BD00042B1042A18D0082A2AD00C2A4DD139E053
:102BE000022070BD206801F027FD2068816941F056
:102BF000080181612068816921F0040181612068F8
:102C000081692A69114311E0206801F041FD2068C3
:102C1000816941F4006181612068816921F48061EA
:102C20008161206881692A6941EA0221816124E089
:102C3000206801F05FFD2068C16941F00801C161B1
:102C40002068C16921F00401C1612068C1692A6955
:102C5000114311E0206801F07DFD2068C16941F455
:102C60000061C1612068C16921F48061C16120688F
:102C7000C1692A6941EA0221C16184F839600020F2
:102C800084F8380070BD10B5040003D094F8390002
:102C900010B107E0012010BD002084F83800204664
:102CA00000F00CF8022084F83900211D206801F0A2
:102CB00045FC012084F83900002010BD08B50068EB
:102CC0000649884208D10648016841F002010160C6
:102CD000006800F00200009008BD00000004014000
:102CE000443802407047000010B5044600680122D5
:102CF00001F084FC08482168814202D007488142E3
:102D000003D1486C40F4004048642068016841F0F9
:102D100001010160002010BD0000014000040140DD
:102D200010B504460068002201F068FC114841F229
:102D3000111221689310814202D00F48814209D1BB
:102D4000086A104206D1086A184203D1486C20F480
:102D5000004048642068016A114206D1016A1942A4
:102D600003D1016821F001010160012084F83900DC
:102D7000002010BD00000140000401402DE9F04199
:102D800029490068294E0968884213D13620FFF787
:102D9000B1F8B08840F60751401C80B2B0FBF1F2A8
:102DA00001FB1200B08002F0DDFCBDE8F0413620EE
:102DB000FFF7ABB81E490968884225D11D4D1E4A50
:102DC0002878401CC1B229701068002801DD401E1F
:102DD00010601A4F3878002816D0194A002411299B
:102DE000107801D8012811D0904600B134701548F0
:102DF00000F02DF812221449124800F007FA2C7046
:102E0000012188F800103C70BDE8F0810E4801F007
:102E100029FA0C4800F01BF812220B49094800F06F
:102E2000F5F92C70EFE70000FC080020740000208A
:102E300038090020F906002068000020F206002072
:102E4000F8060020A80A002094070020704770B5FB
:102E500004460068C16821F49071C160206841692E
:102E600021F001014161206841694FF000054906E8
:102E700009D5416921F040014161606B18B10565D8
:102E8000606BFEF7CFFCE585202084F83A00002037
:102E900070BD08B5C16B090703D5006801684068BB
:102EA000009008BD70B5026804461068D168536987
:102EB00010F00F0F50D003F0010501F49076354368
:102EC0005DD0C20705D0CA0503D5E26B42F001020E
:102ED000E263420705D5DA0703D0E26B42F0020253
:102EE000E263820705D5DA0703D0E26B42F0040201
:102EF000E263020705D5DA0703D0E26B42F008026D
:102F0000E263E26B002A33D0800604D5880602D53E
:102F1000204601F0DEFC20684069E16BC0F38010C0
:102F2000090700D428B3204601F0BCFC20684169A1
:102F300049061AD5416921F040014161606BA0B199
:102F40001B490165606BFEF7B4FC002810D0606B74
:102F5000016DBDE870400847830610D58B060ED57D
:102F60002046BDE8704001F0B4BC2046FFF791FF59
:102F700070BD2046FFF78DFF0020E06370BD0306A3
:102F800006D50B0604D52046BDE8704001F03EBED4
:102F90004006F3D54806F1D5D168204621F040011E
:102FA000D160202184F8391000F069FA70BD00006A
:102FB0000548000870B5040004D094F839000025D5
:102FC00010B106E0012070BD84F83850204600F0B2
:102FD00023F8242084F839002068C16821F40051C6
:102FE000C160204601F0BCFC2068016921F49041D9
:102FF00001612068416921F02A0141612068C168AE
:1030000041F40051C160E563202084F8390084F860
:103010003A00002070BD00002DE9F04306466A4FDB
:1030200001686A4D022301240322694887B04FF0EA
:1030300000094FF00808B94216D1296841F08041D3
:103040002960296801F080410591D1018DE81A00BD
:10305000CDE903286946FEF7C3FD00221146522040
:10306000FEF75EFF522017E05A4FB94219D1296886
:1030700041F00041296029688DE81C0001F0004101
:10308000CDE9048103926946FEF7AAFD00221146AC
:103090005320FEF745FF5320FEF737FF07B0BDE88A
:1030A000F0834D48DFF824C107270CF1040C81425E
:1030B00035D1DCF800004D4640F01000CCF800009F
:1030C000DCF80000694600F010000590C0208DE893
:1030D0001900CDE903274148FEF782FD414C4048E5
:1030E00020604FF00060C4E901054014C4E90350BA
:1030F0006561A561E561256220466562FEF7BCFC5D
:1031000020B14FF4827138A001F084FE7463002274
:1031100011462520A663FEF703FF2520BCE7364EA7
:103120003648B14216D1296841F400312960296836
:1031300001F40031059160218DE81A00CDE90327E3
:103140006946FEF74DFD002201212620FEF7E8FE2C
:103150002620A1E72A4EB14217D1296841F48021E7
:103160002960296801F4802105914FF440718DE8B0
:103170001A00CDE903276946FEF732FD002201213E
:103180002720FEF7CDFE272086E71E48814285D105
:10319000DCF8000040F02000CCF80000DCF8000073
:1031A000694600F0200005904FF484408DE8190036
:1031B000CDE903281448FEF713FD00220121472022
:1031C000FEF7AEFE472067E7007800404038024037
:1031D00000100240007C004000100140000402404A
:1031E00040640240A80B00202E2E2F5372632F75CF
:1031F000736172742E63000000440040000C0240B2
:1032000000480040001401400018024037B5044651
:1032100090F83A0082B0134620283AD1039AAAB314
:10322000A3B394F83800012833D0012084F8380083
:10323000A262A3850025E563222084F83A00616B31
:103240001548C863616B15480864616B1448C8640D
:10325000606B05652168606B091DFEF777FC2068CF
:1032600001684168009184F83850C16841F4807168
:10327000C1602068416941F00101416120684169F4
:1032800041F040014161002005B030BDFFE7012061
:10329000FAE70220F8E700005F4800089B480008B2
:1032A0001548000890F83A30202B1DD1D1B1CAB191
:1032B00090F83830012B17D081628285C2850021B9
:1032C000C163222280F83A2080F8381001684A69E8
:1032D00042F001024A610068C16841F49071C16026
:1032E0000020704701207047022070472DE9F04709
:1032F00006461B480127864203D11A488770BDE85D
:10330000F087194DDFF864A0DFF8648000244FF4E3
:103310007A7955F82400B04213D101221349FFF7FE
:10332000C1FF55F824004B46052212A100F02BF8EE
:103330000028F6D19AF80000312807D0E4B2C8F886
:103340000070641CE4B2042CE3D3D8E70B48006897
:10335000844202D10A480760D1E7C8F80070CEE77E
:10336000A80A0020F006002010070020FF06002019
:103370000007002068616861000000000C07002061
:103380000807002070472DE9F843044690F83900FB
:103390001E4617460D46202850D1A5B19FB194F87E
:1033A000380001284AD0012084F838004FF0000886
:1033B000C4F83C80212084F83900FEF705FDA7847D
:1033C0008146E78426E00120BDE8F883E08C401EBA
:1033D000E084A0684B46B0F5805F4FF000024FF0EC
:1033E00080012046009603D001F041FCE8B90DE0D1
:1033F00001F03DFCC8B928882168C0F30800486086
:10340000206908B16D1C05E0AD1C03E0216815F8CA
:10341000010B4860E08C0028D8D14B4600224021A7
:103420002046009601F023FC08B10320CCE72020C1
:1034300084F8390084F838800020C5E70220C3E70B
:1034400090F83930202B18D1A9B1A2B190F83830BA
:10345000012B12D001628284C2840021C163212227
:1034600080F8392080F838100068C16841F0800188
:10347000C1600020704701207047022070477047EC
:10348000FEE70000F0B5204995B01E4848630024CF
:10349000012503940E260494CDE90645CDE908568E
:1034A000059400940194029469461748FDF766FD5F
:1034B00000211548FEF710F818B1382113A001F0CB
:1034C000A9FC184F0F4818493D70243048630A94EE
:1034D000CDE90E460D94CDE91045CDE912560B9479
:1034E0000C940AA91048FDF749FD00210E48FDF78C
:1034F000F3FF18B14B2105A001F08CFC7D7015B0D5
:10350000F0BD00002C070020D40700202E2E5C54B4
:1035100061736B735C5372635C43414E5461736BB4
:103520002E6300006C0000201808002030B585B024
:10353000002414220E496846FCF74DFF6420FEF774
:1035400041FB752000F07EF80A496D46087005EBD6
:103550004400417815F8140000F09CF80120FEF7B3
:1035600031FB641CE4B20A2CF1D305B0002030BD5D
:10357000A0600008F400002070B5040014D0012001
:1035800084F8290000259FED090B658584ED0C0B5F
:1035900084ED080BD4F81C1104F1D0008847A16B0E
:1035A00020468847A4F8205170BD000000000000AC
:1035B0000000000010B5122206490748FFF726FE5A
:1035C00018B18A2105A001F025FCBDE81040FDF7E7
:1035D0008DBC000094070020A80A00202E2E5C5409
:1035E00061736B735C5372635C52656D6F74655489
:1035F00061736B2E6300000010B50088C822C0F311
:10360000011464230E49032C09D0C4060BD54FF4D2
:103610002F704881401088810020087010BD4A81B9
:103620008B810220F9E7800603D54A818B81012036
:10363000F3E74FF4C87048818A810320EDE700006A
:1036400004000020F8B5104E044600224021304608
:10365000FEF7B4FB44F080000C4C3725621CA070D0
:103660000123511C0A480095FEF756FF621C0123F6
:10367000511C07480095FEF74FFF012240213046BC
:10368000FEF79CFB6078F8BD00140240F4000020B7
:1036900068080020F8B5114D0E460446002240216E
:1036A0002846FEF78BFB04F07F000D4C3727E21C09
:1036B00020710123511C0B480097FEF72DFF267146
:1036C000E21C0123511C07480097FEF725FF012249
:1036D00040212846FEF772FB0020F8BD001402408E
:1036E000F400002068080020104810B50E49016061
:1036F0000321416000214FF400228160C0E90312E0
:103700004FF44012C0E90521C1610162416281624A
:10371000C162FDF7CBFD002805D0BDE81040462171
:1037200003A001F077BB10BD00640040D407002067
:103730002E2E2F5372632F63616E2E6300000000E4
:10374000104810B50E4901600321416000214FF47B
:1037500000228160C0E903124FF44012C0E9052144
:10376000C161016241628162C162FDF79FFD002873
:1037700005D0BDE810405C2103A001F04BBB10BD9B
:1037800000680040180800202E2E2F5372632F630C
:10379000616E2E6300000000094808B5016841F41D
:1037A000800101600068002200F480000090114652
:1037B0003A20FEF7B5FBBDE808403A20FEF7A5BB6E
:1037C000303802402DE9F04F444887B000240168AA
:1037D00041F010010160016801F0100105910168DC
:1037E00041F040010160016801F04001059101686C
:1037F00041F002010160016801F0020105910168D8
:1038000041F008010160016801F0080105910168BB
:1038100041F480710160016801F4807105910168D3
:1038200041F080010160016801F0800105910168AB
:1038300041F020010160016801F02001059101685B
:1038400041F0010101600068DFF8948000F00100A0
:103850000590002244214046FEF7B0FADFF884903C
:1038600000223C214846FEF7A9FADFF87CA044F28A
:103870004006002231465046FEF7A0FADFF86CB051
:103880004FF40067002239465846FEF797FA442065
:1038900000900125CDE90154694640460394FEF7A6
:1038A0009FF93C200090CDE90154694648460394B5
:1038B000FEF796F90096CDE9015469465046039407
:1038C000FEF78EF90097CDE90154694658460394F6
:1038D000FEF786F907B0BDE8F08F000030380240EF
:1038E00000200240001C0240001402400010024070
:1038F0000A4810B508490160032141604FF49671F0
:103900008160FEF767FA002805D0BDE810403A2133
:1039100003A001F07FBA10BD003000405C08002019
:103920002E2E2F5372632F697764672E6300000079
:10393000114810B50F4901604FF4827141600021B8
:103940008160C1604FF400720161C0E9051230224C
:10395000C0E90721416281620A21C162FEF776FD5A
:10396000002805D0BDE81040452104A001F052BA5E
:1039700010BD000000500140680800202E2E2F537B
:1039800072632F7370692E63000000000C4810B53D
:103990000A490160A7214160002142F21072C0E98A
:1039A00002120161FEF719FF002805D0BDE81040A2
:1039B000DF2104A001F02EBA10BD00000044014038
:1039C000B00900202E2E2F5372632F74696D2E6361
:1039D0000000000010B520488CB01E490160532142
:1039E0000024C0E9011440F6C311C0E90314FEF736
:1039F000F4FE18B1F02119A001F00CFA4FF4805038
:103A0000079007A91448FEF76FFF18B1F62113A01D
:103A100001F000FA1048FFF736F918B1FB210FA0AA
:103A200001F0F8F9602000904FF47A70CDE90104BC
:103A30000022694608480494FFF7BDF820B14FF40E
:103A4000827106A001F0E6F90348FFF779F80CB09F
:103A500010BD000000180040EC0900202E2E2F534E
:103A600072632F74696D2E630000000010B52D483D
:103A70008EB04FF08041016053210024C0E9011451
:103A800044F63721C0E90314FEF7A7FE18B144211C
:103A900025A001F0BFF94FF48050079007A92148F5
:103AA000FEF722FF18B14A211FA001F0B3F91D480B
:103AB000FFF7E9F818B14F211BA001F0ABF90B9407
:103AC0000BA918480C94FEF760FE18B1562116A0F9
:103AD00001F0A0F96020CDE90004029404226946B7
:103AE00010480494FFF767F818B15F210EA001F0A9
:103AF00091F9082269460B48FFF75DF818B1642177
:103B000009A001F087F90C2269460648FFF753F82F
:103B100018B1692104A001F07DF90248FFF710F8FF
:103B20000EB010BDC00800202E2E2F5372632F74CC
:103B3000696D2E63000000001CB510480E4900247A
:103B400001605321C0E901144FF47A71C160FEF79E
:103B500044FE18B17A210AA001F05CF9009469468C
:103B600006480194FEF711FE002803D0812104A02D
:103B700001F050F91CBD000000100040FC080020BE
:103B80002E2E2F5372632F74696D2E630000000078
:103B90001CB510480E49002401605321C0E90114EE
:103BA0004FF47A71C160FEF718FE18B190210AA097
:103BB00001F030F90094694606480194FEF7E5FDEE
:103BC000002803D0972104A001F024F91CBD0000B7
:103BD00000140040380900202E2E2F5372632F74DA
:103BE000696D2E630000000010B52A4890B0284986
:103BF000016001210024C0E9011441F28241C0E9C1
:103C000003144461FFF73FF818B1AA2122A001F084
:103C100001F90E940EA91F480F94FEF7B6FD18B1D6
:103C2000B1211DA001F0F6F86020CDE90004029456
:103C30000394049405940022694616480694FEF7FE
:103C4000BAFF18B1BD2114A001F0E4F808226946BA
:103C50001048FEF7B0FF18B1C2210FA001F0DAF84A
:103C60000794089409944FF400500A94CDE90B404E
:103C700007A908480D94FEF75BFD18B1CE2106A0F8
:103C800001F0C8F80348FEF75BFF10B010BD00005C
:103C900000040140740900202E2E2F5372632F74EC
:103CA000696D2E63000000000D4810B50B490160DE
:103CB0004FF4E1314160002181600C22C160C0E914
:103CC00004128161C161FFF775F9002805D0BDE8D4
:103CD0001040482103A001F09DB810BD00780040BD
:103CE000280A00202E2E2F5372632F757361727471
:103CF0002E6300000D4810B50B4901604FF4E1310F
:103D00004160002181600C22C160C0E90412816120
:103D1000C161FFF74FF9002805D0BDE810405A21D6
:103D200003A001F077B810BD007C0040680A0020B5
:103D30002E2E2F5372632F75736172742E630000E1
:103D40000F4810B50D4901600E4941604FF4805194
:103D5000816000214FF48062C0E903120422C0E9AF
:103D60000521C161FFF726F9002805D0BDE8104004
:103D70006D2105A001F04EB810BD000000100140FB
:103D8000A80A0020A08601002E2E2F5372632F75E3
:103D9000736172742E6300000D4810B50B49016009
:103DA0004FF4E1314160002181600C22C160C0E923
:103DB00004128161C161FFF7FDF8002805D0BDE85C
:103DC0001040802103A001F025B810BD0044004040
:103DD000E80A00202E2E2F5372632F7573617274C0
:103DE0002E6300000D4810B50B4901604FF4E1311E
:103DF0004160002181600C22C160C0E90412816130
:103E0000C161FFF7D7F8002805D0BDE81040932125
:103E100003A000F0FFBF10BD00480040280B0020A9
:103E20002E2E2F5372632F75736172742E630000F0
:103E30000D4810B50B4901604FF4E131416000219C
:103E400081600C22C160C0E904128161C161FFF789
:103E5000B1F8002805D0BDE81040A62103A000F06D
:103E6000D9BF10BD00140140680B00202E2E2F5327
:103E700072632F75736172742E630000FEE7000099
:103E8000F0B52049204E214A214C00204FF4007506
:103E900051F8203043B15E6051F8207000F20123E8
:103EA0007B8151F820301D8152F8203043B15C6095
:103EB00052F8207000F201237B8152F820301D81DE
:103EC000401C0428E4DB042040F2FF1551F82030A8
:103ED00043B15E6051F8207000F201237B8151F8FC
:103EE00020301D8152F8203043B15C6052F82070C0
:103EF00000F201237B8152F820301D81401C0828EC
:103F0000E4DBF0BDD0060020D407002074070020B9
:103F1000180800202DE9F0410C46404991F90010A5
:103F2000002971DDB0F900106FF09503994201DAB4
:103F3000194602E0962900DD96210180B0F90220A1
:103F40009A4201DA1A4602E0962A00DD9622428061
:103F50002046FFF751FB324E307828B1012803D0BC
:103F6000022851D003284FD12D49208801F140016A
:103F7000C2074FF00007A1F12C0509D0096905F12E
:103F80002C008847708900EE900AF8EE600A0BE07A
:103F9000800711D52248096940308847708940421E
:103FA00000EE900AF8EEE00A20EE200ABDEEC00A0C
:103FB00010EE100A288004E02F80194889694030EB
:103FC000884720881649020701F11C0109D51448C9
:103FD00009691C308847B08900EE900AF8EE600A43
:103FE0000BE0400712D50E4809691C308847B0899C
:103FF000404200EE900AF8EEE00A20EE200ABDEE04
:10400000C00A10EE100A6880BDE8F0816F808969EF
:10401000BDE8F04102481C30084700007400002051
:104020000400002070470907090E002806DA00F096
:104030000F0000F1E02080F8141D704700F1E0202F
:1040400080F80014704770B5054610EE100A2DED8B
:10405000028B0C46286010EE900AB0EE418A686030
:10406000D5F8421028468847D5F83A00206018EE67
:10407000100A6060D4F8421020468847D4F83A000D
:1040800000EE100ABDEC028BBDEEC00A10EE100A65
:1040900000B270BD704700002DE9F047654F97F9F9
:1040A0000050002D7EDD0188634CA1F580610BB2CC
:1040B00063804188DFF88481A1F580610AB2A28023
:1040C0008188BA46A1F5806109B2E180C088012DDE
:1040D000A0F5806006B2268165D100EE102AB8EE08
:1040E000C00ADFED570A04F1140220EE200ABDEEEB
:1040F000C00A10EE100A1080584200EE100AB8EE06
:10410000C00A20EE200AF6EE000A20EE200ABDEEDC
:10411000C00A10EE100A5080484200EE100AB8EEB5
:10412000C00ADFED480A20EE200A84ED040A98ED6B
:10413000080B9FED451B51EC100B53EC112BFCF7BA
:104140005CF9DFF80C91434D41F28837C82EC8E97D
:10415000080115DD002240214846FDF72FFE002210
:1041600004214846FDF72AFE00212846FEF7BCFD43
:104170002868476308212846FEF7B6FD2868C7630C
:10418000B4F9080010F1C80F18DA0122402148469E
:10419000FDF714FE012204214846FDF70FFE002121
:1041A0002C4801E043E01CE0FEF79EFD28684763D1
:1041B00008212848FEF798FD2868C763B4F908006D
:1041C000C730B0F5C77F0CD800212248FEF78CFD20
:1041D00028680026466308211E48FEF785FD2868EA
:1041E000C6639AF800005546022811D104211A48E6
:1041F000FEF77AFD208940F21A4110FB01F04FF4DE
:10420000167190FBF1F0144900F5FA7009688863A3
:10421000287803280BD198ED080B9FED101B51EC6B
:10422000100B53EC112BFCF7E8F8C8E90801BDE8C6
:10423000F0870000740000200400002080040020AB
:104240009A99193FCDCC4C3D00000000000028C0D9
:104250000020024074090020C00800200000000077
:104260000000184070B504463748FDF7DBFD002C10
:1042700069D020880225C0F30A01344801806178A2
:10428000A278C90841EA4211C1F30A014180A1782C
:10429000E278890941EA8201227941EA8221C1F367
:1042A0000A01818021796279490841EAC211C1F38A
:1042B0000A01C1806179890901726279C2F3011230
:1042C0004272E3884381238983816389C381237B8D
:1042D0008374637BC374E3898382012003231C4CB2
:1042E000012A1FD0032A1FD0257001291ED00329BF
:1042F0001ED0637015481630FCF716FE207815495D
:10430000012817D002281ED003281CD191F90000E3
:10431000002818DD0D49BDE870401431A1F10A00F4
:10432000FFF7F8BD2070E0E72370DEE76070E1E79B
:104330006570DFE791F90000002804DDBDE87040FA
:104340000248FFF7A9BE70BD5C080020A607002048
:10435000F00600207400002038B50B460092044699
:104360000022802100F008F8002804D0606D40F0A1
:1043700020006065032038BD2DE9F0411D46174639
:104380000E460446DDF8188035E0681C33D02DB1A8
:10439000FDF71AFDA0EB0800A8422CD32068416865
:1043A00021F0E00141606068B0F5827F0BD1A06828
:1043B000B0F5004F02D0B0F5806F04D120680168DD
:1043C00021F040010160A06AB0F5005F0AD12068C9
:1043D00001684DF6FF72114001602068016841F4E8
:1043E00000510160012084F85100002084F8500041
:1043F0000320BDE8F0812068806836EA000004D020
:104400000020B842C1D10020F3E70120F9E770474E
:1044100010B5FDF70DFDBDE81040FEF783B90000B3
:1044200030B5264893B00025016841F08051016005
:10443000006800F0805011902148016841F440412B
:1044400001600068022400F44040119009200090AF
:104450004FF4803001900120CDE9050480050790DC
:1044600006200890A820CDE9090404200B90684696
:10447000FDF778FE00B1FEE70CA90F2081E83100BE
:104480004FF4A0500F904FF48050109005210CA8CD
:10449000FDF778FD00B1FEE7FDF70CFE4FF47A71F1
:1044A000B0FBF1F0FEF72AF90420FEF71AF900221A
:1044B0001146501EFDF734FD13B030BD40380240A8
:1044C000007000401048016841F4700101600F481D
:1044D000016841F0010101600C4A002108321160BD
:1044E00002680B4B1A400260031D0A4A1A600268F8
:1044F00022F48022026005480C300160024958060F
:10450000803908607047000088ED00E00038024004
:10451000FFFFF6FE103000240148FEF75EBA0000EF
:10452000B00900200148FEF758BA0000FC0800203E
:104530000148FEF752BA000038090020F0B50268C1
:10454000234D244E244FDFF894C0254B4FF0804E6E
:10455000A84209D0704507D0B04205D0B84203D078
:10456000604501D0984203D122F070044A6822438A
:10457000A8421BD0704519D0B04217D0B84215D010
:10458000604513D0984211D0164CA0420ED0164C64
:10459000A0420BD0154CA04208D0154CA04205D02B
:1045A000144CA04202D0144CA04203D122F4407417
:1045B000CA68224302608A68C2620A688262A842AC
:1045C00001D0984201D10969016301214161F0BD27
:1045D000000001400004004000080040000C0040C2
:1045E00000040140004001400044014000480140F7
:1045F00000180040001C00400020004010B50123BE
:10460000046A8B409C430462036A8A40134303623A
:1046100010BD10B5846842EA032224F47F440A43A3
:104620002243826010BD826822F070020A4342F089
:10463000070181607047000030B5026A22F0010274
:104640000262056A426883690C6823F073031C43A5
:104650008B6825F002052B430B4DA84202D00B4D71
:10466000A8420BD123F00805CB6822F440722B43FB
:104670004D6923F0040315438A692A43426084612B
:1046800049684163036230BD0000014000040140FD
:1046900030B5026A22F010020262036A426884693D
:1046A0000D6824F4E64444EA05248D6823F02003D1
:1046B00043EA05130D4DA84202D00D4DA8420ED17C
:1046C000CD6823F0800343EA05134D6922F440626C
:1046D00042EA85028D6923F0400342EA8502426086
:1046E000846149688163036230BD000000000140BD
:1046F0000004014030B5026A22F480720262036A4B
:104700004268C46923F4007324F073050C682C43D9
:104710008D6843EA05230D4DA84202D00C4DA842F6
:104720000ED1CD6823F4006343EA05234D6922F4DA
:10473000405242EA05128D6923F4806342EA051271
:104740004260C4614968C163036230BD000001403A
:104750000004014030B5026A22F480520262036A0A
:104760004268C4690D6824F4E64444EA05248D686F
:1047700023F4005343EA0533084DA84202D0084D04
:10478000A84204D14D6922F4804242EA8512426077
:10479000C46149680164036230BD0000000001404B
:1047A0000004014010B5046A036A23F001030362A8
:1047B000836923F0F00343EA021324F00A020A4358
:1047C0008361026210BD10B5036A23F01003036217
:1047D0008469036A24F4704444EA023223F0A0039B
:1047E00043EA01118261016210BD00000148FEF739
:1047F00059BB0000280A00200148FEF753BB000007
:10480000680A002010B5806B0021C185C184FEF7C5
:1048100040FB10BD70B5846B2068406994F8391076
:10482000C0F3C0100025212904D118B1E584204629
:1048300000F046F82068406994F83A10C0F3801000
:10484000222904D118B1E585204600F02BF8E06B51
:1048500040F01000E0632046FEF71BFB70BD10B572
:104860000146806B09680968C90513D40021C18518
:104870000168CA6822F48072CA6001684A6922F03D
:1048800001024A6101684A6922F040024A6120211E
:1048900080F83A10FEF72AFD10BD10B5806BFEF7C8
:1048A00071FD10BD0168CA6822F49072CA60016887
:1048B0004A6922F001024A61202180F83A107047CB
:1048C0000168CA6822F0C002CA60202180F839104D
:1048D000704710B590F83A10222901D0022010BD7F
:1048E0008168B1F5805F11D00169002901681FD08E
:1048F000496801F07F03816A4A1C82620B70C18D96
:10490000491E0904090CC18518D026E00269816A94
:10491000002A0268526805D0D2B20A80816A491C16
:104920008162ECE7C2F308020A80816A891CF7E71A
:104930004A68816A4B1C83620A70E0E70168CA68B2
:1049400022F49072CA6001684A6922F001024A6149
:10495000202180F83A10FEF7C9FC002010BD0000AD
:104960002DE9F04104460068016921F44052E168F4
:10497000114301612068C16849F20C6291432369C7
:10498000A268E5691A4363692B431A430A43C2606C
:1049900020684169A26921F440710A434261E069DB
:1049A0006425B0F5004F974A974920684FF03208C8
:1049B0003FD0884201D090427CD1FDF791FB00EBC3
:1049C000C00101EB001061688900B0FBF1F6FDF752
:1049D00087FB00EBC00101EB001061688900B0FBB0
:1049E000F1F0B0FBF5F06FF01801484306EB8001E1
:1049F00008EB0110B0FBF5F000F0F006FDF770FBDE
:104A000000EBC00101EB001061688900B0FBF1F020
:104A1000B0FBF5F006EB0016FDF762FB00EBC00102
:104A200001EB001061688900B0FBF1F7FDF758FB5E
:104A3000D2E0884201D090423DD1FDF751FB00EB1E
:104A4000C00101EB001061684900B0FBF1F0B0FB60
:104A5000F5F00601FDF744FB00EBC00101EB00108F
:104A600061684900B0FBF1F7FDF73AFB00EBC001CC
:104A700001EB001061684900B0FBF1F0B0FBF5F00C
:104A80006FF01801484307EB800108EBC100B0FB51
:104A9000F5F000F0F80006EB4006FDF721FB00EB17
:104AA000C00101EB001061684900B0FBF1F7FDF7B0
:104AB00017FB3CE055E0FDF703FB00EBC00101EB09
:104AC000001061684900B0FBF1F0B0FBF5F00601A1
:104AD000FDF7F6FA00EBC00101EB00106168490038
:104AE000B0FBF1F7FDF7ECFA00EBC00101EB0010B1
:104AF00061684900B0FBF1F0B0FBF5F06FF0180110
:104B0000484307EB800108EBC100B0FBF5F000F073
:104B1000F80006EB4006FDF7D3FA00EBC00101EB0D
:104B2000001061684900B0FBF1F7FDF7C9FA00EB2E
:104B3000C00101EB001061684900B0FBF1F0B0FB6F
:104B4000F5F06FF01801484307EB800108EBC10056
:104B5000B0FBF5F000F00700216830448860BDE844
:104B6000F081FDF7ADFA00EBC00101EB00106168C8
:104B70008900B0FBF1F6FDF7A3FA00EBC00101EBF1
:104B8000001061688900B0FBF1F0B0FBF5F06FF048
:104B90001801484306EB800108EB0110B0FBF5F06B
:104BA00000F0F006FDF78CFA00EBC00101EB0010FD
:104BB00061688900B0FBF1F0B0FBF5F006EB001680
:104BC000FDF77EFA00EBC00101EB0010616889007F
:104BD000B0FBF1F7FDF774FA00EBC00101EB001038
:104BE00061688900B0FBF1F0B0FBF5F06FF01801DF
:104BF000484307EB800108EB0110B0FBF5F000F033
:104C00000F00A9E7001401400010014090F839108E
:104C1000212901D0022070478168B1F5805F016AC7
:104C20000BD04A1C0262026809785160C18C491E8F
:104C30000904090CC1840ED017E009880268C1F389
:104C40000801516001690029016A02D0491C016212
:104C5000ECE7891CFBE70168CA6822F08002CA60A1
:104C60000068C16841F04001C160002070472DE933
:104C7000F0411E46174688460446069D1CE0681C07
:104C80001AD025B1FDF7A0F8801BA84214D92068DE
:104C9000C16821F4D071C1602068416921F001012F
:104CA0004161202084F8390084F83A00002084F81B
:104CB00038000320BDE8F0812068016838EA01006F
:104CC00004D00020B842DAD00020F3E70120F9E751
:104CD0000148FEF7E7B80000A80A00200148FEF7E7
:104CE000E1B80000E80A00200148FEF7DBB8000048
:104CF000280B00200148FEF7D5B80000680B002003
:104D0000FEE700002DE9F0473D4D3E483E4F95F946
:104D1000003003240178221F012638785B1C4FF0F5
:104D200000094FF0020C052B17D2DFE803F0470310
:104D30001828310068884FF47A71884201D2401CEB
:104D4000688080B2884208D100F068FF2C4830307B
:104D5000C16C88472E70A5F80290BDE8F087022844
:104D600002D0012802D011E02A700FE0022902D1FE
:104D700085F800C00AE0032908D12C7006E002285B
:104D8000F2D0012802D10129F5D12E706E70E4E72E
:104D9000022802D0012802D00AE02A7008E0012986
:104DA00002D0022902D003E02E7001E085F800C095
:104DB00068780028D1D085F80190CEE7DFF84C80E4
:104DC000DFF84C90002458F82400FEF7D5FB59F882
:104DD0002400FEF7D1FB641C082CF4DB00F058FF24
:104DE00000F0D6FF01F054F801F0D4F8387801282B
:104DF00001D00328B1D12E70BDE8F047FCF776B89A
:104E000074000020F1060020F0060020D0060020EB
:104E100074070020FEE703B401984100009850EAAF
:104E2000C12018BF04204A0D18BF40F0010040F215
:104E3000FF72B2EB515F08BF40F00200012808BFCB
:104E4000052002B07047000010B52F499FED2C1BC4
:104E50002DED020B84B0059820F000408842DCBFA5
:104E600000209DED040B32DD2849884209D10498C9
:104E700040B94FF0010000F06FFC00F03DFC06B0BF
:104E800010BD05DB9DED040B00F02AFC06B010BD43
:104E900068469DED040B00F03BF810F0030011D0C4
:104EA000012818D09DED021B9DED000B02281AD0A1
:104EB00000F04AFA51EC100B81F0004106B041ECD1
:104EC000100B10BD9DED021B9DED000B012000F0AD
:104ED0006FFB06B010BD9DED021B9DED000B00F0B9
:104EE00033FA06B010BD012000F062FB51EC100B4C
:104EF00081F0004106B041EC100B10BD0000000035
:104F00000000000000000000FB21E93F0000F07FEE
:104F10002DE9F14F04462DED020B2DED088B8AB0E3
:104F20009FEDE70B80ED020B139EE74826F000454E
:104F300085420ADC9DED120B002084ED000B0AB0C7
:104F4000BDEC088B03B0BDE8F08FE0489FEDE0AB0F
:104F50009FEDE1BBA84247DDE14F9FEDE39B9FED55
:104F6000E48B9DED120B53EC1A2B51EC100B002E21
:104F70001CDDFBF7E3FA41EC100BBD4208D053EC0B
:104F80001B2B51EC100BFBF7D9FAC4E900010BE025
:104F900053EC192B51EC100BFBF7D0FA53EC182BF8
:104FA000FBF7CCFAC4E900010120C8E7FBF725FABA
:104FB00041EC100BBD4208D053EC1B2B51EC100BF5
:104FC000FBF71BFAC4E900010BE053EC192B51EC81
:104FD000100BFBF712FA53EC182BFBF70EFAC4E98F
:104FE00000014FF0FF30AAE7C348A84279DB9DEDEE
:104FF000120B51EC100B00F0F9FB41EC180B9FED7C
:10500000C00B53EC102BFBF79FFA9FEDBF1B53EC2B
:10501000112BFBF7F2F9FBF796FB0746FBF775FB45
:1050200041EC190B53EC1A2BFBF78EFA53EC182BAF
:10503000FBF787FA41EC180B53EC1B2B51EC190BC7
:10504000FBF782FADFF8C8A241EC100B4FEA1558C3
:105050000125FA4453EC102B51EC180BFBF76EFAB8
:10506000032DC4E900013DD0C1F30A5005EB451101
:10507000A8EB00001139814234DA0AEB051BB0EECF
:1050800048AA9BED000BF0EE68AA53EC102B51ECF4
:10509000190BFBF759FA41EC1B0B51EC1A0B53ECB3
:1050A0001B2BFBF74BFA41EC180B51EC1A0B53EC92
:1050B000182BFBF743FA53EC1B2BFBF73FFA9BED46
:1050C000020B41EC1A0B53EC102B51EC190BFBF7B4
:1050D0003BFA53EC1A2BFBF731FA41EC100B6D1C29
:1050E000B8E70EE0002EA8BF3846BFF628AF94ED13
:1050F000000B51EC100B81F00041C4E90001784233
:105100001DE7C6F3130040F4801EC6F30A50A0F258
:10511000F530471100F01F05C5F12000DDF848B05B
:1051200008900020069007900520EC467949002D54
:1051300007EB0002794408BF51F8221009D051F85A
:10514000223001EB8201AB404A68089922FA01F152
:105150001943A1FB0E26A1FB0B131A449A4234BF3C
:105160000123002303EB06080CEB8003D3E901A61F
:105170000E448E4234BF0121002192448A4411B171
:10518000924502D903E0924501D2012100E00021BD
:10519000C3E901A641444CF82010011EA0F1010012
:1051A000C4DC029800F10050850F0298DDE9036726
:1051B0008000DDF81480FBF7A8FA41EC1A0B3046AA
:1051C000FBF7B4FA9FED541B53EC112BFBF7BCF922
:1051D00041EC1B0B3846FBF7A9FA9FED511B53EC32
:1051E000112BFBF7B1F941EC180B4046FBF79EFA87
:1051F0009FED4D1B53EC112BFBF7A6F941EC190B5E
:1052000051EC180B53EC192BFBF7F7F853EC1B2B55
:10521000FBF7F3F853EC1A2BFBF7EFF8CDE9080195
:10522000002008909DED080B53EC1A2B51EC100B4D
:10523000FBF784F953EC1B2BFBF780F953EC182B8D
:10524000FBF77CF953EC192BFBF77BF99FED381B2F
:1052500053EC112BFBF778F99FED370B41EC180B52
:1052600053EC102B9DED080B51EC100BFBF76CF978
:1052700053EC182BFBF7C1F89FED310B41EC180BE9
:1052800053EC102B9DED080B51EC100BFBF75CF968
:1052900053EC182BFBF7B1F841EC100B139810F0FE
:1052A000004F06D06D4251EC100B81F0004141ECF3
:1052B000100B284684ED000B41E6000000000000C2
:1052C0000000000000000000FB21E93F7CD9024003
:1052D00000004054FB21F93F3163621A61B4D03DB4
:1052E000FB21F93F000000000000601A61B4D03DCE
:1052F0007370032E8A19A33BFB2139410000000083
:1053000083C8C96D305FE43F000000000000E03F4B
:10531000AA100000F80F0000000000000000103E7E
:10532000000000000000103C000000000000103AE7
:10533000182D4454FB21F93D3326A611460B113C90
:1053400000000054FB21F93D10B52DED040B2DEDAF
:10535000088B82B0B0EE419AF0EE619A0B9820F083
:1053600000449FED4BABB4F1795F11DA9DED0A0B70
:1053700051EC100BFBF7E7F9002801BFB0EE4A0A29
:10538000F0EE6A0A02B0BDEC088B04BF04B010BD99
:105390009DED0A0B53EC102B51EC100BFBF7D4F8DE
:1053A00041EC180B3C480621B0EE480AF0EE680AC2
:1053B000784400F081F853EC182B51EC100BFBF7FC
:1053C000C3F89DED0A0B41EC1B0B53EC192B51EC70
:1053D000100BFBF7B9F841EC190B53EC1B2B51ECFC
:1053E000180BFBF7B1F853EC192BFBF7A7F89FED5F
:1053F0002C0B41EC190B53EC102B51EC180BFBF759
:10540000A3F841EC100B2848844210DA53EC192B16
:1054100051EC100BFBF792F853EC1A2BFBF791F8B9
:1054200041EC100B02B0BDEC088B04B010BD1F485E
:10543000A042BCBF9FED1E1B8DED001B06DBA4F53B
:1054400000100190002000909DED001B51EC100B0E
:1054500053EC112BFBF772F89DED000B41EC180B90
:1054600053EC102B51EC1A0BFBF768F841EC1A0BBC
:1054700053EC192B51EC180BFBF760F853EC1A2B7B
:10548000FBF75FF841EC100BCCE7000000000000D8
:10549000000000000000F03F1C0D000000000000B4
:1054A000000000000000E03F3333D33F0000E93F3D
:1054B000000000000000D23F70B504462DED028BC5
:1054C0004D1E00EBC500B0EE408AF0EE608A90ED14
:1054D000000B35F0060017D053EC182B51EC100BD5
:1054E000FBF732F841EC100B6D1E04EBC50090ED9C
:1054F000001B51EC100B53EC112BFAF77EFF41EC23
:10550000100B35F00600E7D1022D36D0042D1CD04B
:10551000062D1CBFBDEC028B70BD53EC182B51EC5B
:10552000100BFBF711F894ED0A1B53EC112BFAF753
:1055300064FF53EC182BFBF707F894ED081B53ECB2
:10554000112BFAF75AFF41EC100B53EC182B51ECCE
:10555000100BFAF7F9FF94ED061B53EC112BFAF739
:105560004CFF53EC182BFAF7EFFF94ED040B53ECC0
:10557000102BFAF742FF41EC100B53EC182B51ECB7
:10558000100BFAF7E1FF94ED021B53EC112BFAF725
:1055900034FF53EC182BFAF7D7FF94ED001B53ECB4
:1055A000112BFAF72AFFBDEC028B41EC100B70BDFA
:1055B00031B504462DED040B2DED0A8BB0EE41BA4A
:1055C000F0EE61BA0B989DED0A0B20F00040B0F1AF
:1055D000795F0DDA51EC100BFFF71DFC042808BFB2
:1055E00000F09AF89DED0A0BBDEC0A8B05B030BDBA
:1055F00053EC102B51EC100BFAF7A6FF41EC180BF3
:105600009DED0A0B53EC182B51EC100BFAF79CFF95
:1056100041EC190B2C48B0EE480AF0EE680A05215F
:105620007844FFF749FF9FED2ACBB0EE40AAF0EE99
:1056300060AA9CB353EC1C2B51EC190BFAF784FFB6
:1056400041EC1C0B53EC1A2B51EC190BFAF77CFFB5
:105650009FED210B41EC190B53EC102B51EC1B0B64
:10566000FAF772FF53EC192BFAF768FF53EC182B7B
:10567000FAF76AFF53EC1B2BFAF760FF53EC1C2B75
:10568000FAF75CFF9DED0A1B53EC112BFAF759FF5B
:10569000BDEC0A8B05B041EC100B30BDFFE753ECBD
:1056A0001A2B51EC180BFAF74FFF53EC1C2BFAF79F
:1056B000A4FE53EC192BFAF747FF9DED0A1B53ECA0
:1056C000112BFAF79AFEE3E7A40B0000000000009C
:1056D000495555555555C5BF000000000000E03F35
:1056E00010B553EC102B51EC100BFAF786FE41EC81
:1056F000100B10BD000000009FED050B10B553EC22
:10570000102B51EC100BFAF791FF41EC100B10BD70
:1057100000000000000000009FED050B10B553ECE9
:10572000102B51EC100BFAF70FFF41EC100B10BDD2
:10573000000000000000001002E008C8121F08C1AD
:10574000002AFAD170477047002001E001C1121F02
:10575000002AFBD170470000014908607047000033
:105760002807002070B50446FFF7CCFA1C4991F9D0
:105770000010002932DD2046FBF7E0F9194D002426
:1057800055F8240008B1816B8847641C042CF7DBB2
:1057900000F07EFA042455F8240008B1816B884794
:1057A000641C082CF7DB00F0F3FA0F4D002455F8C9
:1057B000240008B1816B8847641C042CF7DB00F0DF
:1057C00067FB042455F8240008B1816B8847641CEA
:1057D000082CF7DBBDE8704000F0DCBB70BD0000BA
:1057E00074000020D00600207407002082B0CDE9AC
:1057F000000121F0004001909DED000B02B051EC42
:10580000100B704730B50468416800EE104A00EE96
:10581000901A30EE600A10EE102A8260038AB3F507
:10582000FA7F10D800EE104A00EE901AC1685B1C97
:1058300070EE600A00EE101A30EE800A10EE101AB8
:10584000C160038202E00021C1600182D0F816101D
:1058500000EE102A00EE901A20EE800A10EE103AA8
:10586000C0F82230D0F82E1000EE103A00EE901A58
:10587000F1EE600AB4EEE00AF1EE10FA04D200EEA6
:10588000101AB1EE400A0DE000EE103A00EE901A48
:10589000B4EEE00AF1EE10FA02DD00EE101A01E0BB
:1058A00000EE103A10EE105AC0F82250D0F81A103C
:1058B00000EE101AC16800EE901A20EE200A10EED9
:1058C000103AC0F82630D0F8321000EE103A00EE50
:1058D000901AF1EE600AB4EEE00AF1EE10FA04D28A
:1058E00000EE101AB1EE400A0DE000EE103A00EEA4
:1058F000901AB4EEE00AF1EE10FA02DD00EE101A92
:1059000001E000EE103A10EE104A00EE102AC0F846
:105910002640D0F8121000EE901AD0F81E1070EE4B
:10592000600A00EE101A20EE800A10EE103AC0F85D
:105930002A30D0F8361000EE103A00EE901AF1EE50
:10594000600AB4EEE00AF1EE10FA04D200EE101A8A
:10595000B1EE400A0DE000EE103A00EE901AB4EEFF
:10596000E00AF1EE10FA02DD00EE101A01E000EE9E
:10597000103A00EE904A10EE101A00EE105AC0F8DD
:105980002A10C0F8122070EE200A00EE101A30EE35
:10599000800A10EE102AC0F83A20D0F83E1000EE2F
:1059A000102A00EE901AF1EE600AB4EEE00AF1EE71
:1059B00010FA04D200EE101AB1EE400A0DE000EE2B
:1059C000102A00EE901AB4EEE00AF1EE10FA02DDB1
:1059D00000EE101A01E000EE102A10EE101AC0F8C6
:1059E0003A1030BD70470000FCF72AFAFEF718FDA8
:1059F0002620FCF77FFA2720FCF77CFA4720FCF7EB
:105A000079FA0C20FCF776FA1020FCF773FA3920AB
:105A1000FCF770FA1420FCF76DFA4020FCF76AFAE4
:105A20002520FCF767FA3A20FCF764FA3720FCF7E8
:105A300061FA3620FCF75EFAFDF7C4FEFDF7ACFE16
:105A4000FDF752FEFDF77CFEFDF772FFFEF778F9D9
:105A5000FEF772F8FDF7BEFFFEF79EF9FEF7C2F9FA
:105A6000FEF7E6F9FEF794F8FDF790FFFDF7FEFF6D
:105A7000FDF73EFFFEF7B8F8FEF716F9FEF73AF924
:105A8000FDF798FDFDF752FDFEF7FAF95C4D5D4E0E
:105A9000002455F82400FDF76FFD56F82400FDF7AB
:105AA0006BFD641C082CF4DBFDF7ECFC564C01226A
:105AB00004212046FCF782F9012208212046FCF748
:105AC0007DF9012210212046FCF778F901222021DE
:105AD0002046FCF773F94D48FCF7FAFE4C48FCF7FA
