:09061B000116000117000118008E
:10066200EF1F70011E144E600F7D06EDD394004003
:08067200EF7CFADCFE1D80F3B1
:01067A00225D
:100469007594FFE4F593C280D283F589758CF8758C
:100479008AF0D2A9D2AFD28CFF7EC2120345C2AF95
:10048900E4F513308307E4FBFD7FFA80057BFAE48A
:10049900FDFF1204FF0513E513C3940B40E57F64C8
:0904A9007E00120662D2AF80D57C
:03000B0002058764
:04058700C0E0C0D040
:10058B00E51725E0F517E51625E0F516E517700ECE
:10059B00E5187008A283B333421680021518E516CE
:1005AB0030E00F759931750D027517FF75160075D3
:0205BB00181412
:0505BD00D0D0D0E032B7
:0E062400C103C102C100C101010F00010E009F
:100345008E148F15E5157004E51464846053E51566
:100355007802C333CE33CED8F9FBAA06E4F9F8FF09
:100365007EC07DA8FC120543EFF404F511AE14AF71
:1003750015AB07AA06E4F9F8FF7EC07DA8FC1205B7
:1003850043E47B04FAF9F8120543C3E49FFFE49EB6
:10039500FE74019DFDE49CFC78081201D78F108046
:1003A500067511F47510FFD2AF759850D2AC438E17
:0803B500158511D78510D62231
:1005EF008B198A1A891BAB19AA1AA91B1201AC60A5
:1005FF001A2003FDD203AB19051BE51BAA1A7002C3
:0C060F00051A14F91201ACF59980DB22E9
:0605C2008B1C8A1D891E3E
:1005C800E4FFEFD3950F501B74002FF8E2FEAB1C2D
:1005D800051EE51EAA1D7002051D14F9EE1201C5BF
:0605E8000F80DFE4F50FB7
:0105EE0022EA
:030023000204B222
:0704B200C0E0C0D030983813
:1004B900859912C298E51224D0601B14601D14603E
:1004C9001F14602124D1600924F0701C750C01806F
:1004D90017750C028012750D00800D750D018008CD
:0804E900750D028003750D037F
:0A04F100309902C299D0D0D0E03259
:10063F00300202050EE50ED394084016E4F50EC203
:10064F000274FF250FF8E260077400250FF8E4F23B
:03065F00D20022A4
:0F000E00020001000200020202000101000101D4
:0C063200010C01010D000108000109008D
:040003007F03DFFE9A
:0100070022D6
:0404FB00E4FBFDFF22
:0204FF00A9074B
:100501007C037A08C281AF041CEF6035BC0202AEE5
:1005110005BC0102AE01EC7002AE03AF021AEF603E
:100521001CEE30E70AD281120003C281008008D29A
:100531008100C281120003EE25E0FE80DE7A088090
:01054100C5F4
:010542002296
:10002600E4F50AE4F50BE50875F00384E5F06401F0
:100036007045E50875F0038475F005A4240EF58275
:10004600E43400F583E582250AF582E43583F583F9
:10005600E493FFE50B75F00384E5F0B50712E50CB4
:10006600B402057BFA0200EEE4FBFD7FFA0201789A
:10007600E4FBFDFF020178E50875F00384E5F07006
:100086007AE50875F00384FF75F005A4240EF58261
:10009600E43400F583E582250AF582E43583F583A9
:1000A600E493FEE50B75F00384ADF0ED6E6032EF80
:1000B600D39400E50875F00340058414FF8004849A
:1000C6002402FFEF75F005A4240EF582E43400F552
:1000D60083E582250AF582E43583F583E493B50545
:1000E60014E50CB402087B64E4FDFF020178E4FB2E
:1000F600FD7F64807DE4FBFDFF8077E50875F003F6
:1001060084FF75F005A4240EF582E43400F583E53A
:1001160082250AF582E43583F583E493FEE50B75C3
:10012600F00384ADF0ED6E6032EFC39402E508751E
:10013600F00350058404FF80048424FEFFEF75F06D
:1001460005A4240EF582E43400F583E582250AF53C
:1001560082E43583F583E493B50513E50CB4020711
:100166007B64E4FDFF800BE4FBFD7F648004E4FB1D
:10017600FDFF1204FF050BE50BC3941950030200A3
:100186002C050AE50AC3940550030200290509E572
:1001960009C39401400FE4F5090508E508D394085E
:0501A6004003E4F50830
:0101AB002231
:10041F00E4F522E4F521E50CB402077BFAE4FDFFD5
:10042F008005E4FBFD7FFA1204FF0521E521C3944B
:10043F00FD40E37FF97E00120662E4F5211204FB12
:10044F000521E521C394FD40F47FF97E0012066279
:09045F000522E522C3940540BA10
:010468002271
:1003BD00E4F51F1204FB051FE51FC3942040F475DF
:1003CD001F20E50CB402077BFAE4FDFF8005E4FB7A
:1003DD00FD7FFA1204FF051FE51FC3944340E3752B
:1003ED001F431204FB051FE51FC3946140F4120067
:1003FD0026751FDEE50CB402077BFAE4FDFF8005D0
:10040D00E4FBFD7FFA1204FF051FE51FC394FD40B9
:01041D00E3FB
:01041E0022BB
:030000000202B940
:0C02B900787FE4F6D8FD75812202030076
:1002C500020469E493A3F8E493A34003F68001F2E2
:1002D50008DFF48029E493A3F85407240CC8C3333A
:1002E500C4540F4420C8834004F456800146F6DF09
:1002F500E4800B010204081020408090061BE47E78
:10030500019360BCA3FF543F30E509541FFEE493FD
:10031500A360010ECF54C025E060A840B8E493A3C4
:10032500FAE493A3F8E493A3C8C582C8CAC583CAEF
:10033500F0A3C8C582C8CAC583CADFE9DEE780BEA7
:01063E0000BB
:1001AC00BB010689828A83E0225002E722BBFE0251
:0901BC00E32289828A83E4932284
:1001C500BB010689828A83F0225002F722BBFE0119
:0201D500F32213
:10054300C2D5E830E70FB2D5E4C39BFBE49AFAE4E3
:1005530099F9E498F8EC30E717B2D512057912024D
:1005630027E4C39BFBE49AFAE499F9E498F880033F
:1005730012022730D50DE4C39FFFE49EFEE49DFDE8
:04058300E49CFC22D6
:1001D700E86010ECA2E713FCED13FDEE13FEEF133E
:0401E700FFD8F0222B
:1001EB0075F008758200EF2FFFEE33FECD33CDCCCB
:1001FB0033CCC58233C5829BED9AEC99E58298404E
:10020B000CF582EE9BFEED9AFDEC99FC0FD5F0D62A
:10021B00E4CEFBE4CDFAE4CCF9A88222B800C1B954
:10022B000059BA002DEC8BF084CFCECDFCE5F0CB92
:10023B00F97818EF2FFFEE33FEED33FDEC33FCEBCB
:10024B0033FB10D703994004EB99FB0FD8E5E4F986
:10025B00FA227818EF2FFFEE33FEED33FDEC33FC73
:10026B00C933C910D7059BE99A4007EC9BFCE99A67
:10027B00F90FD8E0E4C9FAE4CCFB2275F010EF2FAC
:10028B00FFEE33FEED33FDCC33CCC833C810D707AC
:10029B009BEC9AE899400AED9BFDEC9AFCE899F8E7
:0E02AB000FD5F0DAE4CDFBE4CCFAE4C8F9227A
:00000001FF
