:0300000002028C6D
:0C028C00787FE4F6D8FD7581200202D3D3
:0F053700020001000200020202000101000101A6
:06052200010800010900C0
:04001C007F03DFFE81
:0100200022BD
:10000300EF1F70011E144E600F7D06EDD394004068
:08001300EF7CFADCFE1D80F316
:01001B0022C2
:050390007BFAE4FDFF13
:02039500A907B6
:100397007C037A08C282AF041CEF6035BC0202AE50
:1003A70005BC0102AE01EC7002AE03AF021AEF60AA
:1003B7001CEE30E70AD28212001CC282008008D2EB
:1003C7008200C28212001CEE25E0FE80DE7A0880E1
:0103D700C560
:0103D8002202
:10002600E4F50AE4F50BE50875F00384E5F06401F0
:100036007037E50875F0038475F005A42437F5825A
:10004600E43405F583E582250AF582E43583F583F4
:10005600E493FFE50B75F00384E5F0B507067BFA3C
:10006600E4020149E4FB020149E50875F00384E571
:10007600F07069E50875F00384FF75F005A4243770
:10008600F582E43405F583E582250AF582E43583B5
:10009600F583E493FEE50B75F00384ADF0ED6E6039
:1000A60032EFD39400E50875F00340058414FF8011
:1000B60004842402FFEF75F005A42437F582E434A6
:1000C60005F583E582250AF582E43583F583E49315
:1000D600B505057B64E4806BE4FB8067E50875F095
:1000E6000384FF75F005A42437F582E43405F5830F
:1000F600E582250AF582E43583F583E493FEE50B74
:1001060075F00384ADF0ED6E6032EFC39402E5083E
:1001160075F00350058404FF80048424FEFFEF7508
:10012600F005A42437F582E43405F583E582250A33
:10013600F582E43583F583E493B505057B64E480B5
:1001460002E4FBFDFF120395050BE50BC394195062
:100156000302002C050AE50AC39405500302002990
:100166000509E509C39401400FE4F5090508E5080A
:08017600D394084003E4F508EE
:01017E00225E
:1003D900E4F519E4FBFDFF1203950519E519C3942A
:1003E9002040F07519201203900519E519C39443AB
:1003F90040F4751943E4FBFDFF1203950519E5194E
:10040900C3946140F01200267519DE120390051994
:07041900E519C394FD40F456
:0104200022B9
:0C04BE007594FFE4F593FF7EC212031852
:1004CA00E4F5167B7DE4FDFF1203950516E516C3D8
:0B04DA0094FD40EF7F327E0012000313
:0204E50080E3B2
:0E052800C103C102C100C101010D00010C00A0
:100318008E178F18E5187004E51764846053E51884
:100328007802C333CE33CED8F9FBAA06E4F9F8FF36
:100338007EC07DA8FC120421EFF404F50FAE17AFC0
:1003480018AB07AA06E4F9F8FF7EC07DA8FC1204E2
:1003580021E47B04FAF9F8120421C3E49FFFE49E28
:10036800FE74019DFDE49CFC78081201AA8F0E80A2
:1003780006750FF4750EFFD2AF759850D2AC438E48
:0803880015850FD7850ED62262
:100492008B108A118912AB10AA11A91212017F6066
:1004A2001A2003FDD203AB100512E512AA11700245
:0C04B200051114F912017FF59980DB227E
:060465008B138A148915B7
:10046B00E4FFEFD3950D501B74002FF8E2FEAB1396
:10047B000515E515AA147002051414F9EE1201986E
:06048B000F80DFE4F50D17
:010491002248
:0300230002050AC9
:10050A00C0D075D000C007309802AF99309904C2A4
:08051A0003C299D007D0D032D2
:1004E700300202050CE50CD394084016E4F50CC263
:1004F7000274FF250DF8E260077400250DF8E4F299
:03050700D20022FD
:100298000204BEE493A3F8E493A34003F68001F2BA
:1002A80008DFF48029E493A3F85407240CC8C33367
:1002B800C4540F4420C8834004F456800146F6DF36
:1002C800E4800B0102040810204080900522E47E9F
:1002D800019360BCA3FF543F30E509541FFEE4932B
:1002E800A360010ECF54C025E060A840B8E493A3F2
:1002F800FAE493A3F8E493A3C8C582C8CAC583CA1D
:10030800F0A3C8C582C8CAC583CADFE9DEE780BED4
:0105360000C4
:10017F00BB010689828A83E0225002E722BBFE027E
:09018F00E32289828A83E49322B1
:10019800BB010689828A83F0225002F722BBFE0146
:0201A800F32240
:10042100C2D5E830E70FB2D5E4C39BFBE49AFAE406
:1004310099F9E498F8EC30E717B2D5120457120194
:10044100FAE4C39BFBE49AFAE499F9E498F880038F
:100451001201FA30D50DE4C39FFFE49EFEE49DFD39
:04046100E49CFC22F9
:1001AA00E86010ECA2E713FCED13FDEE13FEEF136B
:0401BA00FFD8F02258
:1001BE0075F008758200EF2FFFEE33FECD33CDCCF8
:1001CE0033CCC58233C5829BED9AEC99E58298407B
:1001DE000CF582EE9BFEED9AFDEC99FC0FD5F0D658
:1001EE00E4CEFBE4CDFAE4CCF9A88222B800C1B982
:1001FE000059BA002DEC8BF084CFCECDFCE5F0CBC0
:10020E00F97818EF2FFFEE33FEED33FDEC33FCEBF8
:10021E0033FB10D703994004EB99FB0FD8E5E4F9B3
:10022E00FA227818EF2FFFEE33FEED33FDEC33FCA0
:10023E00C933C910D7059BE99A4007EC9BFCE99A94
:10024E00F90FD8E0E4C9FAE4CCFB2275F010EF2FD9
:10025E00FFEE33FEED33FDCC33CCC833C810D707D9
:10026E009BEC9AE899400AED9BFDEC9AFCE899F814
:0E027E000FD5F0DAE4CDFBE4CCFAE4C8F922A7
:00000001FF
