:09064E00011800011900011A0055
:0E069500000075120F75135AD513FDD512FA19
:0A06A300EF1F70011E144E70E922D3
:100345007594FFE4F593C280D297F589758CF8759D
:100355008AF0D2A9D2AFD28CFF7EC21203C1C2AF3E
:10036500E50D14601F14602114604024037042E4FD
:10037500F50FE4FBFDFF120532050FE50FC394FDF4
:1003850040F0802D1204398028E4F50FE50CB40205
:10039500077BFAE4FDFF8005E4FBFD7FFA120532D9
:1003A500050FE50FC394FD40E3800612049BE4F5B9
:0C03B5000D7F327E00120695D2AF80A2B0
:03000B000205BA31
:0405BA00C0E0C0D00D
:1005BE00E51925E0F519E51825E0F518E519700E91
:1005CE00E51A7008A297B33342188002151AE5187F
:1005DE0030E00F759931750D027519FF751800759C
:0205EE001A14DD
:0505F000D0D0D0E03284
:0E065700C103C102C100C10101150001140060
:1003C1008E108F11E5117004E51064846053E511FE
:1003D1007802C333CE33CED8F9FBAA06E4F9F8FF8D
:1003E1007EC07DA8FC120576EFF404F517AE10AFC0
:1003F10011AB07AA06E4F9F8FF7EC07DA8FC12053F
:1004010076E47B04FAF9F8120576C3E49FFFE49ED3
:10041100FE74019DFDE49CFC78081201D78F1680C3
:10042100067517F47516FFD2AF759850D2AC438E8E
:08043100158517D78516D622A8
:100622008B1B8A1C891DAB1BAA1CA91D1201AC6065
:100632001A2003FDD203AB1B051DE51DAA1C700287
:0C064200051C14F91201ACF59980DB22B4
:0605F5008B218A228923FC
:1005FB00E4FFEFD39515501B74002FF8E2FEAB21EF
:10060B000523E523AA227002052214F9EE1201C577
:06061B000F80DFE4F5157D
:0106210022B6
:030023000204E5EF
:0704E500C0E0C0D0309838E0
:1004EC0085990EC298E50E24D0601B14601D146013
:1004FC001F14602124D1600924F0701C750C01803C
:10050C0017750C028012750D00800D750D01800899
:08051C00750D028003750D034B
:0A052400309902C299D0D0D0E03225
:100672003002020514E514D394084016E4F514C2BE
:100682000274FF2515F8E2600774002515F8E4F2FC
:03069200D2002271
:0F000E00020001000200020202000101000101D4
:0C066500010C02010D0101080001090058
:040003007F03DFFE9A
:0100070022D6
:04052E00E4FBFDFFEE
:02053200A90717
:100534007C037A08C296AF041CEF6035BC0202AE9D
:1005440005BC0102AE01EC7002AE03AF021AEF600B
:100554001CEE30E70AD296120003C296008008D23D
:100564009600C296120003EE25E0FE80DE7A088033
:01057400C5C1
:010575002263
:10002600E4F50AE4F50BE50875F00384E5F06401F0
:100036007045E50875F0038475F005A4240EF58275
:10004600E43400F583E582250AF582E43583F583F9
:10005600E493FFE50B75F00384E5F0B50712E50CB4
:10006600B402057BFA0200EEE4FBFD7FFA0201789A
:10007600E4FBFDFF020178E50875F00384E5F07006
:100086007AE50875F00384FF75F005A4240EF58261
:10009600E43400F583E582250AF582E43583F583A9
:1000A600E493FEE50B75F00384ADF0ED6E6032EF80
:1000B600D39400E50875F00340058414FF8004849A
:1000C6002402FFEF75F005A4240EF582E43400F552
:1000D60083E582250AF582E43583F583E493B50545
:1000E60014E50CB402087B64E4FDFF020178E4FB2E
:1000F600FD7F64807DE4FBFDFF8077E50875F003F6
:1001060084FF75F005A4240EF582E43400F583E53A
:1001160082250AF582E43583F583E493FEE50B75C3
:10012600F00384ADF0ED6E6032EFC39402E508751E
:10013600F00350058404FF80048424FEFFEF75F06D
:1001460005A4240EF582E43400F583E582250AF53C
:1001560082E43583F583E493B50513E50CB4020711
:100166007B64E4FDFF800BE4FBFD7F648004E4FB1D
:10017600FDFF120532050BE50BC39419500302006F
:100186002C050AE50AC3940550030200290509E572
:1001960009C39401400FE4F5090508E508D394085E
:0501A6004003E4F50830
:0101AB002231
:10049B00E4F511E4F510E50CB402077BFAE4FDFF7B
:1004AB008005E4FBFD7FFA1205320510E510C394BD
:1004BB00FD40E37FF97E00120695E4F51012052E40
:1004CB000510E510C394FD40F47FF97E00120695EC
:0904DB000511E511C3940540BAB6
:0104E40022F5
:10043900E4F51012052E0510E510C3942040F4755B
:100449001020E50CB402077BFAE4FDFF8005E4FB0C
:10045900FD7FFA1205320510E510C3944340E37598
:10046900104312052E0510E510C3946140F41200E3
:10047900267510DEE50CB402077BFAE4FDFF800562
:10048900E4FBFD7FFA1205320510E510C394FD4027
:01049900E37F
:01049A00223F
:030000000202B940
:0C02B900787FE4F6D8FD75812302030075
:1002C500020345E493A3F8E493A34003F68001F207
:1002D50008DFF48029E493A3F85407240CC8C3333A
:1002E500C4540F4420C8834004F456800146F6DF09
:1002F500E4800B010204081020408090064EE47E45
:10030500019360BCA3FF543F30E509541FFEE493FD
:10031500A360010ECF54C025E060A840B8E493A3C4
:10032500FAE493A3F8E493A3C8C582C8CAC583CAEF
:10033500F0A3C8C582C8CAC583CADFE9DEE780BEA7
:010671000088
:1001AC00BB010689828A83E0225002E722BBFE0251
:0901BC00E32289828A83E4932284
:1001C500BB010689828A83F0225002F722BBFE0119
:0201D500F32213
:10057600C2D5E830E70FB2D5E4C39BFBE49AFAE4B0
:1005860099F9E498F8EC30E717B2D51205AC1202E7
:1005960027E4C39BFBE49AFAE499F9E498F880030C
:1005A60012022730D50DE4C39FFFE49EFEE49DFDB5
:0405B600E49CFC22A3
:1001D700E86010ECA2E713FCED13FDEE13FEEF133E
:0401E700FFD8F0222B
:1001EB0075F008758200EF2FFFEE33FECD33CDCCCB
:1001FB0033CCC58233C5829BED9AEC99E58298404E
:10020B000CF582EE9BFEED9AFDEC99FC0FD5F0D62A
:10021B00E4CEFBE4CDFAE4CCF9A88222B800C1B954
:10022B000059BA002DEC8BF084CFCECDFCE5F0CB92
:10023B00F97818EF2FFFEE33FEED33FDEC33FCEBCB
:10024B0033FB10D703994004EB99FB0FD8E5E4F986
:10025B00FA227818EF2FFFEE33FEED33FDEC33FC73
:10026B00C933C910D7059BE99A4007EC9BFCE99A67
:10027B00F90FD8E0E4C9FAE4CCFB2275F010EF2FAC
:10028B00FFEE33FEED33FDCC33CCC833C810D707AC
:10029B009BEC9AE899400AED9BFDEC9AFCE899F8E7
:0E02AB000FD5F0DAE4CDFBE4CCFAE4C8F9227A
:00000001FF
