:0906F300011C00011D00011E00A4
:0E073D00000075150F75165AD516FDD515FA64
:0A074B00EF1F70011E144E70E9222A
:100370007594FFE4F593C280D297F589758CF87572
:100380008AF0D2A9D2AFD28CFF7EC2120504759931
:1003900041C2AFE50D14601F14602114604D2403A9
:1003A000704FE4F512E4FBFDFF1205D70512E512CC
:1003B000C394FD40F0803A1204888035E4F512E5DC
:1003C0000CB40308AB10AD0FAF0E8011E50CB402F6
:1003D000077BFAE4FDFF8005E4FBFD7FFA1205D7F9
:1003E0000512E512C394FD40D6800612057CE4F5A3
:0C03F0000D7F327E0012073DD2AF8095D9
:03000B0002065F8B
:04065F00C0E0C0D067
:10066300E51D25E0F51DE51C25E0F51CE51D700ED7
:10067300E51E7008A297B333421C8002151EE51CC9
:1006830030E00F759931750D02751DFF751C0075EE
:020693001E1433
:05069500D0D0D0E032DE
:1006FC00C103C102C100C101011800011700011A98
:01070C0000EC
:100504008E138F14E5147004E51364846053E514AA
:100514007802C333CE33CED8F9FBAA06E4F9F8FF48
:100524007EC07DA8FC12061BEFF404F51BAE13AFCE
:1005340014AB07AA06E4F9F8FF7EC07DA8FC1206F6
:100544001BE47B04FAF9F812061BC3E49FFFE49E44
:10055400FE74019DFDE49CFC78081201DA8F198079
:1005640006751BF47519FFD2AF759850D2AC438E43
:0805740015851BD78519D6225D
:1006C7008B218A228923AB21AA22A9231201AF6099
:1006D7001A2003FDD203AB210523E523AA227002CA
:0C06E700052214F91201AFF59980DB2206
:06069A008B248A2589264D
:1006A000E4FFEFD39518501B74002FF8E2FEAB2443
:1006B0000526E526AA257002052514F9EE1201C8C3
:0606C0000F80DFE4F518D5
:0106C6002211
:030023000202E2F4
:1002E200C0E0C083C082C0D075D000C00030986E1C
:1002F200859911C298E51A6013240DF8A699051A7A
:10030200E51AD394034057751A00802EE5111201A5
:10031200EE034130034631034B32035033035D4158
:10032200035543033762033C6503327200000360E6
:10033200750C018029750C028024750C03801F75D1
:100342000D00801A750D018015750D028010750D56
:0E03520003800B751A0175994380037599415C
:10036000309902C299D000D0D0D082D083D0E03270
:10071A003002020517E517D394084016E4F517C20C
:10072A000274FF2518F8E2600774002518F8E4F24D
:03073A00D20022C8
:0F000E00020001000200020202000101000101D4
:0C070D00010C02010D01010800010900AF
:040003007F03DFFE9A
:0100070022D6
:0405D300E4FBFDFF49
:0205D700A90772
:1005D9007C037A08C296AF041CEF6035BC0202AEF8
:1005E90005BC0102AE01EC7002AE03AF021AEF6066
:1005F9001CEE30E70AD296120003C296008008D298
:100609009600C296120003EE25E0FE80DE7A08808D
:01061900C51B
:01061A0022BD
:10002600E4F50AE4F50BE50875F00384E5F06401F0
:100036007042E50875F0038475F005A4240EF58278
:10004600E43400F583E582250AF582E43583F583F9
:10005600E493FFE50B75F00384E5F06F7013E50C90
:10006600B4030302015CE50CB40203020169020158
:1000760070020177E50875F00384E5F07073E50812
:1000860075F00384FF75F005A4240EF582E43400B0
:10009600F583E582250AF582E43583F583E493FE4C
:1000A600E50B75F00384ADF0ED6E6032EFD394008E
:1000B600E50875F00340058414FF8004842402FFDC
:1000C600EF75F005A4240EF582E43400F583E5828D
:1000D600250AF582E43583F583E4936D7010E50C0B
:1000E600B403028071E50CB402028077807C0201C1
:1000F60077E50875F00384FF75F005A4240EF582F4
:10010600E43400F583E582250AF582E43583F58338
:10011600E493FEE50B75F00384ADF0ED6E6032EF0F
:10012600C39402E50875F00350058404FF80048437
:1001360024FEFFEF75F005A4240EF582E43400F5E5
:1001460083E582250AF582E43583F583E4936D70B1
:1001560020E50CB40308AB10AD0FAF0E8017E50C0D
:10016600B402077BFAE4FDFF800BE4FBFD7FFA8017
:1001760004E4FBFDFF1205D7050BE50BC3941950EC
:100186000302002C050AE50AC39405500302002960
:100196000509E509C39401400FE4F5090508E508DA
:0801A600D394084003E4F508BE
:0101AE00222E
:10057C00E4F514E4F513E50CB40308AB10AD0FAFC0
:10058C000E8011E50CB402077BFAE4FDFF8005E454
:10059C00FBFD7FFA1205D70513E513C394FD40D676
:1005AC007FF97E0012073DE4F5131205D30513E520
:1005BC0013C394FD40F47FF97E0012073D0514E54A
:0605CC0014C3940540ADCC
:0105D2002206
:10048800E4F5131205D30513E513C3942040F4755E
:100498001320E50CB40308AB10AD0FAF0E8011E5C7
:1004A8000CB402077BFAE4FDFF8005E4FBFD7FFA4C
:1004B8001205D70513E513C3944340D675134312A9
:1004C80005D30513E513C3946140F4120026751390
:1004D800DEE50CB40308AB10AD0FAF0E8011E50CD0
:1004E800B402077BFAE4FDFF8005E4FBFD7FFA1206
:0B04F80005D70513E513C394FD40D6A3
:0105030022D5
:030000000203FCFC
:0C03FC00787FE4F6D8FD758126020443EA
:10040800020370E493A3F8E493A34003F68001F297
:1004180008DFF48029E493A3F85407240CC8C333F5
:10042800C4540F4420C8834004F456800146F6DFC4
:10043800E4800B01020408102040809006F3E47E5B
:10044800019360BCA3FF543F30E509541FFEE493B9
:10045800A360010ECF54C025E060A840B8E493A380
:10046800FAE493A3F8E493A3C8C582C8CAC583CAAB
:10047800F0A3C8C582C8CAC583CADFE9DEE780BE63
:0107190000DF
:1001AF00BB010689828A83E0225002E722BBFE024E
:0901BF00E32289828A83E4932281
:1001C800BB010689828A83F0225002F722BBFE0116
:0201D800F32210
:10061B00C2D5E830E70FB2D5E4C39BFBE49AFAE40A
:10062B0099F9E498F8EC30E717B2D512065112029B
:10063B0050E4C39BFBE49AFAE499F9E498F880033D
:10064B0012025030D50DE4C39FFFE49EFEE49DFDE6
:04065B00E49CFC22FD
:1001DA00E86010ECA2E713FCED13FDEE13FEEF133B
:0401EA00FFD8F02228
:1001EE00D083D082F8E4937012740193700DA3A3A0
:1001FE0093F8740193F5828883E4737402936860B4
:06020E00EFA3A3A380DFB3
:1002140075F008758200EF2FFFEE33FECD33CDCCA1
:1002240033CCC58233C5829BED9AEC99E582984024
:100234000CF582EE9BFEED9AFDEC99FC0FD5F0D601
:10024400E4CEFBE4CDFAE4CCF9A88222B800C1B92B
:100254000059BA002DEC8BF084CFCECDFCE5F0CB69
:10026400F97818EF2FFFEE33FEED33FDEC33FCEBA2
:1002740033FB10D703994004EB99FB0FD8E5E4F95D
:10028400FA227818EF2FFFEE33FEED33FDEC33FC4A
:10029400C933C910D7059BE99A4007EC9BFCE99A3E
:1002A400F90FD8E0E4C9FAE4CCFB2275F010EF2F83
:1002B400FFEE33FEED33FDCC33CCC833C810D70783
:1002C4009BEC9AE899400AED9BFDEC9AFCE899F8BE
:0E02D4000FD5F0DAE4CDFBE4CCFAE4C8F92251
:00000001FF
