:0906580001160001170001180051
:10069F00EF1F70011E144E600F7D06EDD3940040C6
:0806AF00EF7CFADCFE1D80F374
:0106B7002220
:100345007594FFE4F593C280D281F589758CF875B3
:100355008AF0D2A9D2AFD28CFF7EC21203CBC2AF34
:10036500E50D14601F14602114604A2403704CE4E9
:10037500F513E4FBFDFF12053C0513E513C394FDDE
:1003850040F080371204438032E4F513E50CB402E3
:10039500077BFAE4FDFF8005E4FBFD7FFA12053CCF
:1003A5000513E513C394FD40E37FF47E0112069F18
:1003B500750D0180061204A5E4F50D7F327E00124D
:0603C500069FD2AF8098F4
:03000B000205C427
:0405C400C0E0C0D003
:1005C800E51725E0F517E51625E0F516E517700E91
:1005D800E5187008A281B333421680021518E51693
:1005E80030E00F759931750D027517FF7516007596
:0205F8001814D5
:0505FA00D0D0D0E0327A
:0E066100C103C102C100C101010F00010E0062
:1003CB008E148F15E5157004E51464846053E515E0
:1003DB007802C333CE33CED8F9FBAA06E4F9F8FF83
:1003EB007EC07DA8FC120580EFF404F511AE14AFAE
:1003FB0015AB07AA06E4F9F8FF7EC07DA8FC120531
:10040B0080E47B04FAF9F8120580C3E49FFFE49EB5
:10041B00FE74019DFDE49CFC78081201D78F1080BF
:10042B00067511F47510FFD2AF759850D2AC438E90
:08043B00158511D78510D622AA
:10062C008B198A1A891BAB19AA1AA91B1201AC6067
:10063C001A2003FDD203AB19051BE51BAA1A700285
:0C064C00051A14F91201ACF59980DB22AC
:0605FF008B1C8A1D891E01
:10060500E4FFEFD3950F501B74002FF8E2FEAB1CEF
:10061500051EE51EAA1D7002051D14F9EE1201C581
:060625000F80DFE4F50F79
:01062B0022AC
:030023000204EFE5
:0704EF00C0E0C0D0309838D6
:1004F600859912C298E51224D0601B14601D146001
:100506001F14602124D1600924F0701C750C018031
:1005160017750C028012750D00800D750D0180088F
:08052600750D028003750D0341
:0A052E00309902C299D0D0D0E0321B
:10067C00300202050EE50ED394084016E4F50EC2C6
:10068C000274FF250FF8E260077400250FF8E4F2FE
:03069C00D2002267
:0F000E00020001000200020202000101000101D4
:0C066F00010C01010D020108000109004E
:040003007F03DFFE9A
:0100070022D6
:04053800E4FBFDFFE4
:02053C00A9070D
:10053E007C037A08C282AF041CEF6035BC0202AEA7
:10054E0005BC0102AE01EC7002AE03AF021AEF6001
:10055E001CEE30E70AD282120003C282008008D25B
:10056E008200C282120003EE25E0FE80DE7A088051
:01057E00C5B7
:01057F002259
:10002600E4F50AE4F50BE50875F00384E5F06401F0
:100036007045E50875F0038475F005A4240EF58275
:10004600E43400F583E582250AF582E43583F583F9
:10005600E493FFE50B75F00384E5F0B50712E50CB4
:10006600B402057BFA0200EEE4FBFD7FFA0201789A
:10007600E4FBFDFF020178E50875F00384E5F07006
:100086007AE50875F00384FF75F005A4240EF58261
:10009600E43400F583E582250AF582E43583F583A9
:1000A600E493FEE50B75F00384ADF0ED6E6032EF80
:1000B600D39400E50875F00340058414FF8004849A
:1000C6002402FFEF75F005A4240EF582E43400F552
:1000D60083E582250AF582E43583F583E493B50545
:1000E60014E50CB402087B64E4FDFF020178E4FB2E
:1000F600FD7F64807DE4FBFDFF8077E50875F003F6
:1001060084FF75F005A4240EF582E43400F583E53A
:1001160082250AF582E43583F583E493FEE50B75C3
:10012600F00384ADF0ED6E6032EFC39402E508751E
:10013600F00350058404FF80048424FEFFEF75F06D
:1001460005A4240EF582E43400F583E582250AF53C
:1001560082E43583F583E493B50513E50CB4020711
:100166007B64E4FDFF800BE4FBFD7F648004E4FB1D
:10017600FDFF12053C050BE50BC394195003020065
:100186002C050AE50AC3940550030200290509E572
:1001960009C39401400FE4F5090508E508D394085E
:0501A6004003E4F50830
:0101AB002231
:1004A500E4F515E4F514E50CB402077BFAE4FDFF69
:1004B5008005E4FBFD7FFA12053C0514E514C394A1
:1004C500FD40E37FF97E0012069FE4F5141205381E
:1004D5000514E514C394FD40F47FF97E0012069FD0
:0904E5000515E515C3940540BAA4
:0104EE0022EB
:10044300E4F5141205380514E514C3942040F4753B
:100453001420E50CB402077BFAE4FDFF8005E4FBFE
:10046300FD7FFA12053C0514E514C3944340E3757C
:1004730014431205380514E514C3946140F41200C3
:10048300267514DEE50CB402077BFAE4FDFF800554
:10049300E4FBFD7FFA12053C0514E514C394FD400B
:0104A300E375
:0104A4002235
:030000000202B940
:0C02B900787FE4F6D8FD75812002030078
:1002C500020345E493A3F8E493A34003F68001F207
:1002D50008DFF48029E493A3F85407240CC8C3333A
:1002E500C4540F4420C8834004F456800146F6DF09
:1002F500E4800B0102040810204080900658E47E3B
:10030500019360BCA3FF543F30E509541FFEE493FD
:10031500A360010ECF54C025E060A840B8E493A3C4
:10032500FAE493A3F8E493A3C8C582C8CAC583CAEF
:10033500F0A3C8C582C8CAC583CADFE9DEE780BEA7
:01067B00007E
:1001AC00BB010689828A83E0225002E722BBFE0251
:0901BC00E32289828A83E4932284
:1001C500BB010689828A83F0225002F722BBFE0119
:0201D500F32213
:10058000C2D5E830E70FB2D5E4C39BFBE49AFAE4A6
:1005900099F9E498F8EC30E717B2D51205B61202D3
:1005A00027E4C39BFBE49AFAE499F9E498F8800302
:1005B00012022730D50DE4C39FFFE49EFEE49DFDAB
:0405C000E49CFC2299
:1001D700E86010ECA2E713FCED13FDEE13FEEF133E
:0401E700FFD8F0222B
:1001EB0075F008758200EF2FFFEE33FECD33CDCCCB
:1001FB0033CCC58233C5829BED9AEC99E58298404E
:10020B000CF582EE9BFEED9AFDEC99FC0FD5F0D62A
:10021B00E4CEFBE4CDFAE4CCF9A88222B800C1B954
:10022B000059BA002DEC8BF084CFCECDFCE5F0CB92
:10023B00F97818EF2FFFEE33FEED33FDEC33FCEBCB
:10024B0033FB10D703994004EB99FB0FD8E5E4F986
:10025B00FA227818EF2FFFEE33FEED33FDEC33FC73
:10026B00C933C910D7059BE99A4007EC9BFCE99A67
:10027B00F90FD8E0E4C9FAE4CCFB2275F010EF2FAC
:10028B00FFEE33FEED33FDCC33CCC833C810D707AC
:10029B009BEC9AE899400AED9BFDEC9AFCE899F8E7
:0E02AB000FD5F0DAE4CDFBE4CCFAE4C8F9227A
:00000001FF
